{
  "contractName": "BlockTransfer",
  "abi": [
    {
      "constant": true,
      "inputs": [
        {
          "name": "",
          "type": "address"
        }
      ],
      "name": "users",
      "outputs": [
        {
          "name": "",
          "type": "bytes32"
        }
      ],
      "payable": false,
      "stateMutability": "view",
      "type": "function",
      "signature": "0xa87430ba"
    },
    {
      "anonymous": false,
      "inputs": [
        {
          "indexed": true,
          "name": "_address",
          "type": "address"
        },
        {
          "indexed": false,
          "name": "_pseudo",
          "type": "bytes32"
        }
      ],
      "name": "UserCreated",
      "type": "event",
      "signature": "0x18ec7dd8c4d713eb3c2e0c61825f878a47e207600626611c5bc15009c743b4b6"
    },
    {
      "anonymous": false,
      "inputs": [
        {
          "indexed": true,
          "name": "_address",
          "type": "address"
        }
      ],
      "name": "UserDestroyed",
      "type": "event",
      "signature": "0x36539d9970f057e4d26f828835b69fcfff15ff997f804dace8aed405cb98455f"
    },
    {
      "constant": true,
      "inputs": [
        {
          "name": "_address",
          "type": "address"
        }
      ],
      "name": "exists",
      "outputs": [
        {
          "name": "_exists",
          "type": "bool"
        }
      ],
      "payable": false,
      "stateMutability": "view",
      "type": "function",
      "signature": "0xf6a3d24e"
    },
    {
      "constant": true,
      "inputs": [],
      "name": "authenticate",
      "outputs": [
        {
          "name": "_pseudo",
          "type": "bytes32"
        }
      ],
      "payable": false,
      "stateMutability": "view",
      "type": "function",
      "signature": "0x380c7a67"
    },
    {
      "constant": false,
      "inputs": [
        {
          "name": "_pseudo",
          "type": "bytes32"
        }
      ],
      "name": "create",
      "outputs": [],
      "payable": false,
      "stateMutability": "nonpayable",
      "type": "function",
      "signature": "0x7368a8ce"
    },
    {
      "constant": false,
      "inputs": [],
      "name": "destroy",
      "outputs": [],
      "payable": false,
      "stateMutability": "nonpayable",
      "type": "function",
      "signature": "0x83197ef0"
    },
    {
      "constant": true,
      "inputs": [
        {
          "name": "_address",
          "type": "address"
        }
      ],
      "name": "get",
      "outputs": [
        {
          "name": "_pseudo",
          "type": "bytes32"
        }
      ],
      "payable": false,
      "stateMutability": "view",
      "type": "function",
      "signature": "0xc2bc2efc"
    },
    {
      "constant": true,
      "inputs": [
        {
          "name": "a",
          "type": "address"
        }
      ],
      "name": "test",
      "outputs": [
        {
          "name": "x",
          "type": "string"
        }
      ],
      "payable": false,
      "stateMutability": "view",
      "type": "function",
      "signature": "0xbb29998e"
    }
  ],
  "bytecode": "0x608060405234801561001057600080fd5b50610417806100206000396000f3fe6080604052600436106100825763ffffffff7c0100000000000000000000000000000000000000000000000000000000600035041663380c7a6781146100875780637368a8ce146100ae57806383197ef0146100da578063a87430ba146100ef578063bb29998e1461012f578063c2bc2efc146101e4578063f6a3d24e14610224575b600080fd5b34801561009357600080fd5b5061009c610278565b60408051918252519081900360200190f35b3480156100ba57600080fd5b506100d8600480360360208110156100d157600080fd5b50356102a2565b005b3480156100e657600080fd5b506100d86102ea565b3480156100fb57600080fd5b5061009c6004803603602081101561011257600080fd5b503573ffffffffffffffffffffffffffffffffffffffff16610338565b34801561013b57600080fd5b5061016f6004803603602081101561015257600080fd5b503573ffffffffffffffffffffffffffffffffffffffff1661034a565b6040805160208082528351818301528351919283929083019185019080838360005b838110156101a9578181015183820152602001610191565b50505050905090810190601f1680156101d65780820380516001836020036101000a031916815260200191505b509250505060405180910390f35b3480156101f057600080fd5b5061009c6004803603602081101561020757600080fd5b503573ffffffffffffffffffffffffffffffffffffffff16610382565b34801561023057600080fd5b506102646004803603602081101561024757600080fd5b503573ffffffffffffffffffffffffffffffffffffffff166103c1565b604080519115158252519081900360200190f35b6000610283336103c1565b151561028e57600080fd5b503360009081526020819052604090205490565b3360008181526020818152604091829020849055815184815291517f18ec7dd8c4d713eb3c2e0c61825f878a47e207600626611c5bc15009c743b4b69281900390910190a250565b6102f3336103c1565b15156102fe57600080fd5b33600081815260208190526040808220829055517f36539d9970f057e4d26f828835b69fcfff15ff997f804dace8aed405cb98455f9190a2565b60006020819052908152604090205481565b5060408051808201909152600381527f6f6c610000000000000000000000000000000000000000000000000000000000602082015290565b600061038d826103c1565b151561039857600080fd5b5073ffffffffffffffffffffffffffffffffffffffff1660009081526020819052604090205490565b73ffffffffffffffffffffffffffffffffffffffff1660009081526020819052604090205415159056fea165627a7a72305820183592ec2f2537247e9ae6dda5f0099b9c2f25147a77016106358671f49527e70029",
  "source": "pragma solidity ^0.5.0;\n\ncontract BlockTransfer {\n mapping(address => bytes32) public users;\n\n  event UserCreated(address indexed _address, bytes32 _pseudo);\n  event UserDestroyed(address indexed _address);\n\n  function exists (address _address) public view returns (bool _exists) {\n    return (users[_address] != bytes32(0));\n  }\n\n  function authenticate () public view returns (bytes32 _pseudo) {\n    require(exists(msg.sender));\n    return (users[msg.sender]);\n  }\n\n  function create (bytes32 _pseudo) public {\n    users[msg.sender] = _pseudo ;\n    emit UserCreated(msg.sender, _pseudo);\n  }\n\n  function destroy () public {\n    require(exists(msg.sender));\n    delete users[msg.sender];\n    emit UserDestroyed(msg.sender);\n  }\n\n  function get (address _address) public view returns(bytes32 _pseudo) {\n    require(exists(_address));\n    return (users[_address]);\n  }\n  function test(address a) public view returns(string memory x) {\n      //address x = msg.sender;\n      //bytes32 res = keccak256(x);\n      return \"ola\";\n  }\n\n\n}\n",
  "sourcePath": "/home/ricardo/Desktop/LEI/BlockchainProject/vueProject/vuebox/contracts/BlockTransfer.sol",
  "compiler": {
    "name": "solc",
    "version": "0.5.0+commit.1d4f565a.Emscripten.clang"
  },
  "schemaVersion": "3.0.8",
  "updatedAt": "2019-06-12T14:25:14.205Z",
  "devdoc": {
    "methods": {}
  },
  "userdoc": {
    "methods": {}
  }
}