{
  "contractName": "Transferencias",
  "abi": [
    {
      "constant": true,
      "inputs": [
        {
          "name": "",
          "type": "uint256"
        }
      ],
      "name": "bancos",
      "outputs": [
        {
          "name": "",
          "type": "address"
        }
      ],
      "payable": false,
      "stateMutability": "view",
      "type": "function",
      "signature": "0x213dee1b"
    },
    {
      "constant": true,
      "inputs": [],
      "name": "ownerAcc",
      "outputs": [
        {
          "name": "",
          "type": "address"
        }
      ],
      "payable": false,
      "stateMutability": "view",
      "type": "function",
      "signature": "0x4826dd40"
    },
    {
      "constant": true,
      "inputs": [],
      "name": "owner2",
      "outputs": [
        {
          "name": "",
          "type": "bytes32"
        }
      ],
      "payable": false,
      "stateMutability": "view",
      "type": "function",
      "signature": "0x52709725"
    },
    {
      "constant": true,
      "inputs": [
        {
          "name": "",
          "type": "uint256"
        }
      ],
      "name": "equipas",
      "outputs": [
        {
          "name": "",
          "type": "address"
        }
      ],
      "payable": false,
      "stateMutability": "view",
      "type": "function",
      "signature": "0x6d73b6db"
    },
    {
      "constant": true,
      "inputs": [],
      "name": "owner",
      "outputs": [
        {
          "name": "",
          "type": "string"
        }
      ],
      "payable": false,
      "stateMutability": "view",
      "type": "function",
      "signature": "0x8da5cb5b"
    },
    {
      "constant": true,
      "inputs": [
        {
          "name": "",
          "type": "uint256"
        }
      ],
      "name": "federacao",
      "outputs": [
        {
          "name": "",
          "type": "address"
        }
      ],
      "payable": false,
      "stateMutability": "view",
      "type": "function",
      "signature": "0xf47ff894"
    },
    {
      "inputs": [],
      "payable": false,
      "stateMutability": "nonpayable",
      "type": "constructor",
      "signature": "constructor"
    },
    {
      "anonymous": false,
      "inputs": [
        {
          "indexed": false,
          "name": "id",
          "type": "address"
        },
        {
          "indexed": false,
          "name": "estadoFatura",
          "type": "uint256"
        }
      ],
      "name": "nextStage",
      "type": "event",
      "signature": "0x46180313f4e544006f759a5172d8959364cb38e53298b1a51b829d8d3ea77491"
    },
    {
      "anonymous": false,
      "inputs": [
        {
          "indexed": false,
          "name": "equipa",
          "type": "address"
        }
      ],
      "name": "addEquipa",
      "type": "event",
      "signature": "0x04977f35dcc04f0686d9473725138e6d0f4affbc79c276ce72856c7f8bbd22c4"
    },
    {
      "anonymous": false,
      "inputs": [
        {
          "indexed": false,
          "name": "banco",
          "type": "address"
        }
      ],
      "name": "addBanco",
      "type": "event",
      "signature": "0x1c45079182c8d9e0bda520cf306250349401df9e34b61dd0458c303a3e94ea63"
    },
    {
      "constant": false,
      "inputs": [
        {
          "name": "valor",
          "type": "uint256"
        },
        {
          "name": "emitData",
          "type": "string"
        },
        {
          "name": "hash",
          "type": "address"
        }
      ],
      "name": "adicionaFatura",
      "outputs": [],
      "payable": false,
      "stateMutability": "nonpayable",
      "type": "function",
      "signature": "0x204c4c11"
    },
    {
      "constant": false,
      "inputs": [
        {
          "name": "teste",
          "type": "string"
        },
        {
          "name": "valor",
          "type": "bytes32"
        },
        {
          "name": "hash",
          "type": "address"
        }
      ],
      "name": "testarS",
      "outputs": [],
      "payable": false,
      "stateMutability": "nonpayable",
      "type": "function",
      "signature": "0x4552831f"
    },
    {
      "constant": false,
      "inputs": [
        {
          "name": "hash",
          "type": "address"
        }
      ],
      "name": "recebeFatura",
      "outputs": [],
      "payable": false,
      "stateMutability": "nonpayable",
      "type": "function",
      "signature": "0xd5b60931"
    },
    {
      "constant": false,
      "inputs": [
        {
          "name": "hash",
          "type": "address"
        },
        {
          "name": "aceitar",
          "type": "bool"
        }
      ],
      "name": "validaFatura",
      "outputs": [],
      "payable": false,
      "stateMutability": "nonpayable",
      "type": "function",
      "signature": "0xfe8c1065"
    },
    {
      "constant": false,
      "inputs": [
        {
          "name": "hash",
          "type": "address"
        }
      ],
      "name": "pagaFatura",
      "outputs": [],
      "payable": false,
      "stateMutability": "nonpayable",
      "type": "function",
      "signature": "0x9fd2bfe5"
    },
    {
      "constant": false,
      "inputs": [
        {
          "name": "hash",
          "type": "address"
        }
      ],
      "name": "validaPagamento",
      "outputs": [],
      "payable": false,
      "stateMutability": "nonpayable",
      "type": "function",
      "signature": "0x775ffca8"
    },
    {
      "constant": false,
      "inputs": [
        {
          "name": "hash",
          "type": "address"
        }
      ],
      "name": "pagaPercentagem",
      "outputs": [],
      "payable": false,
      "stateMutability": "nonpayable",
      "type": "function",
      "signature": "0x856cd16d"
    },
    {
      "constant": true,
      "inputs": [
        {
          "name": "hash",
          "type": "address"
        }
      ],
      "name": "getEstado",
      "outputs": [
        {
          "name": "estado",
          "type": "uint256"
        }
      ],
      "payable": false,
      "stateMutability": "view",
      "type": "function",
      "signature": "0xce7c2829"
    },
    {
      "constant": false,
      "inputs": [
        {
          "name": "add",
          "type": "address"
        }
      ],
      "name": "adicionarEquipa",
      "outputs": [],
      "payable": false,
      "stateMutability": "nonpayable",
      "type": "function",
      "signature": "0x898c6ee5"
    },
    {
      "constant": false,
      "inputs": [
        {
          "name": "add",
          "type": "address"
        }
      ],
      "name": "adicionarBanco",
      "outputs": [],
      "payable": false,
      "stateMutability": "nonpayable",
      "type": "function",
      "signature": "0x28b05552"
    },
    {
      "constant": true,
      "inputs": [],
      "name": "getTeamsLength",
      "outputs": [
        {
          "name": "count",
          "type": "uint256"
        }
      ],
      "payable": false,
      "stateMutability": "view",
      "type": "function",
      "signature": "0x80fe6c3a"
    },
    {
      "constant": true,
      "inputs": [],
      "name": "getBanksLength",
      "outputs": [
        {
          "name": "count",
          "type": "uint256"
        }
      ],
      "payable": false,
      "stateMutability": "view",
      "type": "function",
      "signature": "0x1b3ebe3b"
    },
    {
      "constant": true,
      "inputs": [],
      "name": "getFederationsLength",
      "outputs": [
        {
          "name": "count",
          "type": "uint256"
        }
      ],
      "payable": false,
      "stateMutability": "view",
      "type": "function",
      "signature": "0x3267ea06"
    },
    {
      "constant": true,
      "inputs": [
        {
          "name": "add",
          "type": "address"
        }
      ],
      "name": "isMember",
      "outputs": [
        {
          "name": "res",
          "type": "bool"
        }
      ],
      "payable": false,
      "stateMutability": "view",
      "type": "function",
      "signature": "0xa230c524"
    },
    {
      "constant": false,
      "inputs": [
        {
          "name": "a",
          "type": "address"
        },
        {
          "name": "b",
          "type": "address"
        },
        {
          "name": "v",
          "type": "address"
        },
        {
          "name": "f",
          "type": "address"
        },
        {
          "name": "e",
          "type": "bytes32"
        },
        {
          "name": "d",
          "type": "bytes32"
        }
      ],
      "name": "testParams",
      "outputs": [
        {
          "name": "count",
          "type": "uint256"
        }
      ],
      "payable": false,
      "stateMutability": "nonpayable",
      "type": "function",
      "signature": "0xd31723d1"
    }
  ],
  "bytecode": "0x60806040523480156200001157600080fd5b506040805180820190915260088082527f7072696d6569726f00000000000000000000000000000000000000000000000060209092019182526200005891600491620001be565b506200009f6040518060400160405280600881526020017f7072696d6569726f0000000000000000000000000000000000000000000000008152506200014560201b60201c565b600555600380546001600160a01b03199081167324bf0ffc4daf52b0df27640882e202b0aad98b111790915560008054600181810183558280527f290decd9548b62a8d60345a988386fc84ba6bc95484008f6362f93160ef3e56391820180548516731fb4c08aea29a6642d8c963f1ca01c15c63385bc179055825490810190925501805490911673db254afdcacea500c4f7449c4b9f9da3e1224f8117905562000263565b6000816040516020018082805190602001908083835b602083106200017c5780518252601f1990920191602091820191016200015b565b6001836020036101000a038019825116818451168082178552505050505050905001915050604051602081830303815290604052805190602001209050919050565b828054600181600116156101000203166002900490600052602060002090601f016020900481019282601f106200020157805160ff191683800117855562000231565b8280016001018555821562000231579182015b828111156200023157825182559160200191906001019062000214565b506200023f92915062000243565b5090565b6200026091905b808211156200023f57600081556001016200024a565b90565b6112e180620002736000396000f3fe608060405234801561001057600080fd5b50600436106101375760003560e01c806380fe6c3a116100b8578063a230c5241161007c578063a230c5241461046d578063ce7c2829146104a7578063d31723d1146104cd578063d5b6093114610519578063f47ff8941461053f578063fe8c10651461055c57610137565b806380fe6c3a14610376578063856cd16d1461037e578063898c6ee5146103a45780638da5cb5b146103ca5780639fd2bfe51461044757610137565b80634552831f116100ff5780634552831f1461026f5780634826dd4014610323578063527097251461032b5780636d73b6db14610333578063775ffca81461035057610137565b80631b3ebe3b1461013c578063204c4c1114610156578063213dee1b1461021057806328b05552146102495780633267ea061461013c575b600080fd5b61014461058a565b60408051918252519081900360200190f35b61020e6004803603606081101561016c57600080fd5b8135919081019060408101602082013564010000000081111561018e57600080fd5b8201836020820111156101a057600080fd5b803590602001918460018302840111640100000000831117156101c257600080fd5b91908080601f016020809104026020016040519081016040528093929190818152602001838380828437600092019190915250929550505090356001600160a01b031691506105e49050565b005b61022d6004803603602081101561022657600080fd5b50356106bf565b604080516001600160a01b039092168252519081900360200190f35b61020e6004803603602081101561025f57600080fd5b50356001600160a01b03166106e6565b61020e6004803603606081101561028557600080fd5b8101906020810181356401000000008111156102a057600080fd5b8201836020820111156102b257600080fd5b803590602001918460018302840111640100000000831117156102d457600080fd5b91908080601f01602080910402602001604051908101604052809392919081815260200183838082843760009201919091525092955050823593505050602001356001600160a01b0316610817565b61022d61084e565b61014461085d565b61022d6004803603602081101561034957600080fd5b5035610863565b61020e6004803603602081101561036657600080fd5b50356001600160a01b0316610870565b61014461096d565b61020e6004803603602081101561039457600080fd5b50356001600160a01b03166109c6565b61020e600480360360208110156103ba57600080fd5b50356001600160a01b0316610ac3565b6103d2610bf2565b6040805160208082528351818301528351919283929083019185019080838360005b8381101561040c5781810151838201526020016103f4565b50505050905090810190601f1680156104395780820380516001836020036101000a031916815260200191505b509250505060405180910390f35b61020e6004803603602081101561045d57600080fd5b50356001600160a01b0316610c80565b6104936004803603602081101561048357600080fd5b50356001600160a01b0316610ccc565b604080519115158252519081900360200190f35b610144600480360360208110156104bd57600080fd5b50356001600160a01b0316610d13565b610144600480360360c08110156104e357600080fd5b506001600160a01b0381358116916020810135821691604082013581169160608101359091169060808101359060a00135610e60565b61020e6004803603602081101561052f57600080fd5b50356001600160a01b0316610e6c565b61022d6004803603602081101561055557600080fd5b5035610f67565b61020e6004803603604081101561057257600080fd5b506001600160a01b0381351690602001351515610f74565b600061059533610ccc565b15156001146105dc5760408051600160e51b62461bcd0281526020600482015260166024820152600080516020611296833981519152604482015290519081900360640190fd5b506001545b90565b6105ec61119c565b506040805160608101825284815260208082018581526001838501819052600680548083019091557ff652222313e28459528d920b65115c16c04f3efc82aaedc97be59f3f377c0d3f0180546001600160a01b0319166001600160a01b03881690811790915560009081526007845294909420835181559051805193948594929361067c939185019201906111bd565b5060409182015160029091015580516001600160a01b0384168152600160208201528151600080516020611276833981519152929181900390910190a150505050565b600181815481106106cc57fe5b6000918252602090912001546001600160a01b0316905081565b6003546001600160a01b031633146107365760408051600160e51b62461bcd0281526020600482015260166024820152600080516020611296833981519152604482015290519081900360640190fd5b61073f81610ccc565b156107945760408051600160e51b62461bcd02815260206004820152601660248201527f4163636f756e7420616c726561647920696e2075736500000000000000000000604482015290519081900360640190fd5b6001805480820182556000919091527fb10e2d527612073b26eecdfd717e6a320cf44b4afac2b0732d9fcbe2b7fa0cf60180546001600160a01b0383166001600160a01b0319909116811790915560408051918252517f1c45079182c8d9e0bda520cf306250349401df9e34b61dd0458c303a3e94ea639181900360200190a150565b604080516001600160a01b0383168152600160208201528151600080516020611276833981519152929181900390910190a1505050565b6003546001600160a01b031681565b60055481565b600081815481106106cc57fe5b61087933610ccc565b15156001146108c05760408051600160e51b62461bcd0281526020600482015260166024820152600080516020611296833981519152604482015290519081900360640190fd5b6001600160a01b0381166000908152600760205260409020600201546004146109215760408051600160e51b62461bcd0281526020600482015260176024820152600080516020611256833981519152604482015290519081900360640190fd5b6001600160a01b0381166000818152600760209081526040918290206005600290910181905582519384529083015280516000805160206112768339815191529281900390910190a150565b600061097833610ccc565b15156001146109bf5760408051600160e51b62461bcd0281526020600482015260166024820152600080516020611296833981519152604482015290519081900360640190fd5b5060005490565b6109cf33610ccc565b1515600114610a165760408051600160e51b62461bcd0281526020600482015260166024820152600080516020611296833981519152604482015290519081900360640190fd5b6001600160a01b038116600090815260076020526040902060020154600514610a775760408051600160e51b62461bcd0281526020600482015260176024820152600080516020611256833981519152604482015290519081900360640190fd5b6001600160a01b0381166000818152600760209081526040918290206006600290910181905582519384529083015280516000805160206112768339815191529281900390910190a150565b6003546001600160a01b03163314610b135760408051600160e51b62461bcd0281526020600482015260166024820152600080516020611296833981519152604482015290519081900360640190fd5b610b1c81610ccc565b15610b715760408051600160e51b62461bcd02815260206004820152601660248201527f4163636f756e7420616c726561647920696e2075736500000000000000000000604482015290519081900360640190fd5b600080546001810182559080527f290decd9548b62a8d60345a988386fc84ba6bc95484008f6362f93160ef3e5630180546001600160a01b0383166001600160a01b0319909116811790915560408051918252517f04977f35dcc04f0686d9473725138e6d0f4affbc79c276ce72856c7f8bbd22c49181900360200190a150565b6004805460408051602060026001851615610100026000190190941693909304601f81018490048402820184019092528181529291830182828015610c785780601f10610c4d57610100808354040283529160200191610c78565b820191906000526020600020905b815481529060010190602001808311610c5b57829003601f168201915b505050505081565b6001600160a01b0381166000818152600760209081526040918290206004600290910181905582519384529083015280516000805160206112768339815191529281900390910190a150565b6000610cd7826110a3565b80610ce65750610ce6826110fa565b80610cf55750610cf58261114b565b80610d0d57506003546001600160a01b038381169116145b92915050565b6000610d1e33610ccc565b1515600114610d655760408051600160e51b62461bcd0281526020600482015260166024820152600080516020611296833981519152604482015290519081900360640190fd5b610d6d61119c565b60076000846001600160a01b03166001600160a01b0316815260200190815260200160002060405180606001604052908160008201548152602001600182018054600181600116156101000203166002900480601f016020809104026020016040519081016040528092919081815260200182805460018160011615610100020316600290048015610e405780601f10610e1557610100808354040283529160200191610e40565b820191906000526020600020905b815481529060010190602001808311610e2357829003601f168201915b505050918352505060029190910154602090910152604001519392505050565b60019695505050505050565b610e7533610ccc565b1515600114610ebc5760408051600160e51b62461bcd0281526020600482015260166024820152600080516020611296833981519152604482015290519081900360640190fd5b6001600160a01b038116600090815260076020526040902060020154600114610f1d5760408051600160e51b62461bcd0281526020600482015260176024820152600080516020611256833981519152604482015290519081900360640190fd5b6001600160a01b038116600081815260076020908152604091829020600290810181905582519384529083015280516000805160206112768339815191529281900390910190a150565b600281815481106106cc57fe5b610f7d33610ccc565b1515600114610fc45760408051600160e51b62461bcd0281526020600482015260166024820152600080516020611296833981519152604482015290519081900360640190fd5b6001600160a01b0382166000908152600760205260409020600290810154146110255760408051600160e51b62461bcd0281526020600482015260176024820152600080516020611256833981519152604482015290519081900360640190fd5b8015611050576001600160a01b0382166000908152600760205260409020600360029091015561106d565b6001600160a01b0382166000908152600760205260408120600201555b604080516001600160a01b0384168152600360208201528151600080516020611276833981519152929181900390910190a15050565b6000805b6000548110156110f457826001600160a01b0316600082815481106110c857fe5b6000918252602090912001546001600160a01b031614156110ec57600191506110f4565b6001016110a7565b50919050565b6000805b6001548110156110f457826001600160a01b03166001828154811061111f57fe5b6000918252602090912001546001600160a01b0316141561114357600191506110f4565b6001016110fe565b6000805b6002548110156110f457826001600160a01b03166000828154811061117057fe5b6000918252602090912001546001600160a01b0316141561119457600191506110f4565b60010161114f565b60405180606001604052806000815260200160608152602001600081525090565b828054600181600116156101000203166002900490600052602060002090601f016020900481019282601f106111fe57805160ff191683800117855561122b565b8280016001018555821561122b579182015b8281111561122b578251825591602001919060010190611210565b5061123792915061123b565b5090565b6105e191905b80821115611237576000815560010161124156fe4f7065726174696f6e206e6f7420617661696c61626c6500000000000000000046180313f4e544006f759a5172d8959364cb38e53298b1a51b829d8d3ea7749153656e646572206e6f7420617574686f72697a65642e00000000000000000000a165627a7a72305820887cd48cb3d53a02345c5ebc312d438e2fe2a06fd29cd2e66e4763335cefdc450029",
  "source": "pragma solidity ^0.5.0;\n\ncontract Transferencias {\n\n    address[] public equipas;\n    address[] public bancos;\n    address[] public federacao;\n    address public ownerAcc;\n    string public owner;\n    bytes32 public owner2;\n\n    struct Fatura{\n        uint valorTotal;\n        string data;\n        uint estadoVenda;\n    }\n\n    address[] KeysFaturas;\n    mapping (address => Fatura) transacoes;\n    \n    //eventos teste \n    event nextStage(\n       address id,\n       uint estadoFatura\n    );\n\n    event addEquipa(\n       address equipa\n    );\n\n    event addBanco(\n       address banco\n    );\n    \n    /// The smart contract's constructor\n    constructor() public {\n        owner = \"primeiro\";\n        owner2 = calculateHash(\"primeiro\");\n        ownerAcc = 0x24BF0ffC4daf52B0df27640882E202b0AAd98B11;\n        \n        //adicionar os participantes\n        equipas.push(0x1Fb4C08AeA29A6642D8C963F1ca01c15C63385bc);\n        equipas.push(0xdB254AFdcaCEa500C4f7449c4b9F9DA3e1224F81);\n\n    }\n\n    function adicionaFatura(uint valor, string memory emitData, address  hash) public {\n       // require(isMember(msg.sender) == true,\"Sender not authorized.\");\n        \n        Fatura memory myStruct = Fatura({valorTotal:valor, data:emitData, estadoVenda:1});\n        KeysFaturas.push(hash);\n        transacoes[hash] = myStruct;\n        emit nextStage(hash,1);\n    }\n\n    function testarS(string memory teste, bytes32 valor, address hash)public {\n        emit nextStage(hash,1);\n        \n    }\n\n    function recebeFatura(address hash) public{\n        require(isMember(msg.sender) == true,\"Sender not authorized.\");\n        require(transacoes[hash].estadoVenda == 1, \"Operation not available\");\n            \n        transacoes[hash].estadoVenda = 2;  \n        emit nextStage(hash,2);      \n    }\n\n    function validaFatura(address hash, bool aceitar) public{\n        require(isMember(msg.sender) == true,\"Sender not authorized.\");\n        require(transacoes[hash].estadoVenda == 2, \"Operation not available\");\n        \n        if(aceitar)\n            transacoes[hash].estadoVenda = 3; \n        else\n            transacoes[hash].estadoVenda = 0; \n        emit nextStage(hash,3);\n    }\n\n    function pagaFatura(address hash) public{\n        //require(isMember(msg.sender) == true,\"Sender not authorized.\");\n        //require(transacoes[hash].estadoVenda == 3, \"Operation not available\");\n        \n        transacoes[hash].estadoVenda = 4;  \n        emit nextStage(hash,4);\n    }\n\n\n    function validaPagamento(address hash) public{\n        require(isMember(msg.sender) == true,\"Sender not authorized.\");\n        require(transacoes[hash].estadoVenda == 4, \"Operation not available\");\n            \n        transacoes[hash].estadoVenda = 5;  \n        emit nextStage(hash,5);\n    }\n\n\n    function pagaPercentagem(address hash) public{\n        require(isMember(msg.sender) == true,\"Sender not authorized.\");    \n        require(transacoes[hash].estadoVenda == 5, \"Operation not available\");\n\n        transacoes[hash].estadoVenda = 6;  \n        emit nextStage(hash,6);\n    }\n\n\n    function getEstado(address hash) public view returns (uint estado) {\n        require(isMember(msg.sender) == true,\"Sender not authorized.\");\n        Fatura memory fatura = transacoes[hash];\n        return fatura.estadoVenda;\n    }\n\n    function adicionarEquipa(address add) public{\n        require(msg.sender == ownerAcc, \"Sender not authorized.\");\n        require(!isMember(add), \"Account already in use\");\n        equipas.push(add);\n        emit addEquipa(add); \n    }\n\n    function adicionarBanco(address add) public{\n        require(msg.sender == ownerAcc, \"Sender not authorized.\");\n        require(!isMember(add), \"Account already in use\");\n        bancos.push(add);\n        emit addBanco(add); \n    }\n\n    function getTeamsLength() public view returns (uint count) {\n        require(isMember(msg.sender) == true,\"Sender not authorized.\");\n        return equipas.length;\n    }\n\n    function getBanksLength() public view returns (uint count) {\n        require(isMember(msg.sender) == true,\"Sender not authorized.\");\n        return bancos.length;\n    }\n\n    function getFederationsLength() public view returns (uint count) {\n        require(isMember(msg.sender) == true,\"Sender not authorized.\");\n        return bancos.length;\n    }\n\n    function calculateHash(string memory s ) internal pure returns (bytes32 res) {\n        return keccak256(abi.encodePacked(s));\n    }\n\n    function isTeam(address add) private view returns (bool res) {\n        res=false;\n        for (uint i=0; i<equipas.length; i++) {\n            if (equipas[i] == add) {\n                res=true;\n                break;\n            }\n        }\n        return res;\n    }\n\n    function isBank(address add) private view returns (bool res) {\n        res=false;\n        for (uint i=0; i<bancos.length; i++) {\n            if (bancos[i] == add) {\n                res=true;\n                break;\n            }\n        }\n        return res;\n    }\n\n    function isFederation(address add) private view returns (bool res) {\n        res=false;\n        for (uint i=0; i<federacao.length; i++) {\n            if (equipas[i] == add) {\n                res=true;\n                break;\n            }\n        }\n        return res;\n    }\n\n    function isMember(address add) public view returns (bool res) {\n        return (isTeam(add) || isBank(add) || isFederation(add) || add == ownerAcc);\n    }\n\n    function testParams(address a,address b,address v,address f,bytes32 e, bytes32 d) public  returns (uint count) {\n        return 1;\n    }\n\n}\n",
  "sourcePath": "/home/pc/Desktop/2semestre/Eng_seg/BlockchainProject/vueProject/vuebox/contracts/Transferencias.sol",
  "compiler": {
    "name": "solc",
    "version": "0.5.7+commit.6da8b019.Emscripten.clang"
  },
  "schemaVersion": "3.0.0-beta.2",
  "updatedAt": "2019-06-06T21:18:47.463Z",
  "devdoc": {
    "methods": {}
  },
  "userdoc": {
    "methods": {
      "constructor": "The smart contract's constructor"
    }
  }
}