{
  "contractName": "Transferencias",
  "abi": [
    {
      "constant": true,
      "inputs": [
        {
          "name": "",
          "type": "uint256"
        }
      ],
      "name": "bancos",
      "outputs": [
        {
          "name": "",
          "type": "address"
        }
      ],
      "payable": false,
      "stateMutability": "view",
      "type": "function",
      "signature": "0x213dee1b"
    },
    {
      "constant": true,
      "inputs": [],
      "name": "ownerAcc",
      "outputs": [
        {
          "name": "",
          "type": "address"
        }
      ],
      "payable": false,
      "stateMutability": "view",
      "type": "function",
      "signature": "0x4826dd40"
    },
    {
      "constant": true,
      "inputs": [],
      "name": "owner2",
      "outputs": [
        {
          "name": "",
          "type": "bytes32"
        }
      ],
      "payable": false,
      "stateMutability": "view",
      "type": "function",
      "signature": "0x52709725"
    },
    {
      "constant": true,
      "inputs": [
        {
          "name": "",
          "type": "uint256"
        }
      ],
      "name": "equipas",
      "outputs": [
        {
          "name": "",
          "type": "address"
        }
      ],
      "payable": false,
      "stateMutability": "view",
      "type": "function",
      "signature": "0x6d73b6db"
    },
    {
      "constant": true,
      "inputs": [],
      "name": "owner",
      "outputs": [
        {
          "name": "",
          "type": "string"
        }
      ],
      "payable": false,
      "stateMutability": "view",
      "type": "function",
      "signature": "0x8da5cb5b"
    },
    {
      "constant": true,
      "inputs": [
        {
          "name": "",
          "type": "uint256"
        }
      ],
      "name": "federacao",
      "outputs": [
        {
          "name": "",
          "type": "address"
        }
      ],
      "payable": false,
      "stateMutability": "view",
      "type": "function",
      "signature": "0xf47ff894"
    },
    {
      "inputs": [],
      "payable": false,
      "stateMutability": "nonpayable",
      "type": "constructor",
      "signature": "constructor"
    },
    {
      "anonymous": false,
      "inputs": [
        {
          "indexed": false,
          "name": "name",
          "type": "string"
        },
        {
          "indexed": false,
          "name": "age",
          "type": "uint256"
        }
      ],
      "name": "Exemplo",
      "type": "event",
      "signature": "0x9248a77bbe413ca7fda21b9e18cbd8bcebfaf4236c06a66f70a3fe6296a297e7"
    },
    {
      "constant": false,
      "inputs": [
        {
          "name": "valor",
          "type": "uint256"
        },
        {
          "name": "emitData",
          "type": "string"
        },
        {
          "name": "hash",
          "type": "bytes32"
        }
      ],
      "name": "adicionaFatura",
      "outputs": [],
      "payable": false,
      "stateMutability": "nonpayable",
      "type": "function",
      "signature": "0xca850d19"
    },
    {
      "constant": false,
      "inputs": [
        {
          "name": "hash",
          "type": "bytes32"
        }
      ],
      "name": "recebeFatura",
      "outputs": [],
      "payable": false,
      "stateMutability": "nonpayable",
      "type": "function",
      "signature": "0x8d3ce961"
    },
    {
      "constant": false,
      "inputs": [
        {
          "name": "hash",
          "type": "bytes32"
        },
        {
          "name": "aceitar",
          "type": "bool"
        }
      ],
      "name": "validaFatura",
      "outputs": [],
      "payable": false,
      "stateMutability": "nonpayable",
      "type": "function",
      "signature": "0x141883cc"
    },
    {
      "constant": false,
      "inputs": [
        {
          "name": "hash",
          "type": "bytes32"
        }
      ],
      "name": "pagaFatura",
      "outputs": [],
      "payable": false,
      "stateMutability": "nonpayable",
      "type": "function",
      "signature": "0x896291d9"
    },
    {
      "constant": false,
      "inputs": [
        {
          "name": "hash",
          "type": "bytes32"
        }
      ],
      "name": "validaPagamento",
      "outputs": [],
      "payable": false,
      "stateMutability": "nonpayable",
      "type": "function",
      "signature": "0x5bc2bcc9"
    },
    {
      "constant": false,
      "inputs": [
        {
          "name": "hash",
          "type": "bytes32"
        }
      ],
      "name": "pagaPercentagem",
      "outputs": [],
      "payable": false,
      "stateMutability": "nonpayable",
      "type": "function",
      "signature": "0x1ef57d81"
    },
    {
      "constant": true,
      "inputs": [
        {
          "name": "hash",
          "type": "bytes32"
        }
      ],
      "name": "getEstado",
      "outputs": [
        {
          "name": "estado",
          "type": "uint256"
        }
      ],
      "payable": false,
      "stateMutability": "view",
      "type": "function",
      "signature": "0x845da51d"
    },
    {
      "constant": false,
      "inputs": [],
      "name": "adicionarEquipa",
      "outputs": [],
      "payable": false,
      "stateMutability": "nonpayable",
      "type": "function",
      "signature": "0xdee151f3"
    },
    {
      "constant": false,
      "inputs": [],
      "name": "adicionarBanco",
      "outputs": [],
      "payable": false,
      "stateMutability": "nonpayable",
      "type": "function",
      "signature": "0x5e5cc1a8"
    },
    {
      "constant": true,
      "inputs": [],
      "name": "getTeamsLength",
      "outputs": [
        {
          "name": "count",
          "type": "uint256"
        }
      ],
      "payable": false,
      "stateMutability": "view",
      "type": "function",
      "signature": "0x80fe6c3a"
    },
    {
      "constant": true,
      "inputs": [],
      "name": "getBanksLength",
      "outputs": [
        {
          "name": "count",
          "type": "uint256"
        }
      ],
      "payable": false,
      "stateMutability": "view",
      "type": "function",
      "signature": "0x1b3ebe3b"
    }
  ],
  "bytecode": "0x60806040523480156200001157600080fd5b506040805180820190915260088082527f7072696d6569726f00000000000000000000000000000000000000000000000060209092019182526200005891600491620001a0565b506200009f6040518060400160405280600881526020017f7072696d6569726f0000000000000000000000000000000000000000000000008152506200012760201b60201c565b60055560008054600181810183558280527f290decd9548b62a8d60345a988386fc84ba6bc95484008f6362f93160ef3e56391820180546001600160a01b0319908116731fb4c08aea29a6642d8c963f1ca01c15c63385bc17909155835491820190935501805490911673db254afdcacea500c4f7449c4b9f9da3e1224f8117905562000245565b6000816040516020018082805190602001908083835b602083106200015e5780518252601f1990920191602091820191016200013d565b6001836020036101000a038019825116818451168082178552505050505050905001915050604051602081830303815290604052805190602001209050919050565b828054600181600116156101000203166002900490600052602060002090601f016020900481019282601f10620001e357805160ff191683800117855562000213565b8280016001018555821562000213579182015b8281111562000213578251825591602001919060010190620001f6565b506200022192915062000225565b5090565b6200024291905b808211156200022157600081556001016200022c565b90565b610df580620002556000396000f3fe608060405234801561001057600080fd5b506004361061010b5760003560e01c80636d73b6db116100a25780638d3ce961116100715780638d3ce9611461023b5780638da5cb5b14610258578063ca850d19146102d5578063dee151f314610384578063f47ff8941461038c5761010b565b80636d73b6db146101dc57806380fe6c3a146101f9578063845da51d14610201578063896291d91461021e5761010b565b80634826dd40116100de5780634826dd40146101a757806352709725146101af5780635bc2bcc9146101b75780635e5cc1a8146101d45761010b565b8063141883cc146101105780631b3ebe3b146101375780631ef57d8114610151578063213dee1b1461016e575b600080fd5b6101356004803603604081101561012657600080fd5b508035906020013515156103a9565b005b61013f61044b565b60408051918252519081900360200190f35b6101356004803603602081101561016757600080fd5b50356104a5565b61018b6004803603602081101561018457600080fd5b5035610529565b604080516001600160a01b039092168252519081900360200190f35b61018b610550565b61013f61055f565b610135600480360360208110156101cd57600080fd5b5035610565565b6101356105e7565b61018b600480360360208110156101f257600080fd5b50356106c9565b61013f6106d6565b61013f6004803603602081101561021757600080fd5b503561072f565b6101356004803603602081101561023457600080fd5b503561086a565b6101356004803603602081101561025157600080fd5b50356108ec565b61026061096c565b6040805160208082528351818301528351919283929083019185019080838360005b8381101561029a578181015183820152602001610282565b50505050905090810190601f1680156102c75780820380516001836020036101000a031916815260200191505b509250505060405180910390f35b610135600480360360608110156102eb57600080fd5b8135919081019060408101602082013564010000000081111561030d57600080fd5b82018360208201111561031f57600080fd5b8035906020019184600183028401116401000000008311171561034157600080fd5b91908080601f01602080910402602001604051908101604052809392919081815260200183838082843760009201919091525092955050913592506109fa915050565b610135610adb565b61018b600480360360208110156103a257600080fd5b5035610bbb565b6103b233610bc8565b15156001146103f95760408051600160e51b62461bcd0281526020600482015260166024820152600080516020610daa833981519152604482015290519081900360640190fd5b600082815260076020526040902060029081015414156104475780156104345760008281526007602052604090206003600290910155610447565b6000828152600760205260408120600201555b5050565b600061045633610c1f565b151560011461049d5760408051600160e51b62461bcd0281526020600482015260166024820152600080516020610daa833981519152604482015290519081900360640190fd5b506001545b90565b6104ae33610bc8565b15156001146104f55760408051600160e51b62461bcd0281526020600482015260166024820152600080516020610daa833981519152604482015290519081900360640190fd5b6000818152600760205260409020600201546005141561052657600081815260076020526040902060066002909101555b50565b6001818154811061053657fe5b6000918252602090912001546001600160a01b0316905081565b6003546001600160a01b031681565b60055481565b61056e33610c4e565b15156001146105b55760408051600160e51b62461bcd0281526020600482015260166024820152600080516020610daa833981519152604482015290519081900360640190fd5b600081815260076020526040902060020154600414156105265760009081526007602052604090206005600290910155565b6003546001600160a01b031633146106375760408051600160e51b62461bcd0281526020600482015260166024820152600080516020610daa833981519152604482015290519081900360640190fd5b6001805480820182556000919091527fb10e2d527612073b26eecdfd717e6a320cf44b4afac2b0732d9fcbe2b7fa0cf60180546001600160a01b0319163317905560408051607b6020820152818152600381830152600160e81b626f6c6102606082015290517f9248a77bbe413ca7fda21b9e18cbd8bcebfaf4236c06a66f70a3fe6296a297e79181900360800190a1565b6000818154811061053657fe5b60006106e133610c1f565b15156001146107285760408051600160e51b62461bcd0281526020600482015260166024820152600080516020610daa833981519152604482015290519081900360640190fd5b5060005490565b600061073a33610c1f565b15156001146107815760408051600160e51b62461bcd0281526020600482015260166024820152600080516020610daa833981519152604482015290519081900360640190fd5b610789610cf0565b6007600084815260200190815260200160002060405180606001604052908160008201548152602001600182018054600181600116156101000203166002900480601f01602080910402602001604051908101604052809291908181526020018280546001816001161561010002031660029004801561084a5780601f1061081f5761010080835404028352916020019161084a565b820191906000526020600020905b81548152906001019060200180831161082d57829003601f168201915b505050918352505060029190910154602090910152604001519392505050565b61087333610bc8565b15156001146108ba5760408051600160e51b62461bcd0281526020600482015260166024820152600080516020610daa833981519152604482015290519081900360640190fd5b600081815260076020526040902060020154600314156105265760009081526007602052604090206004600290910155565b6108f533610bc8565b151560011461093c5760408051600160e51b62461bcd0281526020600482015260166024820152600080516020610daa833981519152604482015290519081900360640190fd5b60008181526007602052604090206002015460011415610526576000908152600760205260409020600290810155565b6004805460408051602060026001851615610100026000190190941693909304601f810184900484028201840190925281815292918301828280156109f25780601f106109c7576101008083540402835291602001916109f2565b820191906000526020600020905b8154815290600101906020018083116109d557829003601f168201915b505050505081565b610a02610cf0565b506040805160608101825284815260208082018581526001838501819052600680548083019091557ff652222313e28459528d920b65115c16c04f3efc82aaedc97be59f3f377c0d3f01869055600086815260078452949094208351815590518051939485949293610a7993918501920190610d11565b50604091820151600290910155805160166020820152818152600581830152600160d81b64746573746502606082015290517f9248a77bbe413ca7fda21b9e18cbd8bcebfaf4236c06a66f70a3fe6296a297e79181900360800190a150505050565b6003546001600160a01b03163314610b2b5760408051600160e51b62461bcd0281526020600482015260166024820152600080516020610daa833981519152604482015290519081900360640190fd5b600080546001810182559080527f290decd9548b62a8d60345a988386fc84ba6bc95484008f6362f93160ef3e5630180546001600160a01b0319163317905560408051607b6020820152818152600381830152600160e81b626f6c6102606082015290517f9248a77bbe413ca7fda21b9e18cbd8bcebfaf4236c06a66f70a3fe6296a297e79181900360800190a1565b6002818154811061053657fe5b6000805b600054811015610c1957826001600160a01b031660008281548110610bed57fe5b6000918252602090912001546001600160a01b03161415610c115760019150610c19565b600101610bcc565b50919050565b6000610c2a82610bc8565b80610c395750610c3982610c4e565b80610c485750610c4882610c9f565b92915050565b6000805b600154811015610c1957826001600160a01b031660018281548110610c7357fe5b6000918252602090912001546001600160a01b03161415610c975760019150610c19565b600101610c52565b6000805b600254811015610c1957826001600160a01b031660008281548110610cc457fe5b6000918252602090912001546001600160a01b03161415610ce85760019150610c19565b600101610ca3565b60405180606001604052806000815260200160608152602001600081525090565b828054600181600116156101000203166002900490600052602060002090601f016020900481019282601f10610d5257805160ff1916838001178555610d7f565b82800160010185558215610d7f579182015b82811115610d7f578251825591602001919060010190610d64565b50610d8b929150610d8f565b5090565b6104a291905b80821115610d8b5760008155600101610d9556fe53656e646572206e6f7420617574686f72697a65642e00000000000000000000a165627a7a72305820b362cd6e82995b3ce3b8129fc275be7a743354e965bfcf23e8af06a1382f4de70029",
  "source": "pragma solidity ^0.5.0;\n\ncontract Transferencias {\n\n    address[] public equipas;\n    address[] public bancos;\n    address[] public federacao;\n    address public ownerAcc;\n    string public owner;\n    bytes32 public owner2;\n\n    struct Fatura{\n        uint valorTotal;\n        string data;\n        uint estadoVenda;\n    }\n\n    bytes32[] KeysFaturas;\n    mapping (bytes32 => Fatura) transacoes;\n    \n    //eventos teste \n    event Exemplo(\n       string name,\n       uint age\n    );\n    \n    /// The smart contract's constructor\n    constructor() public {\n        owner = \"primeiro\";\n        owner2= calculateHash(\"primeiro\");\n        \n        //adicionar os participantes\n        equipas.push(0x1Fb4C08AeA29A6642D8C963F1ca01c15C63385bc);\n        equipas.push(0xdB254AFdcaCEa500C4f7449c4b9F9DA3e1224F81);\n\n    }\n\n    function adicionaFatura(uint valor, string memory emitData, bytes32 hash) public {\n        //require(isTeam(msg.sender) == true,\"Sender not authorized.\");\n        \n        Fatura memory myStruct = Fatura({valorTotal:valor, data:emitData, estadoVenda:1});\n        KeysFaturas.push(hash);\n        transacoes[hash] = myStruct;\n        emit Exemplo(\"teste\",22);\n    }\n\n    function recebeFatura(bytes32 hash) public{\n        require(isTeam(msg.sender) == true,\"Sender not authorized.\");\n\n        if(transacoes[hash].estadoVenda == 1)\n            transacoes[hash].estadoVenda = 2;        \n    }\n\n    function validaFatura(bytes32 hash, bool aceitar) public{\n        require(isTeam(msg.sender) == true,\"Sender not authorized.\");\n        \n        if(transacoes[hash].estadoVenda == 2)\n            if(aceitar)\n                transacoes[hash].estadoVenda = 3; \n            else\n                transacoes[hash].estadoVenda = 0; \n    }\n\n    function pagaFatura(bytes32 hash) public{\n        require(isTeam(msg.sender) == true,\"Sender not authorized.\");\n        \n        if(transacoes[hash].estadoVenda == 3)\n            transacoes[hash].estadoVenda = 4; \n    }\n\n\n    function validaPagamento(bytes32 hash) public{\n        require(isBank(msg.sender) == true,\"Sender not authorized.\");\n        \n        if(transacoes[hash].estadoVenda == 4)\n            transacoes[hash].estadoVenda = 5; \n    }\n\n\n    function pagaPercentagem(bytes32 hash) public{\n        require(isTeam(msg.sender) == true,\"Sender not authorized.\");\n        \n        if(transacoes[hash].estadoVenda == 5)\n            transacoes[hash].estadoVenda = 6; \n    }\n\n\n    function getEstado(bytes32 hash) public view returns (uint estado) {\n        require(isMember(msg.sender) == true,\"Sender not authorized.\");\n        Fatura memory fatura = transacoes[hash];\n        return fatura.estadoVenda;\n    }\n\n    function adicionarEquipa() public{\n        require(msg.sender == ownerAcc, \"Sender not authorized.\");\n        equipas.push(msg.sender);\n        emit Exemplo(\"ola\",123); \n    }\n\n    function adicionarBanco() public{\n        require(msg.sender == ownerAcc, \"Sender not authorized.\");\n        bancos.push(msg.sender);\n        emit Exemplo(\"ola\",123); \n    }\n\n    function getTeamsLength() public view returns (uint count) {\n        require(isMember(msg.sender) == true,\"Sender not authorized.\");\n        return equipas.length;\n    }\n\n    function getBanksLength() public view returns (uint count) {\n        require(isMember(msg.sender) == true,\"Sender not authorized.\");\n        return bancos.length;\n    }\n\n    function calculateHash(string memory s ) internal pure returns (bytes32 res) {\n        return keccak256(abi.encodePacked(s));\n    }\n\n    function isTeam(address add) private view returns (bool res) {\n        res=false;\n        for (uint i=0; i<equipas.length; i++) {\n            if (equipas[i] == add) {\n                res=true;\n                break;\n            }\n        }\n        return res;\n    }\n\n    function isBank(address add) private view returns (bool res) {\n        res=false;\n        for (uint i=0; i<bancos.length; i++) {\n            if (bancos[i] == add) {\n                res=true;\n                break;\n            }\n        }\n        return res;\n    }\n\n    function isFederation(address add) private view returns (bool res) {\n        res=false;\n        for (uint i=0; i<federacao.length; i++) {\n            if (equipas[i] == add) {\n                res=true;\n                break;\n            }\n        }\n        return res;\n    }\n\n    function isMember(address add) private view returns (bool res) {\n        return (isTeam(add) || isBank(add) || isFederation(add));\n    }\n\n}\n",
  "sourcePath": "/home/pc/Desktop/2semestre/Eng_seg/BlockchainProject/vueProject/vuebox/contracts/Transferencias.sol",
  "compiler": {
    "name": "solc",
    "version": "0.5.7+commit.6da8b019.Emscripten.clang"
  },
  "schemaVersion": "3.0.0-beta.2",
  "updatedAt": "2019-04-27T13:26:44.310Z",
  "devdoc": {
    "methods": {}
  },
  "userdoc": {
    "methods": {
      "constructor": "The smart contract's constructor"
    }
  }
}