{
  "contractName": "Transferencias",
  "abi": [
    {
      "constant": true,
      "inputs": [
        {
          "name": "",
          "type": "uint256"
        }
      ],
      "name": "bancos",
      "outputs": [
        {
          "name": "",
          "type": "address"
        }
      ],
      "payable": false,
      "stateMutability": "view",
      "type": "function",
      "signature": "0x213dee1b"
    },
    {
      "constant": true,
      "inputs": [],
      "name": "ownerAcc",
      "outputs": [
        {
          "name": "",
          "type": "address"
        }
      ],
      "payable": false,
      "stateMutability": "view",
      "type": "function",
      "signature": "0x4826dd40"
    },
    {
      "constant": true,
      "inputs": [],
      "name": "owner2",
      "outputs": [
        {
          "name": "",
          "type": "bytes32"
        }
      ],
      "payable": false,
      "stateMutability": "view",
      "type": "function",
      "signature": "0x52709725"
    },
    {
      "constant": true,
      "inputs": [
        {
          "name": "",
          "type": "uint256"
        }
      ],
      "name": "equipas",
      "outputs": [
        {
          "name": "",
          "type": "address"
        }
      ],
      "payable": false,
      "stateMutability": "view",
      "type": "function",
      "signature": "0x6d73b6db"
    },
    {
      "constant": true,
      "inputs": [],
      "name": "owner",
      "outputs": [
        {
          "name": "",
          "type": "string"
        }
      ],
      "payable": false,
      "stateMutability": "view",
      "type": "function",
      "signature": "0x8da5cb5b"
    },
    {
      "constant": true,
      "inputs": [
        {
          "name": "",
          "type": "uint256"
        }
      ],
      "name": "federacao",
      "outputs": [
        {
          "name": "",
          "type": "address"
        }
      ],
      "payable": false,
      "stateMutability": "view",
      "type": "function",
      "signature": "0xf47ff894"
    },
    {
      "inputs": [],
      "payable": false,
      "stateMutability": "nonpayable",
      "type": "constructor",
      "signature": "constructor"
    },
    {
      "anonymous": false,
      "inputs": [
        {
          "indexed": false,
          "name": "id",
          "type": "string"
        },
        {
          "indexed": false,
          "name": "estadoFatura",
          "type": "uint256"
        }
      ],
      "name": "nextStage",
      "type": "event",
      "signature": "0x2dba7dee5f7a8d10f74314fb61055b32a5230e5a471a18e784cbc06cad3b7a0a"
    },
    {
      "anonymous": false,
      "inputs": [
        {
          "indexed": false,
          "name": "equipa",
          "type": "address"
        }
      ],
      "name": "addEquipa",
      "type": "event",
      "signature": "0x04977f35dcc04f0686d9473725138e6d0f4affbc79c276ce72856c7f8bbd22c4"
    },
    {
      "anonymous": false,
      "inputs": [
        {
          "indexed": false,
          "name": "banco",
          "type": "address"
        }
      ],
      "name": "addBanco",
      "type": "event",
      "signature": "0x1c45079182c8d9e0bda520cf306250349401df9e34b61dd0458c303a3e94ea63"
    },
    {
      "constant": false,
      "inputs": [
        {
          "name": "valor",
          "type": "uint256"
        },
        {
          "name": "emitData",
          "type": "string"
        },
        {
          "name": "hash",
          "type": "string"
        }
      ],
      "name": "adicionaFatura",
      "outputs": [],
      "payable": false,
      "stateMutability": "nonpayable",
      "type": "function",
      "signature": "0xa03ad4e8"
    },
    {
      "constant": false,
      "inputs": [
        {
          "name": "teste",
          "type": "string"
        },
        {
          "name": "valor",
          "type": "bytes32"
        },
        {
          "name": "hash",
          "type": "string"
        }
      ],
      "name": "testarS",
      "outputs": [],
      "payable": false,
      "stateMutability": "nonpayable",
      "type": "function",
      "signature": "0x64393cb4"
    },
    {
      "constant": false,
      "inputs": [
        {
          "name": "hash",
          "type": "string"
        }
      ],
      "name": "recebeFatura",
      "outputs": [],
      "payable": false,
      "stateMutability": "nonpayable",
      "type": "function",
      "signature": "0x50ff0146"
    },
    {
      "constant": false,
      "inputs": [
        {
          "name": "hash",
          "type": "string"
        },
        {
          "name": "aceitar",
          "type": "bool"
        }
      ],
      "name": "validaFatura",
      "outputs": [],
      "payable": false,
      "stateMutability": "nonpayable",
      "type": "function",
      "signature": "0x4e336266"
    },
    {
      "constant": false,
      "inputs": [
        {
          "name": "hash",
          "type": "string"
        }
      ],
      "name": "pagaFatura",
      "outputs": [],
      "payable": false,
      "stateMutability": "nonpayable",
      "type": "function",
      "signature": "0x84352180"
    },
    {
      "constant": false,
      "inputs": [
        {
          "name": "hash",
          "type": "string"
        }
      ],
      "name": "validaPagamento",
      "outputs": [],
      "payable": false,
      "stateMutability": "nonpayable",
      "type": "function",
      "signature": "0xa2e2a67d"
    },
    {
      "constant": false,
      "inputs": [
        {
          "name": "hash",
          "type": "string"
        }
      ],
      "name": "pagaPercentagem",
      "outputs": [],
      "payable": false,
      "stateMutability": "nonpayable",
      "type": "function",
      "signature": "0x59d07102"
    },
    {
      "constant": true,
      "inputs": [
        {
          "name": "hash",
          "type": "string"
        }
      ],
      "name": "getEstado",
      "outputs": [
        {
          "name": "estado",
          "type": "uint256"
        }
      ],
      "payable": false,
      "stateMutability": "view",
      "type": "function",
      "signature": "0xecc0a39b"
    },
    {
      "constant": false,
      "inputs": [
        {
          "name": "add",
          "type": "address"
        }
      ],
      "name": "adicionarEquipa",
      "outputs": [],
      "payable": false,
      "stateMutability": "nonpayable",
      "type": "function",
      "signature": "0x898c6ee5"
    },
    {
      "constant": false,
      "inputs": [
        {
          "name": "add",
          "type": "address"
        }
      ],
      "name": "adicionarBanco",
      "outputs": [],
      "payable": false,
      "stateMutability": "nonpayable",
      "type": "function",
      "signature": "0x28b05552"
    },
    {
      "constant": true,
      "inputs": [],
      "name": "getTeamsLength",
      "outputs": [
        {
          "name": "count",
          "type": "uint256"
        }
      ],
      "payable": false,
      "stateMutability": "view",
      "type": "function",
      "signature": "0x80fe6c3a"
    },
    {
      "constant": true,
      "inputs": [],
      "name": "getBanksLength",
      "outputs": [
        {
          "name": "count",
          "type": "uint256"
        }
      ],
      "payable": false,
      "stateMutability": "view",
      "type": "function",
      "signature": "0x1b3ebe3b"
    },
    {
      "constant": true,
      "inputs": [],
      "name": "getFederationsLength",
      "outputs": [
        {
          "name": "count",
          "type": "uint256"
        }
      ],
      "payable": false,
      "stateMutability": "view",
      "type": "function",
      "signature": "0x3267ea06"
    },
    {
      "constant": true,
      "inputs": [
        {
          "name": "add",
          "type": "address"
        }
      ],
      "name": "isMember",
      "outputs": [
        {
          "name": "res",
          "type": "bool"
        }
      ],
      "payable": false,
      "stateMutability": "view",
      "type": "function",
      "signature": "0xa230c524"
    }
  ],
  "bytecode": "0x60806040523480156200001157600080fd5b506040805180820190915260088082527f7072696d6569726f00000000000000000000000000000000000000000000000060209092019182526200005891600491620001c0565b5060408051808201909152600881527f7072696d6569726f0000000000000000000000000000000000000000000000006020820152620000a19064010000000062000147810204565b60055560038054600160a060020a03199081167324bf0ffc4daf52b0df27640882e202b0aad98b111790915560008054600181810183558280527f290decd9548b62a8d60345a988386fc84ba6bc95484008f6362f93160ef3e56391820180548516731fb4c08aea29a6642d8c963f1ca01c15c63385bc179055825490810190925501805490911673db254afdcacea500c4f7449c4b9f9da3e1224f8117905562000265565b6000816040516020018082805190602001908083835b602083106200017e5780518252601f1990920191602091820191016200015d565b6001836020036101000a038019825116818451168082178552505050505050905001915050604051602081830303815290604052805190602001209050919050565b828054600181600116156101000203166002900490600052602060002090601f016020900481019282601f106200020357805160ff191683800117855562000233565b8280016001018555821562000233579182015b828111156200023357825182559160200191906001019062000216565b506200024192915062000245565b5090565b6200026291905b808211156200024157600081556001016200024c565b90565b611d9580620002756000396000f3fe6080604052600436106101115763ffffffff7c01000000000000000000000000000000000000000000000000000000006000350416631b3ebe3b8114610116578063213dee1b1461013d57806328b05552146101835780633267ea06146101165780634826dd40146101b85780634e336266146101cd57806350ff014614610282578063527097251461033557806359d071021461034a57806364393cb4146103fd5780636d73b6db1461053f57806380fe6c3a14610569578063843521801461057e578063898c6ee5146106315780638da5cb5b14610664578063a03ad4e8146106ee578063a230c5241461082f578063a2e2a67d14610876578063ecc0a39b14610929578063f47ff894146109dc575b600080fd5b34801561012257600080fd5b5061012b610a06565b60408051918252519081900360200190f35b34801561014957600080fd5b506101676004803603602081101561016057600080fd5b5035610a60565b60408051600160a060020a039092168252519081900360200190f35b34801561018f57600080fd5b506101b6600480360360208110156101a657600080fd5b5035600160a060020a0316610a88565b005b3480156101c457600080fd5b50610167610bc6565b3480156101d957600080fd5b506101b6600480360360408110156101f057600080fd5b81019060208101813564010000000081111561020b57600080fd5b82018360208201111561021d57600080fd5b8035906020019184600183028401116401000000008311171561023f57600080fd5b91908080601f0160208091040260200160405190810160405280939291908181526020018383808284376000920191909152509295505050503515159050610bd5565b34801561028e57600080fd5b506101b6600480360360208110156102a557600080fd5b8101906020810181356401000000008111156102c057600080fd5b8201836020820111156102d257600080fd5b803590602001918460018302840111640100000000831117156102f457600080fd5b91908080601f016020809104026020016040519081016040528093929190818152602001838380828437600092019190915250929550610e40945050505050565b34801561034157600080fd5b5061012b611032565b34801561035657600080fd5b506101b66004803603602081101561036d57600080fd5b81019060208101813564010000000081111561038857600080fd5b82018360208201111561039a57600080fd5b803590602001918460018302840111640100000000831117156103bc57600080fd5b91908080601f016020809104026020016040519081016040528093929190818152602001838380828437600092019190915250929550611038945050505050565b34801561040957600080fd5b506101b66004803603606081101561042057600080fd5b81019060208101813564010000000081111561043b57600080fd5b82018360208201111561044d57600080fd5b8035906020019184600183028401116401000000008311171561046f57600080fd5b91908080601f016020809104026020016040519081016040528093929190818152602001838380828437600092019190915250929584359590949093506040810192506020013590506401000000008111156104ca57600080fd5b8201836020820111156104dc57600080fd5b803590602001918460018302840111640100000000831117156104fe57600080fd5b91908080601f0160208091040260200160405190810160405280939291908181526020018383808284376000920191909152509295506111f4945050505050565b34801561054b57600080fd5b506101676004803603602081101561056257600080fd5b503561124d565b34801561057557600080fd5b5061012b61125b565b34801561058a57600080fd5b506101b6600480360360208110156105a157600080fd5b8101906020810181356401000000008111156105bc57600080fd5b8201836020820111156105ce57600080fd5b803590602001918460018302840111640100000000831117156105f057600080fd5b91908080601f0160208091040260200160405190810160405280939291908181526020018383808284376000920191909152509295506112b4945050505050565b34801561063d57600080fd5b506101b66004803603602081101561065457600080fd5b5035600160a060020a0316611470565b34801561067057600080fd5b506106796115ac565b6040805160208082528351818301528351919283929083019185019080838360005b838110156106b357818101518382015260200161069b565b50505050905090810190601f1680156106e05780820380516001836020036101000a031916815260200191505b509250505060405180910390f35b3480156106fa57600080fd5b506101b66004803603606081101561071157600080fd5b8135919081019060408101602082013564010000000081111561073357600080fd5b82018360208201111561074557600080fd5b8035906020019184600183028401116401000000008311171561076757600080fd5b91908080601f01602080910402602001604051908101604052809392919081815260200183838082843760009201919091525092959493602081019350359150506401000000008111156107ba57600080fd5b8201836020820111156107cc57600080fd5b803590602001918460018302840111640100000000831117156107ee57600080fd5b91908080601f01602080910402602001604051908101604052809392919081815260200183838082843760009201919091525092955061163a945050505050565b34801561083b57600080fd5b506108626004803603602081101561085257600080fd5b5035600160a060020a03166117ca565b604080519115158252519081900360200190f35b34801561088257600080fd5b506101b66004803603602081101561089957600080fd5b8101906020810181356401000000008111156108b457600080fd5b8201836020820111156108c657600080fd5b803590602001918460018302840111640100000000831117156108e857600080fd5b91908080601f016020809104026020016040519081016040528093929190818152602001838380828437600092019190915250929550611811945050505050565b34801561093557600080fd5b5061012b6004803603602081101561094c57600080fd5b81019060208101813564010000000081111561096757600080fd5b82018360208201111561097957600080fd5b8035906020019184600183028401116401000000008311171561099b57600080fd5b91908080601f0160208091040260200160405190810160405280939291908181526020018383808284376000920191909152509295506119cd945050505050565b3480156109e857600080fd5b50610167600480360360208110156109ff57600080fd5b5035611b42565b6000610a11336117ca565b1515600114610a58576040805160e560020a62461bcd0281526020600482015260166024820152600080516020611d4a833981519152604482015290519081900360640190fd5b506001545b90565b6001805482908110610a6e57fe5b600091825260209091200154600160a060020a0316905081565b600354600160a060020a03163314610ad8576040805160e560020a62461bcd0281526020600482015260166024820152600080516020611d4a833981519152604482015290519081900360640190fd5b610ae1816117ca565b15610b36576040805160e560020a62461bcd02815260206004820152601660248201527f4163636f756e7420616c726561647920696e2075736500000000000000000000604482015290519081900360640190fd5b6001805480820182556000919091527fb10e2d527612073b26eecdfd717e6a320cf44b4afac2b0732d9fcbe2b7fa0cf6018054600160a060020a03831673ffffffffffffffffffffffffffffffffffffffff19909116811790915560408051918252517f1c45079182c8d9e0bda520cf306250349401df9e34b61dd0458c303a3e94ea639181900360200190a150565b600354600160a060020a031681565b610bde336117ca565b1515600114610c25576040805160e560020a62461bcd0281526020600482015260166024820152600080516020611d4a833981519152604482015290519081900360640190fd5b6007826040518082805190602001908083835b60208310610c575780518252601f199092019160209182019101610c38565b51815160209384036101000a60001901801990921691161790529201948552506040519384900301909220600290810154149150610ccf9050576040805160e560020a62461bcd0281526020600482015260176024820152600080516020611d0a833981519152604482015290519081900360640190fd5b8015610d435760036007836040518082805190602001908083835b60208310610d095780518252601f199092019160209182019101610cea565b51815160209384036101000a600019018019909216911617905292019485525060405193849003019092206002019290925550610dac9050565b60006007836040518082805190602001908083835b60208310610d775780518252601f199092019160209182019101610d58565b51815160209384036101000a600019018019909216911617905292019485525060405193849003019092206002019290925550505b600080516020611d2a8339815191528260036040518080602001838152602001828103825284818151815260200191508051906020019080838360005b83811015610e01578181015183820152602001610de9565b50505050905090810190601f168015610e2e5780820380516001836020036101000a031916815260200191505b50935050505060405180910390a15050565b610e49336117ca565b1515600114610e90576040805160e560020a62461bcd0281526020600482015260166024820152600080516020611d4a833981519152604482015290519081900360640190fd5b6007816040518082805190602001908083835b60208310610ec25780518252601f199092019160209182019101610ea3565b51815160209384036101000a60001901801990921691161790529201948552506040519384900301909220600201546001149150610f3a9050576040805160e560020a62461bcd0281526020600482015260176024820152600080516020611d0a833981519152604482015290519081900360640190fd5b60026007826040518082805190602001908083835b60208310610f6e5780518252601f199092019160209182019101610f4f565b51815160209384036101000a60001901801990921691161790529201948552506040805194859003820185206002908101969096558482018690528085528651908501528551600080516020611d2a8339815191529587959094509250829160608301919086019080838360005b83811015610ff4578181015183820152602001610fdc565b50505050905090810190601f1680156110215780820380516001836020036101000a031916815260200191505b50935050505060405180910390a150565b60055481565b611041336117ca565b1515600114611088576040805160e560020a62461bcd0281526020600482015260166024820152600080516020611d4a833981519152604482015290519081900360640190fd5b6007816040518082805190602001908083835b602083106110ba5780518252601f19909201916020918201910161109b565b51815160209384036101000a600019018019909216911617905292019485525060405193849003019092206002015460051491506111329050576040805160e560020a62461bcd0281526020600482015260176024820152600080516020611d0a833981519152604482015290519081900360640190fd5b60066007826040518082805190602001908083835b602083106111665780518252601f199092019160209182019101611147565b6001836020036101000a038019825116818451168082178552505050505050905001915050908152602001604051809103902060020181905550600080516020611d2a83398151915281600660405180806020018381526020018281038252848181518152602001915080519060200190808383600083811015610ff4578181015183820152602001610fdc565b60408051600160208201528181526017818301527f307832344246306666433430326230414164393842313100000000000000000060608201529051600080516020611d2a8339815191529181900360800190a1505050565b6000805482908110610a6e57fe5b6000611266336117ca565b15156001146112ad576040805160e560020a62461bcd0281526020600482015260166024820152600080516020611d4a833981519152604482015290519081900360640190fd5b5060005490565b6112bd336117ca565b1515600114611304576040805160e560020a62461bcd0281526020600482015260166024820152600080516020611d4a833981519152604482015290519081900360640190fd5b6007816040518082805190602001908083835b602083106113365780518252601f199092019160209182019101611317565b51815160209384036101000a600019018019909216911617905292019485525060405193849003019092206002015460031491506113ae9050576040805160e560020a62461bcd0281526020600482015260176024820152600080516020611d0a833981519152604482015290519081900360640190fd5b60046007826040518082805190602001908083835b602083106113e25780518252601f1990920191602091820191016113c3565b6001836020036101000a038019825116818451168082178552505050505050905001915050908152602001604051809103902060020181905550600080516020611d2a83398151915281600460405180806020018381526020018281038252848181518152602001915080519060200190808383600083811015610ff4578181015183820152602001610fdc565b600354600160a060020a031633146114c0576040805160e560020a62461bcd0281526020600482015260166024820152600080516020611d4a833981519152604482015290519081900360640190fd5b6114c9816117ca565b1561151e576040805160e560020a62461bcd02815260206004820152601660248201527f4163636f756e7420616c726561647920696e2075736500000000000000000000604482015290519081900360640190fd5b600080546001810182559080527f290decd9548b62a8d60345a988386fc84ba6bc95484008f6362f93160ef3e563018054600160a060020a03831673ffffffffffffffffffffffffffffffffffffffff19909116811790915560408051918252517f04977f35dcc04f0686d9473725138e6d0f4affbc79c276ce72856c7f8bbd22c49181900360200190a150565b6004805460408051602060026001851615610100026000190190941693909304601f810184900484028201840190925281815292918301828280156116325780601f1061160757610100808354040283529160200191611632565b820191906000526020600020905b81548152906001019060200180831161161557829003601f168201915b505050505081565b611642611c4f565b506040805160608101825284815260208082018590526001928201839052600680549384018082556000919091528451929390926116a7927ff652222313e28459528d920b65115c16c04f3efc82aaedc97be59f3f377c0d3f90920191860190611c71565b5050806007836040518082805190602001908083835b602083106116dc5780518252601f1990920191602091820191016116bd565b51815160209384036101000a600019018019909216911617905292019485525060405193849003810190932084518155848401518051919461172694506001860193500190611c71565b5060408201518160020155905050600080516020611d2a8339815191528260016040518080602001838152602001828103825284818151815260200191508051906020019080838360005b83811015611789578181015183820152602001611771565b50505050905090810190601f1680156117b65780820380516001836020036101000a031916815260200191505b50935050505060405180910390a150505050565b60006117d582611b50565b806117e457506117e482611ba9565b806117f357506117f382611bfc565b8061180b5750600354600160a060020a038381169116145b92915050565b61181a336117ca565b1515600114611861576040805160e560020a62461bcd0281526020600482015260166024820152600080516020611d4a833981519152604482015290519081900360640190fd5b6007816040518082805190602001908083835b602083106118935780518252601f199092019160209182019101611874565b51815160209384036101000a6000190180199092169116179052920194855250604051938490030190922060020154600414915061190b9050576040805160e560020a62461bcd0281526020600482015260176024820152600080516020611d0a833981519152604482015290519081900360640190fd5b60056007826040518082805190602001908083835b6020831061193f5780518252601f199092019160209182019101611920565b6001836020036101000a038019825116818451168082178552505050505050905001915050908152602001604051809103902060020181905550600080516020611d2a83398151915281600560405180806020018381526020018281038252848181518152602001915080519060200190808383600083811015610ff4578181015183820152602001610fdc565b60006119d8336117ca565b1515600114611a1f576040805160e560020a62461bcd0281526020600482015260166024820152600080516020611d4a833981519152604482015290519081900360640190fd5b611a27611c4f565b6007836040518082805190602001908083835b60208310611a595780518252601f199092019160209182019101611a3a565b518151602093840361010090810a60001990810180199094169390921692909217909252929094019687526040805197889003820188206060890182528054895260018082018054845160029382161590970290980190971604601f81018490048402850184019092528184529650878201955091939250830182828015611b225780601f10611af757610100808354040283529160200191611b22565b820191906000526020600020905b815481529060010190602001808311611b0557829003601f168201915b505050918352505060029190910154602090910152604001519392505050565b6002805482908110610a6e57fe5b6000805b600054811015611ba35782600160a060020a0316600082815481101515611b7757fe5b600091825260209091200154600160a060020a03161415611b9b5760019150611ba3565b600101611b54565b50919050565b6000805b600154811015611ba35782600160a060020a0316600182815481101515611bd057fe5b600091825260209091200154600160a060020a03161415611bf45760019150611ba3565b600101611bad565b6000805b600254811015611ba35782600160a060020a0316600082815481101515611c2357fe5b600091825260209091200154600160a060020a03161415611c475760019150611ba3565b600101611c00565b6060604051908101604052806000815260200160608152602001600081525090565b828054600181600116156101000203166002900490600052602060002090601f016020900481019282601f10611cb257805160ff1916838001178555611cdf565b82800160010185558215611cdf579182015b82811115611cdf578251825591602001919060010190611cc4565b50611ceb929150611cef565b5090565b610a5d91905b80821115611ceb5760008155600101611cf556fe4f7065726174696f6e206e6f7420617661696c61626c650000000000000000002dba7dee5f7a8d10f74314fb61055b32a5230e5a471a18e784cbc06cad3b7a0a53656e646572206e6f7420617574686f72697a65642e00000000000000000000a165627a7a72305820dac295cef7861fa0d475c4325a1931ce34cb93eecb32d235ea7010f6d37794150029",
  "source": "pragma solidity ^0.5.0;\n\ncontract Transferencias {\n\n    address[] public equipas;\n    address[] public bancos;\n    address[] public federacao;\n    address public ownerAcc;\n    string public owner;\n    bytes32 public owner2;\n\n    struct Fatura{\n        uint valorTotal;\n        string data;\n        uint estadoVenda;\n    }\n\n    string[] KeysFaturas;\n    mapping (string => Fatura) transacoes;\n    \n    //eventos teste \n    event nextStage(\n       string id,\n       uint estadoFatura\n    );\n\n    event addEquipa(\n       address equipa\n    );\n\n    event addBanco(\n       address banco\n    );\n    \n    /// The smart contract's constructor\n    constructor() public {\n        owner = \"primeiro\";\n        owner2 = calculateHash(\"primeiro\");\n        ownerAcc = 0x24BF0ffC4daf52B0df27640882E202b0AAd98B11;\n        \n        //adicionar os participantes\n        equipas.push(0x1Fb4C08AeA29A6642D8C963F1ca01c15C63385bc);\n        equipas.push(0xdB254AFdcaCEa500C4f7449c4b9F9DA3e1224F81);\n\n    }\n\n    function adicionaFatura(uint valor, string memory emitData, string memory hash) public {\n       // require(isMember(msg.sender) == true,\"Sender not authorized.\");\n        \n        Fatura memory myStruct = Fatura({valorTotal:valor, data:emitData, estadoVenda:1});\n        KeysFaturas.push(hash);\n        transacoes[hash] = myStruct;\n        emit nextStage(hash,1);\n    }\n\n    function testarS(string memory teste, bytes32 valor, string memory hash)public {\n        emit nextStage(\"0x24BF0ffC402b0AAd98B11\",1);\n        \n    }\n\n    function recebeFatura(string memory hash) public{\n        require(isMember(msg.sender) == true,\"Sender not authorized.\");\n        require(transacoes[hash].estadoVenda == 1, \"Operation not available\");\n            \n        transacoes[hash].estadoVenda = 2;  \n        emit nextStage(hash,2);      \n    }\n\n    function validaFatura(string memory hash, bool aceitar) public{\n        require(isMember(msg.sender) == true,\"Sender not authorized.\");\n        require(transacoes[hash].estadoVenda == 2, \"Operation not available\");\n        \n        if(aceitar)\n            transacoes[hash].estadoVenda = 3; \n        else\n            transacoes[hash].estadoVenda = 0; \n        emit nextStage(hash,3);\n    }\n\n    function pagaFatura(string memory hash) public{\n        require(isMember(msg.sender) == true,\"Sender not authorized.\");\n        require(transacoes[hash].estadoVenda == 3, \"Operation not available\");\n        \n        transacoes[hash].estadoVenda = 4;  \n        emit nextStage(hash,4);\n    }\n\n\n    function validaPagamento(string memory hash) public{\n        require(isMember(msg.sender) == true,\"Sender not authorized.\");\n        require(transacoes[hash].estadoVenda == 4, \"Operation not available\");\n            \n        transacoes[hash].estadoVenda = 5;  \n        emit nextStage(hash,5);\n    }\n\n\n    function pagaPercentagem(string memory hash) public{\n        require(isMember(msg.sender) == true,\"Sender not authorized.\");    \n        require(transacoes[hash].estadoVenda == 5, \"Operation not available\");\n\n        transacoes[hash].estadoVenda = 6;  \n        emit nextStage(hash,6);\n    }\n\n\n    function getEstado(string memory hash) public view returns (uint estado) {\n        require(isMember(msg.sender) == true,\"Sender not authorized.\");\n        Fatura memory fatura = transacoes[hash];\n        return fatura.estadoVenda;\n    }\n\n    function adicionarEquipa(address add) public{\n        require(msg.sender == ownerAcc, \"Sender not authorized.\");\n        require(!isMember(add), \"Account already in use\");\n        equipas.push(add);\n        emit addEquipa(add); \n    }\n\n    function adicionarBanco(address add) public{\n        require(msg.sender == ownerAcc, \"Sender not authorized.\");\n        require(!isMember(add), \"Account already in use\");\n        bancos.push(add);\n        emit addBanco(add); \n    }\n\n    function getTeamsLength() public view returns (uint count) {\n        require(isMember(msg.sender) == true,\"Sender not authorized.\");\n        return equipas.length;\n    }\n\n    function getBanksLength() public view returns (uint count) {\n        require(isMember(msg.sender) == true,\"Sender not authorized.\");\n        return bancos.length;\n    }\n\n    function getFederationsLength() public view returns (uint count) {\n        require(isMember(msg.sender) == true,\"Sender not authorized.\");\n        return bancos.length;\n    }\n\n    function calculateHash(string memory s ) internal pure returns (bytes32 res) {\n        return keccak256(abi.encodePacked(s));\n    }\n\n    function isTeam(address add) private view returns (bool res) {\n        res=false;\n        for (uint i=0; i<equipas.length; i++) {\n            if (equipas[i] == add) {\n                res=true;\n                break;\n            }\n        }\n        return res;\n    }\n\n    function isBank(address add) private view returns (bool res) {\n        res=false;\n        for (uint i=0; i<bancos.length; i++) {\n            if (bancos[i] == add) {\n                res=true;\n                break;\n            }\n        }\n        return res;\n    }\n\n    function isFederation(address add) private view returns (bool res) {\n        res=false;\n        for (uint i=0; i<federacao.length; i++) {\n            if (equipas[i] == add) {\n                res=true;\n                break;\n            }\n        }\n        return res;\n    }\n\n    function isMember(address add) public view returns (bool res) {\n        return (isTeam(add) || isBank(add) || isFederation(add) || add == ownerAcc);\n    }\n\n}\n",
  "sourcePath": "/home/ricardo/Desktop/LEI/BlockchainProject/vueProject/vuebox/contracts/Transferencias.sol",
  "compiler": {
    "name": "solc",
    "version": "0.5.0+commit.1d4f565a.Emscripten.clang"
  },
  "schemaVersion": "3.0.8",
  "updatedAt": "2019-04-29T23:30:05.489Z",
  "devdoc": {
    "methods": {}
  },
  "userdoc": {
    "methods": {
      "constructor": "The smart contract's constructor"
    }
  }
}