{
  "contractName": "Transferencias",
  "abi": [
    {
      "constant": true,
      "inputs": [
        {
          "name": "",
          "type": "uint256"
        }
      ],
      "name": "bancos",
      "outputs": [
        {
          "name": "",
          "type": "address"
        }
      ],
      "payable": false,
      "stateMutability": "view",
      "type": "function",
      "signature": "0x213dee1b"
    },
    {
      "constant": true,
      "inputs": [],
      "name": "ownerAcc",
      "outputs": [
        {
          "name": "",
          "type": "address"
        }
      ],
      "payable": false,
      "stateMutability": "view",
      "type": "function",
      "signature": "0x4826dd40"
    },
    {
      "constant": true,
      "inputs": [],
      "name": "owner2",
      "outputs": [
        {
          "name": "",
          "type": "bytes32"
        }
      ],
      "payable": false,
      "stateMutability": "view",
      "type": "function",
      "signature": "0x52709725"
    },
    {
      "constant": true,
      "inputs": [
        {
          "name": "",
          "type": "uint256"
        }
      ],
      "name": "equipas",
      "outputs": [
        {
          "name": "",
          "type": "address"
        }
      ],
      "payable": false,
      "stateMutability": "view",
      "type": "function",
      "signature": "0x6d73b6db"
    },
    {
      "constant": true,
      "inputs": [],
      "name": "owner",
      "outputs": [
        {
          "name": "",
          "type": "string"
        }
      ],
      "payable": false,
      "stateMutability": "view",
      "type": "function",
      "signature": "0x8da5cb5b"
    },
    {
      "constant": true,
      "inputs": [
        {
          "name": "",
          "type": "uint256"
        }
      ],
      "name": "federacao",
      "outputs": [
        {
          "name": "",
          "type": "address"
        }
      ],
      "payable": false,
      "stateMutability": "view",
      "type": "function",
      "signature": "0xf47ff894"
    },
    {
      "inputs": [],
      "payable": false,
      "stateMutability": "nonpayable",
      "type": "constructor",
      "signature": "constructor"
    },
    {
      "anonymous": false,
      "inputs": [
        {
          "indexed": false,
          "name": "id",
          "type": "address"
        },
        {
          "indexed": false,
          "name": "estadoFatura",
          "type": "uint256"
        }
      ],
      "name": "nextStage",
      "type": "event",
      "signature": "0x46180313f4e544006f759a5172d8959364cb38e53298b1a51b829d8d3ea77491"
    },
    {
      "anonymous": false,
      "inputs": [
        {
          "indexed": false,
          "name": "equipa",
          "type": "address"
        }
      ],
      "name": "addEquipa",
      "type": "event",
      "signature": "0x04977f35dcc04f0686d9473725138e6d0f4affbc79c276ce72856c7f8bbd22c4"
    },
    {
      "anonymous": false,
      "inputs": [
        {
          "indexed": false,
          "name": "banco",
          "type": "address"
        }
      ],
      "name": "addBanco",
      "type": "event",
      "signature": "0x1c45079182c8d9e0bda520cf306250349401df9e34b61dd0458c303a3e94ea63"
    },
    {
      "constant": false,
      "inputs": [
        {
          "name": "valor",
          "type": "uint256"
        },
        {
          "name": "emitData",
          "type": "string"
        },
        {
          "name": "hash",
          "type": "address"
        }
      ],
      "name": "adicionaFatura",
      "outputs": [],
      "payable": false,
      "stateMutability": "nonpayable",
      "type": "function",
      "signature": "0x204c4c11"
    },
    {
      "constant": false,
      "inputs": [
        {
          "name": "teste",
          "type": "string"
        },
        {
          "name": "valor",
          "type": "bytes32"
        },
        {
          "name": "hash",
          "type": "address"
        }
      ],
      "name": "testarS",
      "outputs": [],
      "payable": false,
      "stateMutability": "nonpayable",
      "type": "function",
      "signature": "0x4552831f"
    },
    {
      "constant": false,
      "inputs": [
        {
          "name": "hash",
          "type": "address"
        }
      ],
      "name": "recebeFatura",
      "outputs": [],
      "payable": false,
      "stateMutability": "nonpayable",
      "type": "function",
      "signature": "0xd5b60931"
    },
    {
      "constant": false,
      "inputs": [
        {
          "name": "hash",
          "type": "address"
        },
        {
          "name": "aceitar",
          "type": "bool"
        }
      ],
      "name": "validaFatura",
      "outputs": [],
      "payable": false,
      "stateMutability": "nonpayable",
      "type": "function",
      "signature": "0xfe8c1065"
    },
    {
      "constant": false,
      "inputs": [
        {
          "name": "hash",
          "type": "address"
        }
      ],
      "name": "pagaFatura",
      "outputs": [],
      "payable": false,
      "stateMutability": "nonpayable",
      "type": "function",
      "signature": "0x9fd2bfe5"
    },
    {
      "constant": false,
      "inputs": [
        {
          "name": "hash",
          "type": "address"
        }
      ],
      "name": "validaPagamento",
      "outputs": [],
      "payable": false,
      "stateMutability": "nonpayable",
      "type": "function",
      "signature": "0x775ffca8"
    },
    {
      "constant": false,
      "inputs": [
        {
          "name": "hash",
          "type": "address"
        }
      ],
      "name": "pagaPercentagem",
      "outputs": [],
      "payable": false,
      "stateMutability": "nonpayable",
      "type": "function",
      "signature": "0x856cd16d"
    },
    {
      "constant": true,
      "inputs": [
        {
          "name": "hash",
          "type": "address"
        }
      ],
      "name": "getEstado",
      "outputs": [
        {
          "name": "estado",
          "type": "uint256"
        }
      ],
      "payable": false,
      "stateMutability": "view",
      "type": "function",
      "signature": "0xce7c2829"
    },
    {
      "constant": false,
      "inputs": [
        {
          "name": "add",
          "type": "address"
        }
      ],
      "name": "adicionarEquipa",
      "outputs": [],
      "payable": false,
      "stateMutability": "nonpayable",
      "type": "function",
      "signature": "0x898c6ee5"
    },
    {
      "constant": false,
      "inputs": [
        {
          "name": "add",
          "type": "address"
        }
      ],
      "name": "adicionarBanco",
      "outputs": [],
      "payable": false,
      "stateMutability": "nonpayable",
      "type": "function",
      "signature": "0x28b05552"
    },
    {
      "constant": true,
      "inputs": [],
      "name": "getTeamsLength",
      "outputs": [
        {
          "name": "count",
          "type": "uint256"
        }
      ],
      "payable": false,
      "stateMutability": "view",
      "type": "function",
      "signature": "0x80fe6c3a"
    },
    {
      "constant": true,
      "inputs": [],
      "name": "getBanksLength",
      "outputs": [
        {
          "name": "count",
          "type": "uint256"
        }
      ],
      "payable": false,
      "stateMutability": "view",
      "type": "function",
      "signature": "0x1b3ebe3b"
    },
    {
      "constant": true,
      "inputs": [],
      "name": "getFederationsLength",
      "outputs": [
        {
          "name": "count",
          "type": "uint256"
        }
      ],
      "payable": false,
      "stateMutability": "view",
      "type": "function",
      "signature": "0x3267ea06"
    },
    {
      "constant": true,
      "inputs": [
        {
          "name": "add",
          "type": "address"
        }
      ],
      "name": "isMember",
      "outputs": [
        {
          "name": "res",
          "type": "bool"
        }
      ],
      "payable": false,
      "stateMutability": "view",
      "type": "function",
      "signature": "0xa230c524"
    },
    {
      "constant": true,
      "inputs": [
        {
          "name": "add",
          "type": "address"
        }
      ],
      "name": "typeA",
      "outputs": [
        {
          "name": "res",
          "type": "uint256"
        }
      ],
      "payable": false,
      "stateMutability": "view",
      "type": "function",
      "signature": "0x3c38c356"
    },
    {
      "constant": false,
      "inputs": [
        {
          "name": "a",
          "type": "address"
        },
        {
          "name": "b",
          "type": "address"
        },
        {
          "name": "v",
          "type": "address"
        },
        {
          "name": "f",
          "type": "address"
        },
        {
          "name": "e",
          "type": "bytes32"
        },
        {
          "name": "d",
          "type": "bytes32"
        }
      ],
      "name": "testParams",
      "outputs": [
        {
          "name": "count",
          "type": "uint256"
        }
      ],
      "payable": false,
      "stateMutability": "nonpayable",
      "type": "function",
      "signature": "0xd31723d1"
    }
  ],
  "bytecode": "0x60806040523480156200001157600080fd5b506040805180820190915260088082527f7072696d6569726f0000000000000000000000000000000000000000000000006020909201918252620000589160049162000276565b506200009f6040518060400160405280600881526020017f7072696d6569726f000000000000000000000000000000000000000000000000815250620001fd60201b60201c565b600555600380546001600160a01b03199081167324bf0ffc4daf52b0df27640882e202b0aad98b111790915560008054600181810183557f290decd9548b62a8d60345a988386fc84ba6bc95484008f6362f93160ef3e56391820180548516731fb4c08aea29a6642d8c963f1ca01c15c63385bc1790558254808201845582018054851673db254afdcacea500c4f7449c4b9f9da3e1224f811790558254808201845582018054851673e82f3f7c5dc295aa96e9c3b96e53998f240d426f179055825480820184559091018054841673685d6296b4fd9d0f00d8cc2f634a2160b2a183a817905580548082018255918190527fb10e2d527612073b26eecdfd717e6a320cf44b4afac2b0732d9fcbe2b7fa0cf6918201805484167350c944f45603314164662310295993902121fbee179055805480820190915501805490911673973a5b3360bc1d5afafa88585efb55f8db972be21790556200031b565b6000816040516020018082805190602001908083835b60208310620002345780518252601f19909201916020918201910162000213565b6001836020036101000a038019825116818451168082178552505050505050905001915050604051602081830303815290604052805190602001209050919050565b828054600181600116156101000203166002900490600052602060002090601f016020900481019282601f10620002b957805160ff1916838001178555620002e9565b82800160010185558215620002e9579182015b82811115620002e9578251825591602001919060010190620002cc565b50620002f7929150620002fb565b5090565b6200031891905b80821115620002f7576000815560010162000302565b90565b610df8806200032b6000396000f3fe608060405234801561001057600080fd5b50600436106101425760003560e01c806380fe6c3a116100b8578063a230c5241161007c578063a230c5241461049e578063ce7c2829146104d8578063d31723d1146104fe578063d5b609311461054a578063f47ff89414610570578063fe8c10651461058d57610142565b806380fe6c3a146103a7578063856cd16d146103af578063898c6ee5146103d55780638da5cb5b146103fb5780639fd2bfe51461047857610142565b80633c38c3561161010a5780633c38c3561461027a5780634552831f146102a05780634826dd4014610354578063527097251461035c5780636d73b6db14610364578063775ffca81461038157610142565b80631b3ebe3b14610147578063204c4c1114610161578063213dee1b1461021b57806328b05552146102545780633267ea0614610147575b600080fd5b61014f6105bb565b60408051918252519081900360200190f35b6102196004803603606081101561017757600080fd5b8135919081019060408101602082013564010000000081111561019957600080fd5b8201836020820111156101ab57600080fd5b803590602001918460018302840111640100000000831117156101cd57600080fd5b91908080601f016020809104026020016040519081016040528093929190818152602001838380828437600092019190915250929550505090356001600160a01b031691506105c29050565b005b6102386004803603602081101561023157600080fd5b503561069d565b604080516001600160a01b039092168252519081900360200190f35b6102196004803603602081101561026a57600080fd5b50356001600160a01b03166106c4565b61014f6004803603602081101561029057600080fd5b50356001600160a01b0316610747565b610219600480360360608110156102b657600080fd5b8101906020810181356401000000008111156102d157600080fd5b8201836020820111156102e357600080fd5b8035906020019184600183028401116401000000008311171561030557600080fd5b91908080601f01602080910402602001604051908101604052809392919081815260200183838082843760009201919091525092955050823593505050602001356001600160a01b0316610786565b6102386107bd565b61014f6107cc565b6102386004803603602081101561037a57600080fd5b50356107d2565b6102196004803603602081101561039757600080fd5b50356001600160a01b03166107df565b61014f61082b565b610219600480360360208110156103c557600080fd5b50356001600160a01b0316610831565b610219600480360360208110156103eb57600080fd5b50356001600160a01b031661087d565b6104036108fe565b6040805160208082528351818301528351919283929083019185019080838360005b8381101561043d578181015183820152602001610425565b50505050905090810190601f16801561046a5780820380516001836020036101000a031916815260200191505b509250505060405180910390f35b6102196004803603602081101561048e57600080fd5b50356001600160a01b031661098c565b6104c4600480360360208110156104b457600080fd5b50356001600160a01b03166109d8565b604080519115158252519081900360200190f35b61014f600480360360208110156104ee57600080fd5b50356001600160a01b0316610a1c565b61014f600480360360c081101561051457600080fd5b506001600160a01b0381358116916020810135821691604082013581169160608101359091169060808101359060a00135610b19565b6102196004803603602081101561056057600080fd5b50356001600160a01b0316610b25565b6102386004803603602081101561058657600080fd5b5035610b6f565b610219600480360360408110156105a357600080fd5b506001600160a01b0381351690602001351515610b7c565b6001545b90565b6105ca610cf3565b506040805160608101825284815260208082018581526001838501819052600680548083019091557ff652222313e28459528d920b65115c16c04f3efc82aaedc97be59f3f377c0d3f0180546001600160a01b0319166001600160a01b03881690811790915560009081526007845294909420835181559051805193948594929361065a93918501920190610d14565b5060409182015160029091015580516001600160a01b0384168152600160208201528151600080516020610dad833981519152929181900390910190a150505050565b600181815481106106aa57fe5b6000918252602090912001546001600160a01b0316905081565b6001805480820182556000919091527fb10e2d527612073b26eecdfd717e6a320cf44b4afac2b0732d9fcbe2b7fa0cf60180546001600160a01b0383166001600160a01b0319909116811790915560408051918252517f1c45079182c8d9e0bda520cf306250349401df9e34b61dd0458c303a3e94ea639181900360200190a150565b60008061075383610bfa565b1561075c575060015b61076583610c51565b1561076e575060025b61077783610ca2565b15610780575060035b92915050565b604080516001600160a01b0383168152600160208201528151600080516020610dad833981519152929181900390910190a1505050565b6003546001600160a01b031681565b60055481565b600081815481106106aa57fe5b6001600160a01b038116600081815260076020908152604091829020600560029091018190558251938452908301528051600080516020610dad8339815191529281900390910190a150565b60005490565b6001600160a01b038116600081815260076020908152604091829020600660029091018190558251938452908301528051600080516020610dad8339815191529281900390910190a150565b600080546001810182559080527f290decd9548b62a8d60345a988386fc84ba6bc95484008f6362f93160ef3e5630180546001600160a01b0383166001600160a01b0319909116811790915560408051918252517f04977f35dcc04f0686d9473725138e6d0f4affbc79c276ce72856c7f8bbd22c49181900360200190a150565b6004805460408051602060026001851615610100026000190190941693909304601f810184900484028201840190925281815292918301828280156109845780601f1061095957610100808354040283529160200191610984565b820191906000526020600020905b81548152906001019060200180831161096757829003601f168201915b505050505081565b6001600160a01b038116600081815260076020908152604091829020600460029091018190558251938452908301528051600080516020610dad8339815191529281900390910190a150565b60006109e382610bfa565b806109f257506109f282610c51565b80610a015750610a0182610ca2565b806107805750506003546001600160a01b0390811691161490565b6000610a26610cf3565b60076000846001600160a01b03166001600160a01b0316815260200190815260200160002060405180606001604052908160008201548152602001600182018054600181600116156101000203166002900480601f016020809104026020016040519081016040528092919081815260200182805460018160011615610100020316600290048015610af95780601f10610ace57610100808354040283529160200191610af9565b820191906000526020600020905b815481529060010190602001808311610adc57829003601f168201915b505050918352505060029190910154602090910152604001519392505050565b60019695505050505050565b6001600160a01b03811660008181526007602090815260409182902060029081018190558251938452908301528051600080516020610dad8339815191529281900390910190a150565b600281815481106106aa57fe5b8015610ba7576001600160a01b03821660009081526007602052604090206003600290910155610bc4565b6001600160a01b0382166000908152600760205260408120600201555b604080516001600160a01b0384168152600360208201528151600080516020610dad833981519152929181900390910190a15050565b6000805b600054811015610c4b57826001600160a01b031660008281548110610c1f57fe5b6000918252602090912001546001600160a01b03161415610c435760019150610c4b565b600101610bfe565b50919050565b6000805b600154811015610c4b57826001600160a01b031660018281548110610c7657fe5b6000918252602090912001546001600160a01b03161415610c9a5760019150610c4b565b600101610c55565b6000805b600254811015610c4b57826001600160a01b031660008281548110610cc757fe5b6000918252602090912001546001600160a01b03161415610ceb5760019150610c4b565b600101610ca6565b60405180606001604052806000815260200160608152602001600081525090565b828054600181600116156101000203166002900490600052602060002090601f016020900481019282601f10610d5557805160ff1916838001178555610d82565b82800160010185558215610d82579182015b82811115610d82578251825591602001919060010190610d67565b50610d8e929150610d92565b5090565b6105bf91905b80821115610d8e5760008155600101610d9856fe46180313f4e544006f759a5172d8959364cb38e53298b1a51b829d8d3ea77491a165627a7a7230582096486169767d56cda40ede89f13fb42e4624e59d3b4170185e9e926e9ef676870029",
  "source": "pragma solidity ^0.5.0;\n\ncontract Transferencias {\n\n    address[] public equipas;\n    address[] public bancos;\n    address[] public federacao;\n    address public ownerAcc;\n    string public owner;\n    bytes32 public owner2;\n\n    struct Fatura{\n        uint valorTotal;\n        string data;\n        uint estadoVenda;\n    }\n\n    address[] KeysFaturas;\n    mapping (address => Fatura) transacoes;\n    \n    //eventos teste \n    event nextStage(\n       address id,\n       uint estadoFatura\n    );\n\n    event addEquipa(\n       address equipa\n    );\n\n    event addBanco(\n       address banco\n    );\n    \n    /// The smart contract's constructor\n    constructor() public {\n        owner = \"primeiro\";\n        owner2 = calculateHash(\"primeiro\");\n        ownerAcc = 0x24BF0ffC4daf52B0df27640882E202b0AAd98B11;\n        \n        //adicionar os participantes\n        equipas.push(0x1Fb4C08AeA29A6642D8C963F1ca01c15C63385bc);\n        equipas.push(0xdB254AFdcaCEa500C4f7449c4b9F9DA3e1224F81);\n        equipas.push(0xe82f3f7C5dc295aa96e9c3b96e53998F240D426F);\n        equipas.push(0x685D6296B4Fd9D0F00d8CC2F634a2160B2a183A8);\n\n        bancos.push(0x50C944f45603314164662310295993902121fBee);\n        bancos.push(0x973A5B3360bc1d5AfAFA88585eFb55F8db972Be2);\n        \n\n\n\n    }\n\n    function adicionaFatura(uint valor, string memory emitData, address  hash) public {\n       // //require(isMember(msg.sender) == true,\"Sender not authorized.\");\n        \n        Fatura memory myStruct = Fatura({valorTotal:valor, data:emitData, estadoVenda:1});\n        KeysFaturas.push(hash);\n        transacoes[hash] = myStruct;\n        emit nextStage(hash,1);\n    }\n\n    function testarS(string memory teste, bytes32 valor, address hash)public {\n        emit nextStage(hash,1);\n        \n    }\n\n    function recebeFatura(address hash) public{\n        //require(isMember(msg.sender) == true,\"Sender not authorized.\");\n        //require(transacoes[hash].estadoVenda == 1, \"Operation not available\");\n            \n        transacoes[hash].estadoVenda = 2;  \n        emit nextStage(hash,2);      \n    }\n\n    function validaFatura(address hash, bool aceitar) public{\n        //require(isMember(msg.sender) == true,\"Sender not authorized.\");\n        //require(transacoes[hash].estadoVenda == 2, \"Operation not available\");\n        \n        if(aceitar)\n            transacoes[hash].estadoVenda = 3; \n        else\n            transacoes[hash].estadoVenda = 0; \n        emit nextStage(hash,3);\n    }\n\n    function pagaFatura(address hash) public{\n        ////require(isMember(msg.sender) == true,\"Sender not authorized.\");\n        ////require(transacoes[hash].estadoVenda == 3, \"Operation not available\");\n        \n        transacoes[hash].estadoVenda = 4;  \n        emit nextStage(hash,4);\n    }\n\n\n    function validaPagamento(address hash) public{\n        //require(isMember(msg.sender) == true,\"Sender not authorized.\");\n        //require(transacoes[hash].estadoVenda == 4, \"Operation not available\");\n            \n        transacoes[hash].estadoVenda = 5;  \n        emit nextStage(hash,5);\n    }\n\n\n    function pagaPercentagem(address hash) public{\n        //require(isMember(msg.sender) == true,\"Sender not authorized.\");    \n        //require(transacoes[hash].estadoVenda == 5, \"Operation not available\");\n\n        transacoes[hash].estadoVenda = 6;  \n        emit nextStage(hash,6);\n    }\n\n\n    function getEstado(address hash) public view returns (uint estado) {\n        //require(isMember(msg.sender) == true,\"Sender not authorized.\");\n        Fatura memory fatura = transacoes[hash];\n        return fatura.estadoVenda;\n    }\n\n    function adicionarEquipa(address add) public{\n        //require(msg.sender == ownerAcc, \"Sender not authorized.\");\n        //require(!isMember(add), \"Account already in use\");\n        equipas.push(add);\n        emit addEquipa(add); \n    }\n\n    function adicionarBanco(address add) public{\n        //require(msg.sender == ownerAcc, \"Sender not authorized.\");\n        //require(!isMember(add), \"Account already in use\");\n        bancos.push(add);\n        emit addBanco(add); \n    }\n\n    function getTeamsLength() public view returns (uint count) {\n        //require(isMember(msg.sender) == true,\"Sender not authorized.\");\n        return equipas.length;\n    }\n\n    function getBanksLength() public view returns (uint count) {\n        //require(isMember(msg.sender) == true,\"Sender not authorized.\");\n        return bancos.length;\n    }\n\n    function getFederationsLength() public view returns (uint count) {\n        //require(isMember(msg.sender) == true,\"Sender not authorized.\");\n        return bancos.length;\n    }\n\n    function calculateHash(string memory s ) internal pure returns (bytes32 res) {\n        return keccak256(abi.encodePacked(s));\n    }\n\n    function isTeam(address add) private view returns (bool res) {\n        res=false;\n        for (uint i=0; i<equipas.length; i++) {\n            if (equipas[i] == add) {\n                res=true;\n                break;\n            }\n        }\n        return res;\n    }\n\n    function isBank(address add) private view returns (bool res) {\n        res=false;\n        for (uint i=0; i<bancos.length; i++) {\n            if (bancos[i] == add) {\n                res=true;\n                break;\n            }\n        }\n        return res;\n    }\n\n    function isFederation(address add) private view returns (bool res) {\n        res=false;\n        for (uint i=0; i<federacao.length; i++) {\n            if (equipas[i] == add) {\n                res=true;\n                break;\n            }\n        }\n        return res;\n    }\n\n    function isMember(address add) public view returns (bool res) {\n        return (isTeam(add) || isBank(add) || isFederation(add) || add == ownerAcc);\n    }\n        \n    function typeA(address add) public view returns (uint res) {\n        uint val = 0;\n\n        if(isTeam(add)){\n            val = 1;\n        }\n        if(isBank(add)){\n            val = 2;\n        }\n        if(isFederation(add)){\n            val = 3;\n        }\n        return val;\n    }\n    function testParams(address a,address b,address v,address f,bytes32 e, bytes32 d) public  returns (uint count) {\n        return 1;\n    }\n\n}\n",
  "sourcePath": "/home/pc/Desktop/2semestre/Eng_seg/BlockchainProject/vueProject/vuebox/contracts/Transferencias.sol",
  "compiler": {
    "name": "solc",
    "version": "0.5.7+commit.6da8b019.Emscripten.clang"
  },
  "schemaVersion": "3.0.0-beta.2",
  "updatedAt": "2019-06-13T08:59:19.803Z",
  "devdoc": {
    "methods": {}
  },
  "userdoc": {
    "methods": {
      "constructor": "The smart contract's constructor"
    }
  }
}