{
  "contractName": "Transferencias",
  "abi": [
    {
      "constant": true,
      "inputs": [
        {
          "name": "",
          "type": "uint256"
        }
      ],
      "name": "bancos",
      "outputs": [
        {
          "name": "",
          "type": "address"
        }
      ],
      "payable": false,
      "stateMutability": "view",
      "type": "function",
      "signature": "0x213dee1b"
    },
    {
      "constant": true,
      "inputs": [],
      "name": "ownerAcc",
      "outputs": [
        {
          "name": "",
          "type": "address"
        }
      ],
      "payable": false,
      "stateMutability": "view",
      "type": "function",
      "signature": "0x4826dd40"
    },
    {
      "constant": true,
      "inputs": [],
      "name": "owner2",
      "outputs": [
        {
          "name": "",
          "type": "bytes32"
        }
      ],
      "payable": false,
      "stateMutability": "view",
      "type": "function",
      "signature": "0x52709725"
    },
    {
      "constant": true,
      "inputs": [
        {
          "name": "",
          "type": "uint256"
        }
      ],
      "name": "equipas",
      "outputs": [
        {
          "name": "",
          "type": "address"
        }
      ],
      "payable": false,
      "stateMutability": "view",
      "type": "function",
      "signature": "0x6d73b6db"
    },
    {
      "constant": true,
      "inputs": [],
      "name": "owner",
      "outputs": [
        {
          "name": "",
          "type": "string"
        }
      ],
      "payable": false,
      "stateMutability": "view",
      "type": "function",
      "signature": "0x8da5cb5b"
    },
    {
      "constant": true,
      "inputs": [
        {
          "name": "",
          "type": "uint256"
        }
      ],
      "name": "federacao",
      "outputs": [
        {
          "name": "",
          "type": "address"
        }
      ],
      "payable": false,
      "stateMutability": "view",
      "type": "function",
      "signature": "0xf47ff894"
    },
    {
      "inputs": [],
      "payable": false,
      "stateMutability": "nonpayable",
      "type": "constructor",
      "signature": "constructor"
    },
    {
      "anonymous": false,
      "inputs": [
        {
          "indexed": false,
          "name": "id",
          "type": "bytes32"
        },
        {
          "indexed": false,
          "name": "estadoFatura",
          "type": "uint256"
        }
      ],
      "name": "nextStage",
      "type": "event",
      "signature": "0x4980b43cd586effec33cc3e33bd9fef4e8a2274eb7718d1d267a1cce125c7017"
    },
    {
      "anonymous": false,
      "inputs": [
        {
          "indexed": false,
          "name": "equipa",
          "type": "address"
        }
      ],
      "name": "addEquipa",
      "type": "event",
      "signature": "0x04977f35dcc04f0686d9473725138e6d0f4affbc79c276ce72856c7f8bbd22c4"
    },
    {
      "anonymous": false,
      "inputs": [
        {
          "indexed": false,
          "name": "banco",
          "type": "address"
        }
      ],
      "name": "addBanco",
      "type": "event",
      "signature": "0x1c45079182c8d9e0bda520cf306250349401df9e34b61dd0458c303a3e94ea63"
    },
    {
      "constant": false,
      "inputs": [
        {
          "name": "valor",
          "type": "uint256"
        },
        {
          "name": "emitData",
          "type": "bytes32"
        },
        {
          "name": "hash",
          "type": "bytes32"
        }
      ],
      "name": "adicionaFatura",
      "outputs": [],
      "payable": false,
      "stateMutability": "nonpayable",
      "type": "function",
      "signature": "0xf86c6881"
    },
    {
      "constant": false,
      "inputs": [
        {
          "name": "hash",
          "type": "bytes32"
        }
      ],
      "name": "recebeFatura",
      "outputs": [],
      "payable": false,
      "stateMutability": "nonpayable",
      "type": "function",
      "signature": "0x8d3ce961"
    },
    {
      "constant": false,
      "inputs": [
        {
          "name": "hash",
          "type": "bytes32"
        },
        {
          "name": "aceitar",
          "type": "bool"
        }
      ],
      "name": "validaFatura",
      "outputs": [],
      "payable": false,
      "stateMutability": "nonpayable",
      "type": "function",
      "signature": "0x141883cc"
    },
    {
      "constant": false,
      "inputs": [
        {
          "name": "hash",
          "type": "bytes32"
        }
      ],
      "name": "pagaFatura",
      "outputs": [],
      "payable": false,
      "stateMutability": "nonpayable",
      "type": "function",
      "signature": "0x896291d9"
    },
    {
      "constant": false,
      "inputs": [
        {
          "name": "hash",
          "type": "bytes32"
        }
      ],
      "name": "validaPagamento",
      "outputs": [],
      "payable": false,
      "stateMutability": "nonpayable",
      "type": "function",
      "signature": "0x5bc2bcc9"
    },
    {
      "constant": false,
      "inputs": [
        {
          "name": "hash",
          "type": "bytes32"
        }
      ],
      "name": "pagaPercentagem",
      "outputs": [],
      "payable": false,
      "stateMutability": "nonpayable",
      "type": "function",
      "signature": "0x1ef57d81"
    },
    {
      "constant": true,
      "inputs": [
        {
          "name": "hash",
          "type": "bytes32"
        }
      ],
      "name": "getEstado",
      "outputs": [
        {
          "name": "estado",
          "type": "uint256"
        }
      ],
      "payable": false,
      "stateMutability": "view",
      "type": "function",
      "signature": "0x845da51d"
    },
    {
      "constant": false,
      "inputs": [
        {
          "name": "add",
          "type": "address"
        }
      ],
      "name": "adicionarEquipa",
      "outputs": [],
      "payable": false,
      "stateMutability": "nonpayable",
      "type": "function",
      "signature": "0x898c6ee5"
    },
    {
      "constant": false,
      "inputs": [
        {
          "name": "add",
          "type": "address"
        }
      ],
      "name": "adicionarBanco",
      "outputs": [],
      "payable": false,
      "stateMutability": "nonpayable",
      "type": "function",
      "signature": "0x28b05552"
    },
    {
      "constant": true,
      "inputs": [],
      "name": "getTeamsLength",
      "outputs": [
        {
          "name": "count",
          "type": "uint256"
        }
      ],
      "payable": false,
      "stateMutability": "view",
      "type": "function",
      "signature": "0x80fe6c3a"
    },
    {
      "constant": true,
      "inputs": [],
      "name": "getBanksLength",
      "outputs": [
        {
          "name": "count",
          "type": "uint256"
        }
      ],
      "payable": false,
      "stateMutability": "view",
      "type": "function",
      "signature": "0x1b3ebe3b"
    },
    {
      "constant": true,
      "inputs": [],
      "name": "getFederationsLength",
      "outputs": [
        {
          "name": "count",
          "type": "uint256"
        }
      ],
      "payable": false,
      "stateMutability": "view",
      "type": "function",
      "signature": "0x3267ea06"
    }
  ],
  "bytecode": "0x60806040523480156200001157600080fd5b506040805180820190915260088082527f7072696d6569726f00000000000000000000000000000000000000000000000060209092019182526200005891600491620001c0565b5060408051808201909152600881527f7072696d6569726f0000000000000000000000000000000000000000000000006020820152620000a19064010000000062000147810204565b60055560038054600160a060020a03199081167324bf0ffc4daf52b0df27640882e202b0aad98b111790915560008054600181810183558280527f290decd9548b62a8d60345a988386fc84ba6bc95484008f6362f93160ef3e56391820180548516731fb4c08aea29a6642d8c963f1ca01c15c63385bc179055825490810190925501805490911673db254afdcacea500c4f7449c4b9f9da3e1224f8117905562000265565b6000816040516020018082805190602001908083835b602083106200017e5780518252601f1990920191602091820191016200015d565b6001836020036101000a038019825116818451168082178552505050505050905001915050604051602081830303815290604052805190602001209050919050565b828054600181600116156101000203166002900490600052602060002090601f016020900481019282601f106200020357805160ff191683800117855562000233565b8280016001018555821562000233579182015b828111156200023357825182559160200191906001019062000216565b506200024192915062000245565b5090565b6200026291905b808211156200024157600081556001016200024c565b90565b61106080620002756000396000f3fe6080604052600436106100fb5763ffffffff7c0100000000000000000000000000000000000000000000000000000000600035041663141883cc81146101005780631b3ebe3b146101345780631ef57d811461015b578063213dee1b1461018557806328b05552146101cb5780633267ea06146101345780634826dd40146101fe57806352709725146102135780635bc2bcc9146102285780636d73b6db1461025257806380fe6c3a1461027c578063845da51d14610291578063896291d9146102bb578063898c6ee5146102e55780638d3ce961146103185780638da5cb5b14610342578063f47ff894146103cc578063f86c6881146103f6575b600080fd5b34801561010c57600080fd5b506101326004803603604081101561012357600080fd5b5080359060200135151561042c565b005b34801561014057600080fd5b50610149610534565b60408051918252519081900360200190f35b34801561016757600080fd5b506101326004803603602081101561017e57600080fd5b503561058d565b34801561019157600080fd5b506101af600480360360208110156101a857600080fd5b5035610677565b60408051600160a060020a039092168252519081900360200190f35b3480156101d757600080fd5b50610132600480360360208110156101ee57600080fd5b5035600160a060020a031661069f565b34801561020a57600080fd5b506101af6107dd565b34801561021f57600080fd5b506101496107ec565b34801561023457600080fd5b506101326004803603602081101561024b57600080fd5b50356107f2565b34801561025e57600080fd5b506101af6004803603602081101561027557600080fd5b50356108dc565b34801561028857600080fd5b506101496108ea565b34801561029d57600080fd5b50610149600480360360208110156102b457600080fd5b5035610943565b3480156102c757600080fd5b50610132600480360360208110156102de57600080fd5b50356109d5565b3480156102f157600080fd5b506101326004803603602081101561030857600080fd5b5035600160a060020a0316610abf565b34801561032457600080fd5b506101326004803603602081101561033b57600080fd5b5035610bfb565b34801561034e57600080fd5b50610357610ce3565b6040805160208082528351818301528351919283929083019185019080838360005b83811015610391578181015183820152602001610379565b50505050905090810190601f1680156103be5780820380516001836020036101000a031916815260200191505b509250505060405180910390f35b3480156103d857600080fd5b506101af600480360360208110156103ef57600080fd5b5035610d71565b34801561040257600080fd5b506101326004803603606081101561041957600080fd5b5080359060208101359060400135610d7f565b61043533610e6e565b151560011461047c576040805160e560020a62461bcd0281526020600482015260166024820152600080516020611015833981519152604482015290519081900360640190fd5b6000828152600760205260409020600290810154146104d3576040805160e560020a62461bcd0281526020600482015260176024820152600080516020610fd5833981519152604482015290519081900360640190fd5b80156104f45760008281526007602052604090206003600290910155610507565b6000828152600760205260408120600201555b60408051838152600360208201528151600080516020610ff5833981519152929181900390910190a15050565b600061053f33610e6e565b1515600114610586576040805160e560020a62461bcd0281526020600482015260166024820152600080516020611015833981519152604482015290519081900360640190fd5b5060015490565b61059633610e6e565b15156001146105dd576040805160e560020a62461bcd0281526020600482015260166024820152600080516020611015833981519152604482015290519081900360640190fd5b600081815260076020526040902060020154600514610634576040805160e560020a62461bcd0281526020600482015260176024820152600080516020610fd5833981519152604482015290519081900360640190fd5b600081815260076020908152604091829020600660029091018190558251848152918201528151600080516020610ff5833981519152929181900390910190a150565b600180548290811061068557fe5b600091825260209091200154600160a060020a0316905081565b600354600160a060020a031633146106ef576040805160e560020a62461bcd0281526020600482015260166024820152600080516020611015833981519152604482015290519081900360640190fd5b6106f881610e6e565b1561074d576040805160e560020a62461bcd02815260206004820152601660248201527f4163636f756e7420616c726561647920696e2075736500000000000000000000604482015290519081900360640190fd5b6001805480820182556000919091527fb10e2d527612073b26eecdfd717e6a320cf44b4afac2b0732d9fcbe2b7fa0cf6018054600160a060020a03831673ffffffffffffffffffffffffffffffffffffffff19909116811790915560408051918252517f1c45079182c8d9e0bda520cf306250349401df9e34b61dd0458c303a3e94ea639181900360200190a150565b600354600160a060020a031681565b60055481565b6107fb33610e6e565b1515600114610842576040805160e560020a62461bcd0281526020600482015260166024820152600080516020611015833981519152604482015290519081900360640190fd5b600081815260076020526040902060020154600414610899576040805160e560020a62461bcd0281526020600482015260176024820152600080516020610fd5833981519152604482015290519081900360640190fd5b600081815260076020908152604091829020600560029091018190558251848152918201528151600080516020610ff5833981519152929181900390910190a150565b600080548290811061068557fe5b60006108f533610e6e565b151560011461093c576040805160e560020a62461bcd0281526020600482015260166024820152600080516020611015833981519152604482015290519081900360640190fd5b5060005490565b600061094e33610e6e565b1515600114610995576040805160e560020a62461bcd0281526020600482015260166024820152600080516020611015833981519152604482015290519081900360640190fd5b61099d610fb4565b505060009081526007602090815260409182902082516060810184528154815260018201549281019290925260020154910181905290565b6109de33610e6e565b1515600114610a25576040805160e560020a62461bcd0281526020600482015260166024820152600080516020611015833981519152604482015290519081900360640190fd5b600081815260076020526040902060020154600314610a7c576040805160e560020a62461bcd0281526020600482015260176024820152600080516020610fd5833981519152604482015290519081900360640190fd5b600081815260076020908152604091829020600460029091018190558251848152918201528151600080516020610ff5833981519152929181900390910190a150565b600354600160a060020a03163314610b0f576040805160e560020a62461bcd0281526020600482015260166024820152600080516020611015833981519152604482015290519081900360640190fd5b610b1881610e6e565b15610b6d576040805160e560020a62461bcd02815260206004820152601660248201527f4163636f756e7420616c726561647920696e2075736500000000000000000000604482015290519081900360640190fd5b600080546001810182559080527f290decd9548b62a8d60345a988386fc84ba6bc95484008f6362f93160ef3e563018054600160a060020a03831673ffffffffffffffffffffffffffffffffffffffff19909116811790915560408051918252517f04977f35dcc04f0686d9473725138e6d0f4affbc79c276ce72856c7f8bbd22c49181900360200190a150565b610c0433610e6e565b1515600114610c4b576040805160e560020a62461bcd0281526020600482015260166024820152600080516020611015833981519152604482015290519081900360640190fd5b600081815260076020526040902060020154600114610ca2576040805160e560020a62461bcd0281526020600482015260176024820152600080516020610fd5833981519152604482015290519081900360640190fd5b60008181526007602090815260409182902060029081018190558251848152918201528151600080516020610ff5833981519152929181900390910190a150565b6004805460408051602060026001851615610100026000190190941693909304601f81018490048402820184019092528181529291830182828015610d695780601f10610d3e57610100808354040283529160200191610d69565b820191906000526020600020905b815481529060010190602001808311610d4c57829003601f168201915b505050505081565b600280548290811061068557fe5b610d8833610e6e565b1515600114610dcf576040805160e560020a62461bcd0281526020600482015260166024820152600080516020611015833981519152604482015290519081900360640190fd5b610dd7610fb4565b506040805160608101825284815260208082018581526001838501818152600680548084019091557ff652222313e28459528d920b65115c16c04f3efc82aaedc97be59f3f377c0d3f01879055600087815260078552869020855181559251838301555160029092019190915583518581529182015282519192600080516020610ff583398151915292918290030190a150505050565b6000610e7982610eb5565b80610e885750610e8882610f0e565b80610e975750610e9782610f61565b80610eaf5750600354600160a060020a038381169116145b92915050565b6000805b600054811015610f085782600160a060020a0316600082815481101515610edc57fe5b600091825260209091200154600160a060020a03161415610f005760019150610f08565b600101610eb9565b50919050565b6000805b600154811015610f085782600160a060020a0316600182815481101515610f3557fe5b600091825260209091200154600160a060020a03161415610f595760019150610f08565b600101610f12565b6000805b600254811015610f085782600160a060020a0316600082815481101515610f8857fe5b600091825260209091200154600160a060020a03161415610fac5760019150610f08565b600101610f65565b60408051606081018252600080825260208201819052918101919091529056fe4f7065726174696f6e206e6f7420617661696c61626c650000000000000000004980b43cd586effec33cc3e33bd9fef4e8a2274eb7718d1d267a1cce125c701753656e646572206e6f7420617574686f72697a65642e00000000000000000000a165627a7a72305820acaf0653639902252b294cab1633af496bab6b15eee804751a7fab5bea2231900029",
  "source": "pragma solidity ^0.5.0;\n\ncontract Transferencias {\n\n    address[] public equipas;\n    address[] public bancos;\n    address[] public federacao;\n    address public ownerAcc;\n    string public owner;\n    bytes32 public owner2;\n\n    struct Fatura{\n        uint valorTotal;\n        bytes32 data;\n        uint estadoVenda;\n    }\n\n    bytes32[] KeysFaturas;\n    mapping (bytes32 => Fatura) transacoes;\n    \n    //eventos teste \n    event nextStage(\n       bytes32 id,\n       uint estadoFatura\n    );\n\n    event addEquipa(\n       address equipa\n    );\n\n    event addBanco(\n       address banco\n    );\n    \n    /// The smart contract's constructor\n    constructor() public {\n        owner = \"primeiro\";\n        owner2 = calculateHash(\"primeiro\");\n        ownerAcc = 0x24BF0ffC4daf52B0df27640882E202b0AAd98B11;\n        \n        //adicionar os participantes\n        equipas.push(0x1Fb4C08AeA29A6642D8C963F1ca01c15C63385bc);\n        equipas.push(0xdB254AFdcaCEa500C4f7449c4b9F9DA3e1224F81);\n\n    }\n\n    function adicionaFatura(uint valor, bytes32 emitData, bytes32 hash) public {\n        require(isMember(msg.sender) == true,\"Sender not authorized.\");\n        \n        Fatura memory myStruct = Fatura({valorTotal:valor, data:emitData, estadoVenda:1});\n        KeysFaturas.push(hash);\n        transacoes[hash] = myStruct;\n        emit nextStage(hash,1);\n    }\n\n    function recebeFatura(bytes32 hash) public{\n        require(isMember(msg.sender) == true,\"Sender not authorized.\");\n        require(transacoes[hash].estadoVenda == 1, \"Operation not available\");\n            \n        transacoes[hash].estadoVenda = 2;  \n        emit nextStage(hash,2);      \n    }\n\n    function validaFatura(bytes32 hash, bool aceitar) public{\n        require(isMember(msg.sender) == true,\"Sender not authorized.\");\n        require(transacoes[hash].estadoVenda == 2, \"Operation not available\");\n        \n        if(aceitar)\n            transacoes[hash].estadoVenda = 3; \n        else\n            transacoes[hash].estadoVenda = 0; \n        emit nextStage(hash,3);\n    }\n\n    function pagaFatura(bytes32 hash) public{\n        require(isMember(msg.sender) == true,\"Sender not authorized.\");\n        require(transacoes[hash].estadoVenda == 3, \"Operation not available\");\n        \n        transacoes[hash].estadoVenda = 4;  \n        emit nextStage(hash,4);\n    }\n\n\n    function validaPagamento(bytes32 hash) public{\n        require(isMember(msg.sender) == true,\"Sender not authorized.\");\n        require(transacoes[hash].estadoVenda == 4, \"Operation not available\");\n            \n        transacoes[hash].estadoVenda = 5;  \n        emit nextStage(hash,5);\n    }\n\n\n    function pagaPercentagem(bytes32 hash) public{\n        require(isMember(msg.sender) == true,\"Sender not authorized.\");    \n        require(transacoes[hash].estadoVenda == 5, \"Operation not available\");\n\n        transacoes[hash].estadoVenda = 6;  \n        emit nextStage(hash,6);\n    }\n\n\n    function getEstado(bytes32 hash) public view returns (uint estado) {\n        require(isMember(msg.sender) == true,\"Sender not authorized.\");\n        Fatura memory fatura = transacoes[hash];\n        return fatura.estadoVenda;\n    }\n\n    function adicionarEquipa(address add) public{\n        require(msg.sender == ownerAcc, \"Sender not authorized.\");\n        require(!isMember(add), \"Account already in use\");\n        equipas.push(add);\n        emit addEquipa(add); \n    }\n\n    function adicionarBanco(address add) public{\n        require(msg.sender == ownerAcc, \"Sender not authorized.\");\n        require(!isMember(add), \"Account already in use\");\n        bancos.push(add);\n        emit addBanco(add); \n    }\n\n    function getTeamsLength() public view returns (uint count) {\n        require(isMember(msg.sender) == true,\"Sender not authorized.\");\n        return equipas.length;\n    }\n\n    function getBanksLength() public view returns (uint count) {\n        require(isMember(msg.sender) == true,\"Sender not authorized.\");\n        return bancos.length;\n    }\n\n    function getFederationsLength() public view returns (uint count) {\n        require(isMember(msg.sender) == true,\"Sender not authorized.\");\n        return bancos.length;\n    }\n\n    function calculateHash(string memory s ) internal pure returns (bytes32 res) {\n        return keccak256(abi.encodePacked(s));\n    }\n\n    function isTeam(address add) private view returns (bool res) {\n        res=false;\n        for (uint i=0; i<equipas.length; i++) {\n            if (equipas[i] == add) {\n                res=true;\n                break;\n            }\n        }\n        return res;\n    }\n\n    function isBank(address add) private view returns (bool res) {\n        res=false;\n        for (uint i=0; i<bancos.length; i++) {\n            if (bancos[i] == add) {\n                res=true;\n                break;\n            }\n        }\n        return res;\n    }\n\n    function isFederation(address add) private view returns (bool res) {\n        res=false;\n        for (uint i=0; i<federacao.length; i++) {\n            if (equipas[i] == add) {\n                res=true;\n                break;\n            }\n        }\n        return res;\n    }\n\n    function isMember(address add) private view returns (bool res) {\n        return (isTeam(add) || isBank(add) || isFederation(add) || add == ownerAcc);\n    }\n\n}\n",
  "sourcePath": "/home/ricardo/Desktop/LEI/BlockchainProject/vueProject/vuebox/contracts/Transferencias.sol",
  "compiler": {
    "name": "solc",
    "version": "0.5.0+commit.1d4f565a.Emscripten.clang"
  },
  "schemaVersion": "3.0.8",
  "updatedAt": "2019-04-28T17:42:03.344Z",
  "devdoc": {
    "methods": {}
  },
  "userdoc": {
    "methods": {
      "constructor": "The smart contract's constructor"
    }
  }
}