{
  "contractName": "Transferencias",
  "abi": [
    {
      "constant": true,
      "inputs": [
        {
          "name": "",
          "type": "uint256"
        }
      ],
      "name": "bancos",
      "outputs": [
        {
          "name": "",
          "type": "address"
        }
      ],
      "payable": false,
      "stateMutability": "view",
      "type": "function",
      "signature": "0x213dee1b"
    },
    {
      "constant": true,
      "inputs": [],
      "name": "ownerAcc",
      "outputs": [
        {
          "name": "",
          "type": "address"
        }
      ],
      "payable": false,
      "stateMutability": "view",
      "type": "function",
      "signature": "0x4826dd40"
    },
    {
      "constant": true,
      "inputs": [],
      "name": "owner2",
      "outputs": [
        {
          "name": "",
          "type": "bytes32"
        }
      ],
      "payable": false,
      "stateMutability": "view",
      "type": "function",
      "signature": "0x52709725"
    },
    {
      "constant": true,
      "inputs": [
        {
          "name": "",
          "type": "uint256"
        }
      ],
      "name": "equipas",
      "outputs": [
        {
          "name": "",
          "type": "address"
        }
      ],
      "payable": false,
      "stateMutability": "view",
      "type": "function",
      "signature": "0x6d73b6db"
    },
    {
      "constant": true,
      "inputs": [],
      "name": "owner",
      "outputs": [
        {
          "name": "",
          "type": "string"
        }
      ],
      "payable": false,
      "stateMutability": "view",
      "type": "function",
      "signature": "0x8da5cb5b"
    },
    {
      "constant": true,
      "inputs": [
        {
          "name": "",
          "type": "uint256"
        }
      ],
      "name": "federacao",
      "outputs": [
        {
          "name": "",
          "type": "address"
        }
      ],
      "payable": false,
      "stateMutability": "view",
      "type": "function",
      "signature": "0xf47ff894"
    },
    {
      "inputs": [],
      "payable": false,
      "stateMutability": "nonpayable",
      "type": "constructor",
      "signature": "constructor"
    },
    {
      "anonymous": false,
      "inputs": [
        {
          "indexed": false,
          "name": "name",
          "type": "string"
        },
        {
          "indexed": false,
          "name": "age",
          "type": "uint256"
        }
      ],
      "name": "Exemplo",
      "type": "event",
      "signature": "0x9248a77bbe413ca7fda21b9e18cbd8bcebfaf4236c06a66f70a3fe6296a297e7"
    },
    {
      "constant": false,
      "inputs": [
        {
          "name": "valor",
          "type": "uint256"
        },
        {
          "name": "emitData",
          "type": "string"
        },
        {
          "name": "hash",
          "type": "bytes32"
        }
      ],
      "name": "adicionaFatura",
      "outputs": [],
      "payable": false,
      "stateMutability": "nonpayable",
      "type": "function",
      "signature": "0xca850d19"
    },
    {
      "constant": false,
      "inputs": [
        {
          "name": "hash",
          "type": "bytes32"
        }
      ],
      "name": "recebeFatura",
      "outputs": [],
      "payable": false,
      "stateMutability": "nonpayable",
      "type": "function",
      "signature": "0x8d3ce961"
    },
    {
      "constant": false,
      "inputs": [
        {
          "name": "hash",
          "type": "bytes32"
        },
        {
          "name": "aceitar",
          "type": "bool"
        }
      ],
      "name": "validaFatura",
      "outputs": [],
      "payable": false,
      "stateMutability": "nonpayable",
      "type": "function",
      "signature": "0x141883cc"
    },
    {
      "constant": false,
      "inputs": [
        {
          "name": "hash",
          "type": "bytes32"
        }
      ],
      "name": "pagaFatura",
      "outputs": [],
      "payable": false,
      "stateMutability": "nonpayable",
      "type": "function",
      "signature": "0x896291d9"
    },
    {
      "constant": false,
      "inputs": [
        {
          "name": "hash",
          "type": "bytes32"
        }
      ],
      "name": "validaPagamento",
      "outputs": [],
      "payable": false,
      "stateMutability": "nonpayable",
      "type": "function",
      "signature": "0x5bc2bcc9"
    },
    {
      "constant": false,
      "inputs": [
        {
          "name": "hash",
          "type": "bytes32"
        }
      ],
      "name": "pagaPercentagem",
      "outputs": [],
      "payable": false,
      "stateMutability": "nonpayable",
      "type": "function",
      "signature": "0x1ef57d81"
    },
    {
      "constant": true,
      "inputs": [
        {
          "name": "hash",
          "type": "bytes32"
        }
      ],
      "name": "getEstado",
      "outputs": [
        {
          "name": "estado",
          "type": "uint256"
        }
      ],
      "payable": false,
      "stateMutability": "view",
      "type": "function",
      "signature": "0x845da51d"
    },
    {
      "constant": false,
      "inputs": [
        {
          "name": "add",
          "type": "address"
        }
      ],
      "name": "adicionarEquipa",
      "outputs": [],
      "payable": false,
      "stateMutability": "nonpayable",
      "type": "function",
      "signature": "0x898c6ee5"
    },
    {
      "constant": false,
      "inputs": [
        {
          "name": "add",
          "type": "address"
        }
      ],
      "name": "adicionarBanco",
      "outputs": [],
      "payable": false,
      "stateMutability": "nonpayable",
      "type": "function",
      "signature": "0x28b05552"
    },
    {
      "constant": true,
      "inputs": [],
      "name": "getTeamsLength",
      "outputs": [
        {
          "name": "count",
          "type": "uint256"
        }
      ],
      "payable": false,
      "stateMutability": "view",
      "type": "function",
      "signature": "0x80fe6c3a"
    },
    {
      "constant": true,
      "inputs": [],
      "name": "getBanksLength",
      "outputs": [
        {
          "name": "count",
          "type": "uint256"
        }
      ],
      "payable": false,
      "stateMutability": "view",
      "type": "function",
      "signature": "0x1b3ebe3b"
    }
  ],
  "bytecode": "0x60806040523480156200001157600080fd5b506040805180820190915260088082527f7072696d6569726f00000000000000000000000000000000000000000000000060209092019182526200005891600491620001c0565b5060408051808201909152600881527f7072696d6569726f0000000000000000000000000000000000000000000000006020820152620000a19064010000000062000147810204565b60055560038054600160a060020a03199081167324bf0ffc4daf52b0df27640882e202b0aad98b111790915560008054600181810183558280527f290decd9548b62a8d60345a988386fc84ba6bc95484008f6362f93160ef3e56391820180548516731fb4c08aea29a6642d8c963f1ca01c15c63385bc179055825490810190925501805490911673db254afdcacea500c4f7449c4b9f9da3e1224f8117905562000265565b6000816040516020018082805190602001908083835b602083106200017e5780518252601f1990920191602091820191016200015d565b6001836020036101000a038019825116818451168082178552505050505050905001915050604051602081830303815290604052805190602001209050919050565b828054600181600116156101000203166002900490600052602060002090601f016020900481019282601f106200020357805160ff191683800117855562000233565b8280016001018555821562000233579182015b828111156200023357825182559160200191906001019062000216565b506200024192915062000245565b5090565b6200026291905b808211156200024157600081556001016200024c565b90565b61112880620002756000396000f3fe6080604052600436106100f05763ffffffff7c0100000000000000000000000000000000000000000000000000000000600035041663141883cc81146100f55780631b3ebe3b146101295780631ef57d8114610150578063213dee1b1461017a57806328b05552146101c05780634826dd40146101f357806352709725146102085780635bc2bcc91461021d5780636d73b6db1461024757806380fe6c3a14610271578063845da51d14610286578063896291d9146102b0578063898c6ee5146102da5780638d3ce9611461030d5780638da5cb5b14610337578063ca850d19146103c1578063f47ff8941461047d575b600080fd5b34801561010157600080fd5b506101276004803603604081101561011857600080fd5b508035906020013515156104a7565b005b34801561013557600080fd5b5061013e610586565b60408051918252519081900360200190f35b34801561015c57600080fd5b506101276004803603602081101561017357600080fd5b50356105e0565b34801561018657600080fd5b506101a46004803603602081101561019d57600080fd5b503561069f565b60408051600160a060020a039092168252519081900360200190f35b3480156101cc57600080fd5b50610127600480360360208110156101e357600080fd5b5035600160a060020a03166106c7565b3480156101ff57600080fd5b506101a46107d8565b34801561021457600080fd5b5061013e6107e7565b34801561022957600080fd5b506101276004803603602081101561024057600080fd5b50356107ed565b34801561025357600080fd5b506101a46004803603602081101561026a57600080fd5b50356108ac565b34801561027d57600080fd5b5061013e6108ba565b34801561029257600080fd5b5061013e600480360360208110156102a957600080fd5b5035610913565b3480156102bc57600080fd5b50610127600480360360208110156102d357600080fd5b5035610a4f565b3480156102e657600080fd5b50610127600480360360208110156102fd57600080fd5b5035600160a060020a0316610b0e565b34801561031957600080fd5b506101276004803603602081101561033057600080fd5b5035610c1d565b34801561034357600080fd5b5061034c610cda565b6040805160208082528351818301528351919283929083019185019080838360005b8381101561038657818101518382015260200161036e565b50505050905090810190601f1680156103b35780820380516001836020036101000a031916815260200191505b509250505060405180910390f35b3480156103cd57600080fd5b50610127600480360360608110156103e457600080fd5b8135919081019060408101602082013564010000000081111561040657600080fd5b82018360208201111561041857600080fd5b8035906020019184600183028401116401000000008311171561043a57600080fd5b91908080601f0160208091040260200160405190810160405280939291908181526020018383808284376000920191909152509295505091359250610d68915050565b34801561048957600080fd5b506101a4600480360360208110156104a057600080fd5b5035610eae565b6104b033610ebc565b15156001146104f7576040805160e560020a62461bcd02815260206004820152601660248201526000805160206110dd833981519152604482015290519081900360640190fd5b60008281526007602052604090206002908101541461054e576040805160e560020a62461bcd02815260206004820152601b60248201526000805160206110bd833981519152604482015290519081900360640190fd5b801561056f5760008281526007602052604090206003600290910155610582565b6000828152600760205260408120600201555b5050565b600061059133610ebc565b15156001146105d8576040805160e560020a62461bcd02815260206004820152601660248201526000805160206110dd833981519152604482015290519081900360640190fd5b506001545b90565b6105e933610ebc565b1515600114610630576040805160e560020a62461bcd02815260206004820152601660248201526000805160206110dd833981519152604482015290519081900360640190fd5b600081815260076020526040902060020154600514610687576040805160e560020a62461bcd02815260206004820152601b60248201526000805160206110bd833981519152604482015290519081900360640190fd5b60009081526007602052604090206006600290910155565b60018054829081106106ad57fe5b600091825260209091200154600160a060020a0316905081565b600354600160a060020a03163314610717576040805160e560020a62461bcd02815260206004820152601660248201526000805160206110dd833981519152604482015290519081900360640190fd5b6001805480820182556000919091527fb10e2d527612073b26eecdfd717e6a320cf44b4afac2b0732d9fcbe2b7fa0cf601805473ffffffffffffffffffffffffffffffffffffffff1916600160a060020a03831617905560408051607b60208201528181526003818301527f6f6c610000000000000000000000000000000000000000000000000000000000606082015290517f9248a77bbe413ca7fda21b9e18cbd8bcebfaf4236c06a66f70a3fe6296a297e7916080908290030190a150565b600354600160a060020a031681565b60055481565b6107f633610ebc565b151560011461083d576040805160e560020a62461bcd02815260206004820152601660248201526000805160206110dd833981519152604482015290519081900360640190fd5b600081815260076020526040902060020154600414610894576040805160e560020a62461bcd02815260206004820152601b60248201526000805160206110bd833981519152604482015290519081900360640190fd5b60009081526007602052604090206005600290910155565b60008054829081106106ad57fe5b60006108c533610ebc565b151560011461090c576040805160e560020a62461bcd02815260206004820152601660248201526000805160206110dd833981519152604482015290519081900360640190fd5b5060005490565b600061091e33610ebc565b1515600114610965576040805160e560020a62461bcd02815260206004820152601660248201526000805160206110dd833981519152604482015290519081900360640190fd5b61096d611002565b600760008481526020019081526020016000206060604051908101604052908160008201548152602001600182018054600181600116156101000203166002900480601f016020809104026020016040519081016040528092919081815260200182805460018160011615610100020316600290048015610a2f5780601f10610a0457610100808354040283529160200191610a2f565b820191906000526020600020905b815481529060010190602001808311610a1257829003601f168201915b505050918352505060029190910154602090910152604001519392505050565b610a5833610ebc565b1515600114610a9f576040805160e560020a62461bcd02815260206004820152601660248201526000805160206110dd833981519152604482015290519081900360640190fd5b600081815260076020526040902060020154600314610af6576040805160e560020a62461bcd02815260206004820152601b60248201526000805160206110bd833981519152604482015290519081900360640190fd5b60009081526007602052604090206004600290910155565b600354600160a060020a03163314610b5e576040805160e560020a62461bcd02815260206004820152601660248201526000805160206110dd833981519152604482015290519081900360640190fd5b600080546001810182559080527f290decd9548b62a8d60345a988386fc84ba6bc95484008f6362f93160ef3e56301805473ffffffffffffffffffffffffffffffffffffffff1916600160a060020a03831617905560408051607b60208201528181526003818301527f6f6c610000000000000000000000000000000000000000000000000000000000606082015290517f9248a77bbe413ca7fda21b9e18cbd8bcebfaf4236c06a66f70a3fe6296a297e7916080908290030190a150565b610c2633610ebc565b1515600114610c6d576040805160e560020a62461bcd02815260206004820152601660248201526000805160206110dd833981519152604482015290519081900360640190fd5b600081815260076020526040902060020154600114610cc4576040805160e560020a62461bcd02815260206004820152601b60248201526000805160206110bd833981519152604482015290519081900360640190fd5b6000908152600760205260409020600290810155565b6004805460408051602060026001851615610100026000190190941693909304601f81018490048402820184019092528181529291830182828015610d605780601f10610d3557610100808354040283529160200191610d60565b820191906000526020600020905b815481529060010190602001808311610d4357829003601f168201915b505050505081565b610d7133610ebc565b1515600114610db8576040805160e560020a62461bcd02815260206004820152601660248201526000805160206110dd833981519152604482015290519081900360640190fd5b610dc0611002565b506040805160608101825284815260208082018581526001838501819052600680548083019091557ff652222313e28459528d920b65115c16c04f3efc82aaedc97be59f3f377c0d3f01869055600086815260078452949094208351815590518051939485949293610e3793918501920190611024565b506040918201516002909101558051601660208201528181526005818301527f7465737465000000000000000000000000000000000000000000000000000000606082015290517f9248a77bbe413ca7fda21b9e18cbd8bcebfaf4236c06a66f70a3fe6296a297e79181900360800190a150505050565b60028054829081106106ad57fe5b6000610ec782610f03565b80610ed65750610ed682610f5c565b80610ee55750610ee582610faf565b80610efd5750600354600160a060020a038381169116145b92915050565b6000805b600054811015610f565782600160a060020a0316600082815481101515610f2a57fe5b600091825260209091200154600160a060020a03161415610f4e5760019150610f56565b600101610f07565b50919050565b6000805b600154811015610f565782600160a060020a0316600182815481101515610f8357fe5b600091825260209091200154600160a060020a03161415610fa75760019150610f56565b600101610f60565b6000805b600254811015610f565782600160a060020a0316600082815481101515610fd657fe5b600091825260209091200154600160a060020a03161415610ffa5760019150610f56565b600101610fb3565b6060604051908101604052806000815260200160608152602001600081525090565b828054600181600116156101000203166002900490600052602060002090601f016020900481019282601f1061106557805160ff1916838001178555611092565b82800160010185558215611092579182015b82811115611092578251825591602001919060010190611077565b5061109e9291506110a2565b5090565b6105dd91905b8082111561109e57600081556001016110a856fe4f70657261c3a7c3a36f206ec3a36f20646973706f6ec3ad76656c000000000053656e646572206e6f7420617574686f72697a65642e00000000000000000000a165627a7a72305820ad9cce11f18ce72d92626bde0b22a4c2148b4d12785d5ac3eff36d5573fadb870029",
  "source": "pragma solidity ^0.5.0;\n\ncontract Transferencias {\n\n    address[] public equipas;\n    address[] public bancos;\n    address[] public federacao;\n    address public ownerAcc;\n    string public owner;\n    bytes32 public owner2;\n\n    struct Fatura{\n        uint valorTotal;\n        string data;\n        uint estadoVenda;\n    }\n\n    bytes32[] KeysFaturas;\n    mapping (bytes32 => Fatura) transacoes;\n    \n    //eventos teste \n    event Exemplo(\n       string name,\n       uint age\n    );\n    \n    /// The smart contract's constructor\n    constructor() public {\n        owner = \"primeiro\";\n        owner2 = calculateHash(\"primeiro\");\n        ownerAcc = 0x24BF0ffC4daf52B0df27640882E202b0AAd98B11;\n        \n        //adicionar os participantes\n        equipas.push(0x1Fb4C08AeA29A6642D8C963F1ca01c15C63385bc);\n        equipas.push(0xdB254AFdcaCEa500C4f7449c4b9F9DA3e1224F81);\n\n    }\n\n    function adicionaFatura(uint valor, string memory emitData, bytes32 hash) public {\n        require(isMember(msg.sender) == true,\"Sender not authorized.\");\n        \n        Fatura memory myStruct = Fatura({valorTotal:valor, data:emitData, estadoVenda:1});\n        KeysFaturas.push(hash);\n        transacoes[hash] = myStruct;\n        emit Exemplo(\"teste\",22);\n    }\n\n    function recebeFatura(bytes32 hash) public{\n        require(isMember(msg.sender) == true,\"Sender not authorized.\");\n        require(transacoes[hash].estadoVenda == 1, \"Operação não disponível\");\n            \n        transacoes[hash].estadoVenda = 2;        \n    }\n\n    function validaFatura(bytes32 hash, bool aceitar) public{\n        require(isMember(msg.sender) == true,\"Sender not authorized.\");\n        require(transacoes[hash].estadoVenda == 2, \"Operação não disponível\");\n        \n        if(aceitar)\n            transacoes[hash].estadoVenda = 3; \n        else\n            transacoes[hash].estadoVenda = 0; \n    }\n\n    function pagaFatura(bytes32 hash) public{\n        require(isMember(msg.sender) == true,\"Sender not authorized.\");\n        require(transacoes[hash].estadoVenda == 3, \"Operação não disponível\");\n        \n        transacoes[hash].estadoVenda = 4; \n    }\n\n\n    function validaPagamento(bytes32 hash) public{\n        require(isMember(msg.sender) == true,\"Sender not authorized.\");\n        require(transacoes[hash].estadoVenda == 4, \"Operação não disponível\");\n            \n        transacoes[hash].estadoVenda = 5; \n    }\n\n\n    function pagaPercentagem(bytes32 hash) public{\n        require(isMember(msg.sender) == true,\"Sender not authorized.\");    \n        require(transacoes[hash].estadoVenda == 5, \"Operação não disponível\");\n\n        transacoes[hash].estadoVenda = 6; \n    }\n\n\n    function getEstado(bytes32 hash) public view returns (uint estado) {\n        require(isMember(msg.sender) == true,\"Sender not authorized.\");\n        Fatura memory fatura = transacoes[hash];\n        return fatura.estadoVenda;\n    }\n\n    function adicionarEquipa(address add) public{\n        require(msg.sender == ownerAcc, \"Sender not authorized.\");\n        equipas.push(add);\n        emit Exemplo(\"ola\",123); \n    }\n\n    function adicionarBanco(address add) public{\n        require(msg.sender == ownerAcc, \"Sender not authorized.\");\n        bancos.push(add);\n        emit Exemplo(\"ola\",123); \n    }\n\n    function getTeamsLength() public view returns (uint count) {\n        require(isMember(msg.sender) == true,\"Sender not authorized.\");\n        return equipas.length;\n    }\n\n    function getBanksLength() public view returns (uint count) {\n        require(isMember(msg.sender) == true,\"Sender not authorized.\");\n        return bancos.length;\n    }\n\n    function calculateHash(string memory s ) internal pure returns (bytes32 res) {\n        return keccak256(abi.encodePacked(s));\n    }\n\n    function isTeam(address add) private view returns (bool res) {\n        res=false;\n        for (uint i=0; i<equipas.length; i++) {\n            if (equipas[i] == add) {\n                res=true;\n                break;\n            }\n        }\n        return res;\n    }\n\n    function isBank(address add) private view returns (bool res) {\n        res=false;\n        for (uint i=0; i<bancos.length; i++) {\n            if (bancos[i] == add) {\n                res=true;\n                break;\n            }\n        }\n        return res;\n    }\n\n    function isFederation(address add) private view returns (bool res) {\n        res=false;\n        for (uint i=0; i<federacao.length; i++) {\n            if (equipas[i] == add) {\n                res=true;\n                break;\n            }\n        }\n        return res;\n    }\n\n    function isMember(address add) private view returns (bool res) {\n        return (isTeam(add) || isBank(add) || isFederation(add) || add == ownerAcc);\n    }\n\n}\n",
  "sourcePath": "/home/ricardo/Desktop/LEI/BlockchainProject/vueProject/vuebox/contracts/Transferencias.sol",
  "compiler": {
    "name": "solc",
    "version": "0.5.0+commit.1d4f565a.Emscripten.clang"
  },
  "schemaVersion": "3.0.8",
  "updatedAt": "2019-04-27T19:07:16.769Z",
  "devdoc": {
    "methods": {}
  },
  "userdoc": {
    "methods": {
      "constructor": "The smart contract's constructor"
    }
  }
}