{
  "contractName": "Transferencias",
  "abi": [
    {
      "constant": true,
      "inputs": [],
      "name": "owner2",
      "outputs": [
        {
          "name": "",
          "type": "bytes32"
        }
      ],
      "payable": false,
      "stateMutability": "view",
      "type": "function",
      "signature": "0x52709725"
    },
    {
      "constant": true,
      "inputs": [],
      "name": "owner",
      "outputs": [
        {
          "name": "",
          "type": "string"
        }
      ],
      "payable": false,
      "stateMutability": "view",
      "type": "function",
      "signature": "0x8da5cb5b"
    },
    {
      "constant": true,
      "inputs": [
        {
          "name": "",
          "type": "uint256"
        }
      ],
      "name": "participantes",
      "outputs": [
        {
          "name": "",
          "type": "address"
        }
      ],
      "payable": false,
      "stateMutability": "view",
      "type": "function",
      "signature": "0xb25924c1"
    },
    {
      "inputs": [],
      "payable": false,
      "stateMutability": "nonpayable",
      "type": "constructor",
      "signature": "constructor"
    },
    {
      "anonymous": false,
      "inputs": [
        {
          "indexed": false,
          "name": "hash",
          "type": "uint256"
        }
      ],
      "name": "PagamentoEfetuado",
      "type": "event",
      "signature": "0xc73cb384ed1b09b6a3e747d8d582fcfe7548f4f812e9b7b002532f1242684995"
    },
    {
      "constant": false,
      "inputs": [
        {
          "name": "hash2",
          "type": "uint256"
        },
        {
          "name": "estado",
          "type": "uint256"
        }
      ],
      "name": "adicionarFatura",
      "outputs": [],
      "payable": false,
      "stateMutability": "nonpayable",
      "type": "function",
      "signature": "0xb94ea29e"
    },
    {
      "constant": false,
      "inputs": [
        {
          "name": "hash2",
          "type": "uint256"
        },
        {
          "name": "estado",
          "type": "uint256"
        }
      ],
      "name": "alterarEstadoFatura",
      "outputs": [],
      "payable": false,
      "stateMutability": "nonpayable",
      "type": "function",
      "signature": "0xda4b6269"
    },
    {
      "constant": true,
      "inputs": [
        {
          "name": "hash2",
          "type": "uint256"
        }
      ],
      "name": "getEstado",
      "outputs": [
        {
          "name": "estado",
          "type": "uint256"
        }
      ],
      "payable": false,
      "stateMutability": "view",
      "type": "function",
      "signature": "0x1ad9b019"
    },
    {
      "constant": true,
      "inputs": [],
      "name": "getOwner",
      "outputs": [
        {
          "name": "owne",
          "type": "string"
        }
      ],
      "payable": false,
      "stateMutability": "view",
      "type": "function",
      "signature": "0x893d20e8"
    },
    {
      "constant": false,
      "inputs": [],
      "name": "adicionarParticipante",
      "outputs": [],
      "payable": false,
      "stateMutability": "nonpayable",
      "type": "function",
      "signature": "0x16a79522"
    },
    {
      "constant": true,
      "inputs": [],
      "name": "getLength",
      "outputs": [
        {
          "name": "count",
          "type": "uint256"
        }
      ],
      "payable": false,
      "stateMutability": "view",
      "type": "function",
      "signature": "0xbe1c766b"
    }
  ],
  "bytecode": "0x608060405234801561001057600080fd5b506040805180820190915260148082527f426c6f636b5472616e73666572436f6d70616e79000000000000000000000000602090920191825261005591600191610198565b5061009a6040518060400160405280600881526020017f7072696d6569726f00000000000000000000000000000000000000000000000081525061012160201b60201c565b60025560008054600181810183558280527f290decd9548b62a8d60345a988386fc84ba6bc95484008f6362f93160ef3e56391820180546001600160a01b0319908116731fb4c08aea29a6642d8c963f1ca01c15c63385bc17909155835491820190935501805490911673db254afdcacea500c4f7449c4b9f9da3e1224f81179055610233565b6000816040516020018082805190602001908083835b602083106101565780518252601f199092019160209182019101610137565b6001836020036101000a038019825116818451168082178552505050505050905001915050604051602081830303815290604052805190602001209050919050565b828054600181600116156101000203166002900490600052602060002090601f016020900481019282601f106101d957805160ff1916838001178555610206565b82800160010185558215610206579182015b828111156102065782518255916020019190600101906101eb565b50610212929150610216565b5090565b61023091905b80821115610212576000815560010161021c565b90565b6106e8806102426000396000f3fe608060405234801561001057600080fd5b50600436106100935760003560e01c80638da5cb5b116100665780638da5cb5b14610156578063b25924c11461015e578063b94ea29e14610197578063be1c766b146101ba578063da4b6269146101c257610093565b806316a79522146100985780631ad9b019146100a257806352709725146100d1578063893d20e8146100d9575b600080fd5b6100a06101e5565b005b6100bf600480360360208110156100b857600080fd5b50356102bc565b60408051918252519081900360200190f35b6100bf610362565b6100e1610368565b6040805160208082528351818301528351919283929083019185019080838360005b8381101561011b578181015183820152602001610103565b50505050905090810190601f1680156101485780820380516001836020036101000a031916815260200191505b509250505060405180910390f35b6100e16103fd565b61017b6004803603602081101561017457600080fd5b503561048a565b604080516001600160a01b039092168252519081900360200190f35b6100a0600480360360408110156101ad57600080fd5b50803590602001356104b1565b6100bf61058f565b6100a0600480360360408110156101d857600080fd5b5080359060200135610595565b6101ee33610644565b15156001146102475760408051600160e51b62461bcd02815260206004820152601660248201527f53656e646572206e6f7420617574686f72697a65642e00000000000000000000604482015290519081900360640190fd5b600080546001810182559080527f290decd9548b62a8d60345a988386fc84ba6bc95484008f6362f93160ef3e5630180546001600160a01b0319163317905560408051606f815290517fc73cb384ed1b09b6a3e747d8d582fcfe7548f4f812e9b7b002532f12426849959181900360200190a1565b60006102c733610644565b15156001146103205760408051600160e51b62461bcd02815260206004820152601660248201527f53656e646572206e6f7420617574686f72697a65642e00000000000000000000604482015290519081900360640190fd5b61032861069b565b5050600090815260046020908152604091829020825160608101845281548152600182015492810183905260029091015492019190915290565b60025481565b60018054604080516020601f600260001961010087891615020190951694909404938401819004810282018101909252828152606093909290918301828280156103f35780601f106103c8576101008083540402835291602001916103f3565b820191906000526020600020905b8154815290600101906020018083116103d657829003601f168201915b5050505050905090565b60018054604080516020600284861615610100026000190190941693909304601f810184900484028201840190925281815292918301828280156104825780601f1061045757610100808354040283529160200191610482565b820191906000526020600020905b81548152906001019060200180831161046557829003601f168201915b505050505081565b6000818154811061049757fe5b6000918252602090912001546001600160a01b0316905081565b6104ba33610644565b15156001146105135760408051600160e51b62461bcd02815260206004820152601660248201527f53656e646572206e6f7420617574686f72697a65642e00000000000000000000604482015290519081900360640190fd5b61051b61069b565b5060408051606081018252838152602080820193845260328284019081526003805460018181019092557fc2575a0e9e593c00f959f8c92f12db2869c3395a3b0502d05e2516446f71f85b018790556000968752600490925292909420905181559151928201929092559051600290910155565b60005490565b61059e33610644565b15156001146105f75760408051600160e51b62461bcd02815260206004820152601860248201527f53656e646572206e6f74206120207574686f72697a65642e0000000000000000604482015290519081900360640190fd5b600082815260046020908152604091829020600101839055815184815291517fc73cb384ed1b09b6a3e747d8d582fcfe7548f4f812e9b7b002532f12426849959281900390910190a15050565b6000805b60005481101561069557826001600160a01b03166000828154811061066957fe5b6000918252602090912001546001600160a01b0316141561068d5760019150610695565b600101610648565b50919050565b6040518060600160405280600081526020016000815260200160008152509056fea165627a7a72305820012b66802fb8123076c8368ebaa594cf41282919aa6cab4ddd5961c9029acc0a0029",
  "source": "pragma solidity ^0.5.0;\n\ncontract Transferencias {\n\n    address[] public participantes;\n    string public owner;\n    bytes32 public owner2;\n\n    struct Fatura{\n        uint hashVenda;\n        uint estadoVenda;\n        uint valorTotal;\n    }\n\n    uint[] KeysFaturas;\n    mapping (uint => Fatura) transacoes;\n    \n    //eventos teste \n    event PagamentoEfetuado(\n       uint hash\n    );\n    \n    /// The smart contract's constructor\n    constructor() public {\n        owner = \"BlockTransferCompany\";\n        owner2= calculateHash(\"primeiro\");\n        \n        //adicionar os participantes\n        participantes.push(0x1Fb4C08AeA29A6642D8C963F1ca01c15C63385bc);\n        participantes.push(0xdB254AFdcaCEa500C4f7449c4b9F9DA3e1224F81);\n\n    }\n\n    function adicionarFatura(uint hash2,uint estado) public  {\n        require(isMember(msg.sender) == true,\"Sender not authorized.\");\n        \n        Fatura  memory myStruct = Fatura({hashVenda:hash2, estadoVenda:estado,valorTotal:50});\n        KeysFaturas.push(hash2);\n        transacoes[hash2]=myStruct;\n    }\n\n    function alterarEstadoFatura(uint hash2, uint estado) public{\n\n            require(isMember(msg.sender) == true,\"Sender not a  uthorized.\");\n            transacoes[hash2].estadoVenda=estado;\n            emit PagamentoEfetuado(hash2);\n            //emitir aqui qqr coisa dependentemente disto        \n    }\n\n    function getEstado(uint hash2) public view returns (uint estado) {\n            require(isMember(msg.sender) == true,\"Sender not authorized.\");\n            Fatura memory fatura = transacoes[hash2];\n            return fatura.estadoVenda;\n    }\n\n    function getOwner() public view returns (string  memory owne) {\n        return  owner;\n    }\n\n    function adicionarParticipante() public{\n        require(isMember(msg.sender) == true,\"Sender not authorized.\");\n        participantes.push(msg.sender);\n        emit PagamentoEfetuado(111); \n\n    }\n\n    function getLength() public  view returns (uint count) {\n        //require(isMember(msg.sender) == true,\"Sender not authorized.\");\n        return participantes.length;\n    }\n\n\n    function calculateHash(string memory s )  private  returns (bytes32 res) {\n        return keccak256(abi.encodePacked(s));\n    }\n\n    function isMember(address add) private view returns (bool res) {\n        res=false;\n        for (uint i=0; i<participantes.length; i++) {\n            if (participantes[i] == add) {\n                res=true;\n                break;\n            }\n        }\n        return res;\n    }\n\n}\n",
  "sourcePath": "/home/pc/Desktop/vuebox/contracts/Transferencias.sol",
  "compiler": {
    "name": "solc",
    "version": "0.5.7+commit.6da8b019.Emscripten.clang"
  },
  "schemaVersion": "3.0.0-beta.2",
  "updatedAt": "2019-04-08T14:48:29.683Z",
  "devdoc": {
    "methods": {}
  },
  "userdoc": {
    "methods": {
      "constructor": "The smart contract's constructor"
    }
  }
}