{
  "contractName": "Transferencias",
  "abi": [
    {
      "constant": true,
      "inputs": [
        {
          "name": "",
          "type": "uint256"
        }
      ],
      "name": "bancos",
      "outputs": [
        {
          "name": "",
          "type": "address"
        }
      ],
      "payable": false,
      "stateMutability": "view",
      "type": "function",
      "signature": "0x213dee1b"
    },
    {
      "constant": true,
      "inputs": [],
      "name": "ownerAcc",
      "outputs": [
        {
          "name": "",
          "type": "address"
        }
      ],
      "payable": false,
      "stateMutability": "view",
      "type": "function",
      "signature": "0x4826dd40"
    },
    {
      "constant": true,
      "inputs": [],
      "name": "owner2",
      "outputs": [
        {
          "name": "",
          "type": "bytes32"
        }
      ],
      "payable": false,
      "stateMutability": "view",
      "type": "function",
      "signature": "0x52709725"
    },
    {
      "constant": true,
      "inputs": [
        {
          "name": "",
          "type": "uint256"
        }
      ],
      "name": "equipas",
      "outputs": [
        {
          "name": "",
          "type": "address"
        }
      ],
      "payable": false,
      "stateMutability": "view",
      "type": "function",
      "signature": "0x6d73b6db"
    },
    {
      "constant": true,
      "inputs": [],
      "name": "owner",
      "outputs": [
        {
          "name": "",
          "type": "string"
        }
      ],
      "payable": false,
      "stateMutability": "view",
      "type": "function",
      "signature": "0x8da5cb5b"
    },
    {
      "constant": true,
      "inputs": [
        {
          "name": "",
          "type": "uint256"
        }
      ],
      "name": "federacao",
      "outputs": [
        {
          "name": "",
          "type": "address"
        }
      ],
      "payable": false,
      "stateMutability": "view",
      "type": "function",
      "signature": "0xf47ff894"
    },
    {
      "inputs": [],
      "payable": false,
      "stateMutability": "nonpayable",
      "type": "constructor",
      "signature": "constructor"
    },
    {
      "anonymous": false,
      "inputs": [
        {
          "indexed": false,
          "name": "id",
          "type": "bytes32"
        },
        {
          "indexed": false,
          "name": "estadoFatura",
          "type": "uint256"
        }
      ],
      "name": "nextStage",
      "type": "event",
      "signature": "0x4980b43cd586effec33cc3e33bd9fef4e8a2274eb7718d1d267a1cce125c7017"
    },
    {
      "anonymous": false,
      "inputs": [
        {
          "indexed": false,
          "name": "equipa",
          "type": "address"
        }
      ],
      "name": "addEquipa",
      "type": "event",
      "signature": "0x04977f35dcc04f0686d9473725138e6d0f4affbc79c276ce72856c7f8bbd22c4"
    },
    {
      "anonymous": false,
      "inputs": [
        {
          "indexed": false,
          "name": "banco",
          "type": "address"
        }
      ],
      "name": "addBanco",
      "type": "event",
      "signature": "0x1c45079182c8d9e0bda520cf306250349401df9e34b61dd0458c303a3e94ea63"
    },
    {
      "constant": false,
      "inputs": [
        {
          "name": "valor",
          "type": "uint256"
        },
        {
          "name": "emitData",
          "type": "string"
        },
        {
          "name": "hash",
          "type": "bytes32"
        }
      ],
      "name": "adicionaFatura",
      "outputs": [],
      "payable": false,
      "stateMutability": "nonpayable",
      "type": "function",
      "signature": "0xca850d19"
    },
    {
      "constant": false,
      "inputs": [
        {
          "name": "teste",
          "type": "string"
        },
        {
          "name": "valor",
          "type": "bytes32"
        },
        {
          "name": "hash",
          "type": "bytes32"
        }
      ],
      "name": "testarS",
      "outputs": [],
      "payable": false,
      "stateMutability": "nonpayable",
      "type": "function",
      "signature": "0x399c929a"
    },
    {
      "constant": false,
      "inputs": [
        {
          "name": "hash",
          "type": "bytes32"
        }
      ],
      "name": "recebeFatura",
      "outputs": [],
      "payable": false,
      "stateMutability": "nonpayable",
      "type": "function",
      "signature": "0x8d3ce961"
    },
    {
      "constant": false,
      "inputs": [
        {
          "name": "hash",
          "type": "bytes32"
        },
        {
          "name": "aceitar",
          "type": "bool"
        }
      ],
      "name": "validaFatura",
      "outputs": [],
      "payable": false,
      "stateMutability": "nonpayable",
      "type": "function",
      "signature": "0x141883cc"
    },
    {
      "constant": false,
      "inputs": [
        {
          "name": "hash",
          "type": "bytes32"
        }
      ],
      "name": "pagaFatura",
      "outputs": [],
      "payable": false,
      "stateMutability": "nonpayable",
      "type": "function",
      "signature": "0x896291d9"
    },
    {
      "constant": false,
      "inputs": [
        {
          "name": "hash",
          "type": "bytes32"
        }
      ],
      "name": "validaPagamento",
      "outputs": [],
      "payable": false,
      "stateMutability": "nonpayable",
      "type": "function",
      "signature": "0x5bc2bcc9"
    },
    {
      "constant": false,
      "inputs": [
        {
          "name": "hash",
          "type": "bytes32"
        }
      ],
      "name": "pagaPercentagem",
      "outputs": [],
      "payable": false,
      "stateMutability": "nonpayable",
      "type": "function",
      "signature": "0x1ef57d81"
    },
    {
      "constant": true,
      "inputs": [
        {
          "name": "hash",
          "type": "bytes32"
        }
      ],
      "name": "getEstado",
      "outputs": [
        {
          "name": "estado",
          "type": "uint256"
        }
      ],
      "payable": false,
      "stateMutability": "view",
      "type": "function",
      "signature": "0x845da51d"
    },
    {
      "constant": false,
      "inputs": [
        {
          "name": "add",
          "type": "address"
        }
      ],
      "name": "adicionarEquipa",
      "outputs": [],
      "payable": false,
      "stateMutability": "nonpayable",
      "type": "function",
      "signature": "0x898c6ee5"
    },
    {
      "constant": false,
      "inputs": [
        {
          "name": "add",
          "type": "address"
        }
      ],
      "name": "adicionarBanco",
      "outputs": [],
      "payable": false,
      "stateMutability": "nonpayable",
      "type": "function",
      "signature": "0x28b05552"
    },
    {
      "constant": true,
      "inputs": [],
      "name": "getTeamsLength",
      "outputs": [
        {
          "name": "count",
          "type": "uint256"
        }
      ],
      "payable": false,
      "stateMutability": "view",
      "type": "function",
      "signature": "0x80fe6c3a"
    },
    {
      "constant": true,
      "inputs": [],
      "name": "getBanksLength",
      "outputs": [
        {
          "name": "count",
          "type": "uint256"
        }
      ],
      "payable": false,
      "stateMutability": "view",
      "type": "function",
      "signature": "0x1b3ebe3b"
    },
    {
      "constant": true,
      "inputs": [],
      "name": "getFederationsLength",
      "outputs": [
        {
          "name": "count",
          "type": "uint256"
        }
      ],
      "payable": false,
      "stateMutability": "view",
      "type": "function",
      "signature": "0x3267ea06"
    },
    {
      "constant": true,
      "inputs": [
        {
          "name": "add",
          "type": "address"
        }
      ],
      "name": "isMember",
      "outputs": [
        {
          "name": "res",
          "type": "bool"
        }
      ],
      "payable": false,
      "stateMutability": "view",
      "type": "function",
      "signature": "0xa230c524"
    }
  ],
  "bytecode": "0x60806040523480156200001157600080fd5b506040805180820190915260088082527f7072696d6569726f00000000000000000000000000000000000000000000000060209092019182526200005891600491620001be565b506200009f6040518060400160405280600881526020017f7072696d6569726f0000000000000000000000000000000000000000000000008152506200014560201b60201c565b600555600380546001600160a01b03199081167324bf0ffc4daf52b0df27640882e202b0aad98b111790915560008054600181810183558280527f290decd9548b62a8d60345a988386fc84ba6bc95484008f6362f93160ef3e56391820180548516731fb4c08aea29a6642d8c963f1ca01c15c63385bc179055825490810190925501805490911673db254afdcacea500c4f7449c4b9f9da3e1224f8117905562000263565b6000816040516020018082805190602001908083835b602083106200017c5780518252601f1990920191602091820191016200015b565b6001836020036101000a038019825116818451168082178552505050505050905001915050604051602081830303815290604052805190602001209050919050565b828054600181600116156101000203166002900490600052602060002090601f016020900481019282601f106200020157805160ff191683800117855562000231565b8280016001018555821562000231579182015b828111156200023157825182559160200191906001019062000214565b506200023f92915062000243565b5090565b6200026091905b808211156200023f57600081556001016200024a565b90565b61125780620002736000396000f3fe608060405234801561001057600080fd5b506004361061012c5760003560e01c80636d73b6db116100ad5780638d3ce961116100715780638d3ce9611461034b5780638da5cb5b14610368578063a230c524146103e5578063ca850d191461041f578063f47ff894146104ce5761012c565b80636d73b6db146102c657806380fe6c3a146102e3578063845da51d146102eb578063896291d914610308578063898c6ee5146103255761012c565b80633267ea06116100f45780633267ea0614610158578063399c929a146101ee5780634826dd401461029957806352709725146102a15780635bc2bcc9146102a95761012c565b8063141883cc146101315780631b3ebe3b146101585780631ef57d8114610172578063213dee1b1461018f57806328b05552146101c8575b600080fd5b6101566004803603604081101561014757600080fd5b508035906020013515156104eb565b005b6101606105f3565b60408051918252519081900360200190f35b6101566004803603602081101561018857600080fd5b503561064d565b6101ac600480360360208110156101a557600080fd5b5035610737565b604080516001600160a01b039092168252519081900360200190f35b610156600480360360208110156101de57600080fd5b50356001600160a01b031661075e565b6101566004803603606081101561020457600080fd5b81019060208101813564010000000081111561021f57600080fd5b82018360208201111561023157600080fd5b8035906020019184600183028401116401000000008311171561025357600080fd5b91908080601f016020809104026020016040519081016040528093929190818152602001838380828437600092019190915250929550508235935050506020013561088f565b6101ac6108dd565b6101606108ec565b610156600480360360208110156102bf57600080fd5b50356108f2565b6101ac600480360360208110156102dc57600080fd5b50356109dc565b6101606109e9565b6101606004803603602081101561030157600080fd5b5035610a42565b6101566004803603602081101561031e57600080fd5b5035610b7d565b6101566004803603602081101561033b57600080fd5b50356001600160a01b0316610c67565b6101566004803603602081101561036157600080fd5b5035610d96565b610370610e7e565b6040805160208082528351818301528351919283929083019185019080838360005b838110156103aa578181015183820152602001610392565b50505050905090810190601f1680156103d75780820380516001836020036101000a031916815260200191505b509250505060405180910390f35b61040b600480360360208110156103fb57600080fd5b50356001600160a01b0316610f0c565b604080519115158252519081900360200190f35b6101566004803603606081101561043557600080fd5b8135919081019060408101602082013564010000000081111561045757600080fd5b82018360208201111561046957600080fd5b8035906020019184600183028401116401000000008311171561048b57600080fd5b91908080601f0160208091040260200160405190810160405280939291908181526020018383808284376000920191909152509295505091359250610f53915050565b6101ac600480360360208110156104e457600080fd5b503561100c565b6104f433610f0c565b151560011461053b5760408051600160e51b62461bcd028152602060048201526016602482015260008051602061120c833981519152604482015290519081900360640190fd5b6000828152600760205260409020600290810154146105925760408051600160e51b62461bcd02815260206004820152601760248201526000805160206111cc833981519152604482015290519081900360640190fd5b80156105b357600082815260076020526040902060036002909101556105c6565b6000828152600760205260408120600201555b604080518381526003602082015281516000805160206111ec833981519152929181900390910190a15050565b60006105fe33610f0c565b15156001146106455760408051600160e51b62461bcd028152602060048201526016602482015260008051602061120c833981519152604482015290519081900360640190fd5b506001545b90565b61065633610f0c565b151560011461069d5760408051600160e51b62461bcd028152602060048201526016602482015260008051602061120c833981519152604482015290519081900360640190fd5b6000818152600760205260409020600201546005146106f45760408051600160e51b62461bcd02815260206004820152601760248201526000805160206111cc833981519152604482015290519081900360640190fd5b6000818152600760209081526040918290206006600290910181905582518481529182015281516000805160206111ec833981519152929181900390910190a150565b6001818154811061074457fe5b6000918252602090912001546001600160a01b0316905081565b6003546001600160a01b031633146107ae5760408051600160e51b62461bcd028152602060048201526016602482015260008051602061120c833981519152604482015290519081900360640190fd5b6107b781610f0c565b1561080c5760408051600160e51b62461bcd02815260206004820152601660248201527f4163636f756e7420616c726561647920696e2075736500000000000000000000604482015290519081900360640190fd5b6001805480820182556000919091527fb10e2d527612073b26eecdfd717e6a320cf44b4afac2b0732d9fcbe2b7fa0cf60180546001600160a01b0383166001600160a01b0319909116811790915560408051918252517f1c45079182c8d9e0bda520cf306250349401df9e34b61dd0458c303a3e94ea639181900360200190a150565b604080517f307832344246306666433430326230414164393842313100000000000000000081526001602082015281516000805160206111ec833981519152929181900390910190a1505050565b6003546001600160a01b031681565b60055481565b6108fb33610f0c565b15156001146109425760408051600160e51b62461bcd028152602060048201526016602482015260008051602061120c833981519152604482015290519081900360640190fd5b6000818152600760205260409020600201546004146109995760408051600160e51b62461bcd02815260206004820152601760248201526000805160206111cc833981519152604482015290519081900360640190fd5b6000818152600760209081526040918290206005600290910181905582518481529182015281516000805160206111ec833981519152929181900390910190a150565b6000818154811061074457fe5b60006109f433610f0c565b1515600114610a3b5760408051600160e51b62461bcd028152602060048201526016602482015260008051602061120c833981519152604482015290519081900360640190fd5b5060005490565b6000610a4d33610f0c565b1515600114610a945760408051600160e51b62461bcd028152602060048201526016602482015260008051602061120c833981519152604482015290519081900360640190fd5b610a9c611112565b6007600084815260200190815260200160002060405180606001604052908160008201548152602001600182018054600181600116156101000203166002900480601f016020809104026020016040519081016040528092919081815260200182805460018160011615610100020316600290048015610b5d5780601f10610b3257610100808354040283529160200191610b5d565b820191906000526020600020905b815481529060010190602001808311610b4057829003601f168201915b505050918352505060029190910154602090910152604001519392505050565b610b8633610f0c565b1515600114610bcd5760408051600160e51b62461bcd028152602060048201526016602482015260008051602061120c833981519152604482015290519081900360640190fd5b600081815260076020526040902060020154600314610c245760408051600160e51b62461bcd02815260206004820152601760248201526000805160206111cc833981519152604482015290519081900360640190fd5b6000818152600760209081526040918290206004600290910181905582518481529182015281516000805160206111ec833981519152929181900390910190a150565b6003546001600160a01b03163314610cb75760408051600160e51b62461bcd028152602060048201526016602482015260008051602061120c833981519152604482015290519081900360640190fd5b610cc081610f0c565b15610d155760408051600160e51b62461bcd02815260206004820152601660248201527f4163636f756e7420616c726561647920696e2075736500000000000000000000604482015290519081900360640190fd5b600080546001810182559080527f290decd9548b62a8d60345a988386fc84ba6bc95484008f6362f93160ef3e5630180546001600160a01b0383166001600160a01b0319909116811790915560408051918252517f04977f35dcc04f0686d9473725138e6d0f4affbc79c276ce72856c7f8bbd22c49181900360200190a150565b610d9f33610f0c565b1515600114610de65760408051600160e51b62461bcd028152602060048201526016602482015260008051602061120c833981519152604482015290519081900360640190fd5b600081815260076020526040902060020154600114610e3d5760408051600160e51b62461bcd02815260206004820152601760248201526000805160206111cc833981519152604482015290519081900360640190fd5b600081815260076020908152604091829020600290810181905582518481529182015281516000805160206111ec833981519152929181900390910190a150565b6004805460408051602060026001851615610100026000190190941693909304601f81018490048402820184019092528181529291830182828015610f045780601f10610ed957610100808354040283529160200191610f04565b820191906000526020600020905b815481529060010190602001808311610ee757829003601f168201915b505050505081565b6000610f1782611019565b80610f265750610f2682611070565b80610f355750610f35826110c1565b80610f4d57506003546001600160a01b038381169116145b92915050565b610f5b611112565b506040805160608101825284815260208082018581526001838501819052600680548083019091557ff652222313e28459528d920b65115c16c04f3efc82aaedc97be59f3f377c0d3f01869055600086815260078452949094208351815590518051939485949293610fd293918501920190611133565b5060409182015160029091015580518381526001602082015281516000805160206111ec833981519152929181900390910190a150505050565b6002818154811061074457fe5b6000805b60005481101561106a57826001600160a01b03166000828154811061103e57fe5b6000918252602090912001546001600160a01b03161415611062576001915061106a565b60010161101d565b50919050565b6000805b60015481101561106a57826001600160a01b03166001828154811061109557fe5b6000918252602090912001546001600160a01b031614156110b9576001915061106a565b600101611074565b6000805b60025481101561106a57826001600160a01b0316600082815481106110e657fe5b6000918252602090912001546001600160a01b0316141561110a576001915061106a565b6001016110c5565b60405180606001604052806000815260200160608152602001600081525090565b828054600181600116156101000203166002900490600052602060002090601f016020900481019282601f1061117457805160ff19168380011785556111a1565b828001600101855582156111a1579182015b828111156111a1578251825591602001919060010190611186565b506111ad9291506111b1565b5090565b61064a91905b808211156111ad57600081556001016111b756fe4f7065726174696f6e206e6f7420617661696c61626c650000000000000000004980b43cd586effec33cc3e33bd9fef4e8a2274eb7718d1d267a1cce125c701753656e646572206e6f7420617574686f72697a65642e00000000000000000000a165627a7a723058202c0e9fdd2a584584fe9366a8bbce9fb2178b6aa194ae5e0d7e7436afc22ff7950029",
  "source": "pragma solidity ^0.5.0;\n\ncontract Transferencias {\n\n    address[] public equipas;\n    address[] public bancos;\n    address[] public federacao;\n    address public ownerAcc;\n    string public owner;\n    bytes32 public owner2;\n\n    struct Fatura{\n        uint valorTotal;\n        string data;\n        uint estadoVenda;\n    }\n\n    bytes32[] KeysFaturas;\n    mapping (bytes32 => Fatura) transacoes;\n    \n    //eventos teste \n    event nextStage(\n       bytes32 id,\n       uint estadoFatura\n    );\n\n    event addEquipa(\n       address equipa\n    );\n\n    event addBanco(\n       address banco\n    );\n    \n    /// The smart contract's constructor\n    constructor() public {\n        owner = \"primeiro\";\n        owner2 = calculateHash(\"primeiro\");\n        ownerAcc = 0x24BF0ffC4daf52B0df27640882E202b0AAd98B11;\n        \n        //adicionar os participantes\n        equipas.push(0x1Fb4C08AeA29A6642D8C963F1ca01c15C63385bc);\n        equipas.push(0xdB254AFdcaCEa500C4f7449c4b9F9DA3e1224F81);\n\n    }\n\n    function adicionaFatura(uint valor, string memory emitData, bytes32 hash) public {\n       // require(isMember(msg.sender) == true,\"Sender not authorized.\");\n        \n        Fatura memory myStruct = Fatura({valorTotal:valor, data:emitData, estadoVenda:1});\n        KeysFaturas.push(hash);\n        transacoes[hash] = myStruct;\n        emit nextStage(hash,1);\n    }\n\n    function testarS(string memory teste, bytes32 valor, bytes32 hash)public {\n        emit nextStage(\"0x24BF0ffC402b0AAd98B11\",1);\n        \n    }\n\n    function recebeFatura(bytes32 hash) public{\n        require(isMember(msg.sender) == true,\"Sender not authorized.\");\n        require(transacoes[hash].estadoVenda == 1, \"Operation not available\");\n            \n        transacoes[hash].estadoVenda = 2;  \n        emit nextStage(hash,2);      \n    }\n\n    function validaFatura(bytes32 hash, bool aceitar) public{\n        require(isMember(msg.sender) == true,\"Sender not authorized.\");\n        require(transacoes[hash].estadoVenda == 2, \"Operation not available\");\n        \n        if(aceitar)\n            transacoes[hash].estadoVenda = 3; \n        else\n            transacoes[hash].estadoVenda = 0; \n        emit nextStage(hash,3);\n    }\n\n    function pagaFatura(bytes32 hash) public{\n        require(isMember(msg.sender) == true,\"Sender not authorized.\");\n        require(transacoes[hash].estadoVenda == 3, \"Operation not available\");\n        \n        transacoes[hash].estadoVenda = 4;  \n        emit nextStage(hash,4);\n    }\n\n\n    function validaPagamento(bytes32 hash) public{\n        require(isMember(msg.sender) == true,\"Sender not authorized.\");\n        require(transacoes[hash].estadoVenda == 4, \"Operation not available\");\n            \n        transacoes[hash].estadoVenda = 5;  \n        emit nextStage(hash,5);\n    }\n\n\n    function pagaPercentagem(bytes32 hash) public{\n        require(isMember(msg.sender) == true,\"Sender not authorized.\");    \n        require(transacoes[hash].estadoVenda == 5, \"Operation not available\");\n\n        transacoes[hash].estadoVenda = 6;  \n        emit nextStage(hash,6);\n    }\n\n\n    function getEstado(bytes32 hash) public view returns (uint estado) {\n        require(isMember(msg.sender) == true,\"Sender not authorized.\");\n        Fatura memory fatura = transacoes[hash];\n        return fatura.estadoVenda;\n    }\n\n    function adicionarEquipa(address add) public{\n        require(msg.sender == ownerAcc, \"Sender not authorized.\");\n        require(!isMember(add), \"Account already in use\");\n        equipas.push(add);\n        emit addEquipa(add); \n    }\n\n    function adicionarBanco(address add) public{\n        require(msg.sender == ownerAcc, \"Sender not authorized.\");\n        require(!isMember(add), \"Account already in use\");\n        bancos.push(add);\n        emit addBanco(add); \n    }\n\n    function getTeamsLength() public view returns (uint count) {\n        require(isMember(msg.sender) == true,\"Sender not authorized.\");\n        return equipas.length;\n    }\n\n    function getBanksLength() public view returns (uint count) {\n        require(isMember(msg.sender) == true,\"Sender not authorized.\");\n        return bancos.length;\n    }\n\n    function getFederationsLength() public view returns (uint count) {\n        require(isMember(msg.sender) == true,\"Sender not authorized.\");\n        return bancos.length;\n    }\n\n    function calculateHash(string memory s ) internal pure returns (bytes32 res) {\n        return keccak256(abi.encodePacked(s));\n    }\n\n    function isTeam(address add) private view returns (bool res) {\n        res=false;\n        for (uint i=0; i<equipas.length; i++) {\n            if (equipas[i] == add) {\n                res=true;\n                break;\n            }\n        }\n        return res;\n    }\n\n    function isBank(address add) private view returns (bool res) {\n        res=false;\n        for (uint i=0; i<bancos.length; i++) {\n            if (bancos[i] == add) {\n                res=true;\n                break;\n            }\n        }\n        return res;\n    }\n\n    function isFederation(address add) private view returns (bool res) {\n        res=false;\n        for (uint i=0; i<federacao.length; i++) {\n            if (equipas[i] == add) {\n                res=true;\n                break;\n            }\n        }\n        return res;\n    }\n\n    function isMember(address add) public view returns (bool res) {\n        return (isTeam(add) || isBank(add) || isFederation(add) || add == ownerAcc);\n    }\n\n}\n",
  "sourcePath": "/home/pc/Desktop/2semestre/Eng_seg/BlockchainProject/vueProject/vuebox/contracts/Transferencias.sol",
  "compiler": {
    "name": "solc",
    "version": "0.5.7+commit.6da8b019.Emscripten.clang"
  },
  "schemaVersion": "3.0.0-beta.2",
  "updatedAt": "2019-04-29T06:58:24.650Z",
  "devdoc": {
    "methods": {}
  },
  "userdoc": {
    "methods": {
      "constructor": "The smart contract's constructor"
    }
  }
}