{
  "contractName": "Transferencias",
  "abi": [
    {
      "constant": true,
      "inputs": [
        {
          "name": "",
          "type": "uint256"
        }
      ],
      "name": "bancos",
      "outputs": [
        {
          "name": "",
          "type": "address"
        }
      ],
      "payable": false,
      "stateMutability": "view",
      "type": "function",
      "signature": "0x213dee1b"
    },
    {
      "constant": true,
      "inputs": [],
      "name": "ownerAcc",
      "outputs": [
        {
          "name": "",
          "type": "address"
        }
      ],
      "payable": false,
      "stateMutability": "view",
      "type": "function",
      "signature": "0x4826dd40"
    },
    {
      "constant": true,
      "inputs": [],
      "name": "owner2",
      "outputs": [
        {
          "name": "",
          "type": "bytes32"
        }
      ],
      "payable": false,
      "stateMutability": "view",
      "type": "function",
      "signature": "0x52709725"
    },
    {
      "constant": true,
      "inputs": [
        {
          "name": "",
          "type": "uint256"
        }
      ],
      "name": "equipas",
      "outputs": [
        {
          "name": "",
          "type": "address"
        }
      ],
      "payable": false,
      "stateMutability": "view",
      "type": "function",
      "signature": "0x6d73b6db"
    },
    {
      "constant": true,
      "inputs": [],
      "name": "owner",
      "outputs": [
        {
          "name": "",
          "type": "string"
        }
      ],
      "payable": false,
      "stateMutability": "view",
      "type": "function",
      "signature": "0x8da5cb5b"
    },
    {
      "constant": true,
      "inputs": [
        {
          "name": "",
          "type": "uint256"
        }
      ],
      "name": "federacao",
      "outputs": [
        {
          "name": "",
          "type": "address"
        }
      ],
      "payable": false,
      "stateMutability": "view",
      "type": "function",
      "signature": "0xf47ff894"
    },
    {
      "inputs": [],
      "payable": false,
      "stateMutability": "nonpayable",
      "type": "constructor",
      "signature": "constructor"
    },
    {
      "anonymous": false,
      "inputs": [
        {
          "indexed": false,
          "name": "name",
          "type": "string"
        },
        {
          "indexed": false,
          "name": "age",
          "type": "uint256"
        }
      ],
      "name": "Exemplo",
      "type": "event",
      "signature": "0x9248a77bbe413ca7fda21b9e18cbd8bcebfaf4236c06a66f70a3fe6296a297e7"
    },
    {
      "constant": false,
      "inputs": [
        {
          "name": "valor",
          "type": "uint256"
        },
        {
          "name": "emitData",
          "type": "string"
        },
        {
          "name": "hash",
          "type": "bytes32"
        }
      ],
      "name": "adicionaFatura",
      "outputs": [],
      "payable": false,
      "stateMutability": "nonpayable",
      "type": "function",
      "signature": "0xca850d19"
    },
    {
      "constant": false,
      "inputs": [
        {
          "name": "hash",
          "type": "bytes32"
        }
      ],
      "name": "recebeFatura",
      "outputs": [],
      "payable": false,
      "stateMutability": "nonpayable",
      "type": "function",
      "signature": "0x8d3ce961"
    },
    {
      "constant": false,
      "inputs": [
        {
          "name": "hash",
          "type": "bytes32"
        },
        {
          "name": "aceitar",
          "type": "bool"
        }
      ],
      "name": "validaFatura",
      "outputs": [],
      "payable": false,
      "stateMutability": "nonpayable",
      "type": "function",
      "signature": "0x141883cc"
    },
    {
      "constant": false,
      "inputs": [
        {
          "name": "hash",
          "type": "bytes32"
        }
      ],
      "name": "pagaFatura",
      "outputs": [],
      "payable": false,
      "stateMutability": "nonpayable",
      "type": "function",
      "signature": "0x896291d9"
    },
    {
      "constant": false,
      "inputs": [
        {
          "name": "hash",
          "type": "bytes32"
        }
      ],
      "name": "validaPagamento",
      "outputs": [],
      "payable": false,
      "stateMutability": "nonpayable",
      "type": "function",
      "signature": "0x5bc2bcc9"
    },
    {
      "constant": false,
      "inputs": [
        {
          "name": "hash",
          "type": "bytes32"
        }
      ],
      "name": "pagaPercentagem",
      "outputs": [],
      "payable": false,
      "stateMutability": "nonpayable",
      "type": "function",
      "signature": "0x1ef57d81"
    },
    {
      "constant": true,
      "inputs": [
        {
          "name": "hash",
          "type": "bytes32"
        }
      ],
      "name": "getEstado",
      "outputs": [
        {
          "name": "estado",
          "type": "uint256"
        }
      ],
      "payable": false,
      "stateMutability": "view",
      "type": "function",
      "signature": "0x845da51d"
    },
    {
      "constant": false,
      "inputs": [],
      "name": "adicionarEquipa",
      "outputs": [],
      "payable": false,
      "stateMutability": "nonpayable",
      "type": "function",
      "signature": "0xdee151f3"
    },
    {
      "constant": false,
      "inputs": [],
      "name": "adicionarBanco",
      "outputs": [],
      "payable": false,
      "stateMutability": "nonpayable",
      "type": "function",
      "signature": "0x5e5cc1a8"
    },
    {
      "constant": true,
      "inputs": [],
      "name": "getTeamsLength",
      "outputs": [
        {
          "name": "count",
          "type": "uint256"
        }
      ],
      "payable": false,
      "stateMutability": "view",
      "type": "function",
      "signature": "0x80fe6c3a"
    },
    {
      "constant": true,
      "inputs": [],
      "name": "getBanksLength",
      "outputs": [
        {
          "name": "count",
          "type": "uint256"
        }
      ],
      "payable": false,
      "stateMutability": "view",
      "type": "function",
      "signature": "0x1b3ebe3b"
    }
  ],
  "bytecode": "0x60806040523480156200001157600080fd5b506040805180820190915260088082527f7072696d6569726f00000000000000000000000000000000000000000000000060209092019182526200005891600491620001a2565b5060408051808201909152600881527f7072696d6569726f0000000000000000000000000000000000000000000000006020820152620000a19064010000000062000129810204565b60055560008054600181810183558280527f290decd9548b62a8d60345a988386fc84ba6bc95484008f6362f93160ef3e5639182018054600160a060020a0319908116731fb4c08aea29a6642d8c963f1ca01c15c63385bc17909155835491820190935501805490911673db254afdcacea500c4f7449c4b9f9da3e1224f8117905562000247565b6000816040516020018082805190602001908083835b60208310620001605780518252601f1990920191602091820191016200013f565b6001836020036101000a038019825116818451168082178552505050505050905001915050604051602081830303815290604052805190602001209050919050565b828054600181600116156101000203166002900490600052602060002090601f016020900481019282601f10620001e557805160ff191683800117855562000215565b8280016001018555821562000215579182015b8281111562000215578251825591602001919060010190620001f8565b506200022392915062000227565b5090565b6200024491905b808211156200022357600081556001016200022e565b90565b610f1f80620002576000396000f3fe6080604052600436106100f05763ffffffff7c0100000000000000000000000000000000000000000000000000000000600035041663141883cc81146100f55780631b3ebe3b146101295780631ef57d8114610150578063213dee1b1461017a5780634826dd40146101c057806352709725146101d55780635bc2bcc9146101ea5780635e5cc1a8146102145780636d73b6db1461022957806380fe6c3a14610253578063845da51d14610268578063896291d9146102925780638d3ce961146102bc5780638da5cb5b146102e6578063ca850d1914610370578063dee151f31461042c578063f47ff89414610441575b600080fd5b34801561010157600080fd5b506101276004803603604081101561011857600080fd5b5080359060200135151561046b565b005b34801561013557600080fd5b5061013e61050d565b60408051918252519081900360200190f35b34801561015c57600080fd5b506101276004803603602081101561017357600080fd5b5035610567565b34801561018657600080fd5b506101a46004803603602081101561019d57600080fd5b50356105eb565b60408051600160a060020a039092168252519081900360200190f35b3480156101cc57600080fd5b506101a4610613565b3480156101e157600080fd5b5061013e610622565b3480156101f657600080fd5b506101276004803603602081101561020d57600080fd5b5035610628565b34801561022057600080fd5b506101276106aa565b34801561023557600080fd5b506101a46004803603602081101561024c57600080fd5b50356107b0565b34801561025f57600080fd5b5061013e6107be565b34801561027457600080fd5b5061013e6004803603602081101561028b57600080fd5b5035610817565b34801561029e57600080fd5b50610127600480360360208110156102b557600080fd5b5035610953565b3480156102c857600080fd5b50610127600480360360208110156102df57600080fd5b50356109d5565b3480156102f257600080fd5b506102fb610a55565b6040805160208082528351818301528351919283929083019185019080838360005b8381101561033557818101518382015260200161031d565b50505050905090810190601f1680156103625780820380516001836020036101000a031916815260200191505b509250505060405180910390f35b34801561037c57600080fd5b506101276004803603606081101561039357600080fd5b813591908101906040810160208201356401000000008111156103b557600080fd5b8201836020820111156103c757600080fd5b803590602001918460018302840111640100000000831117156103e957600080fd5b91908080601f0160208091040260200160405190810160405280939291908181526020018383808284376000920191909152509295505091359250610ae3915050565b34801561043857600080fd5b50610127610bd9565b34801561044d57600080fd5b506101a46004803603602081101561046457600080fd5b5035610cdd565b61047433610ceb565b15156001146104bb576040805160e560020a62461bcd0281526020600482015260166024820152600080516020610ed4833981519152604482015290519081900360640190fd5b600082815260076020526040902060029081015414156105095780156104f65760008281526007602052604090206003600290910155610509565b6000828152600760205260408120600201555b5050565b600061051833610d44565b151560011461055f576040805160e560020a62461bcd0281526020600482015260166024820152600080516020610ed4833981519152604482015290519081900360640190fd5b506001545b90565b61057033610ceb565b15156001146105b7576040805160e560020a62461bcd0281526020600482015260166024820152600080516020610ed4833981519152604482015290519081900360640190fd5b600081815260076020526040902060020154600514156105e857600081815260076020526040902060066002909101555b50565b60018054829081106105f957fe5b600091825260209091200154600160a060020a0316905081565b600354600160a060020a031681565b60055481565b61063133610d73565b1515600114610678576040805160e560020a62461bcd0281526020600482015260166024820152600080516020610ed4833981519152604482015290519081900360640190fd5b600081815260076020526040902060020154600414156105e85760009081526007602052604090206005600290910155565b600354600160a060020a031633146106fa576040805160e560020a62461bcd0281526020600482015260166024820152600080516020610ed4833981519152604482015290519081900360640190fd5b6001805480820182556000919091527fb10e2d527612073b26eecdfd717e6a320cf44b4afac2b0732d9fcbe2b7fa0cf601805473ffffffffffffffffffffffffffffffffffffffff19163317905560408051607b60208201528181526003818301527f6f6c610000000000000000000000000000000000000000000000000000000000606082015290517f9248a77bbe413ca7fda21b9e18cbd8bcebfaf4236c06a66f70a3fe6296a297e79181900360800190a1565b60008054829081106105f957fe5b60006107c933610d44565b1515600114610810576040805160e560020a62461bcd0281526020600482015260166024820152600080516020610ed4833981519152604482015290519081900360640190fd5b5060005490565b600061082233610d44565b1515600114610869576040805160e560020a62461bcd0281526020600482015260166024820152600080516020610ed4833981519152604482015290519081900360640190fd5b610871610e19565b600760008481526020019081526020016000206060604051908101604052908160008201548152602001600182018054600181600116156101000203166002900480601f0160208091040260200160405190810160405280929190818152602001828054600181600116156101000203166002900480156109335780601f1061090857610100808354040283529160200191610933565b820191906000526020600020905b81548152906001019060200180831161091657829003601f168201915b505050918352505060029190910154602090910152604001519392505050565b61095c33610ceb565b15156001146109a3576040805160e560020a62461bcd0281526020600482015260166024820152600080516020610ed4833981519152604482015290519081900360640190fd5b600081815260076020526040902060020154600314156105e85760009081526007602052604090206004600290910155565b6109de33610ceb565b1515600114610a25576040805160e560020a62461bcd0281526020600482015260166024820152600080516020610ed4833981519152604482015290519081900360640190fd5b600081815260076020526040902060020154600114156105e8576000908152600760205260409020600290810155565b6004805460408051602060026001851615610100026000190190941693909304601f81018490048402820184019092528181529291830182828015610adb5780601f10610ab057610100808354040283529160200191610adb565b820191906000526020600020905b815481529060010190602001808311610abe57829003601f168201915b505050505081565b610aeb610e19565b506040805160608101825284815260208082018581526001838501819052600680548083019091557ff652222313e28459528d920b65115c16c04f3efc82aaedc97be59f3f377c0d3f01869055600086815260078452949094208351815590518051939485949293610b6293918501920190610e3b565b506040918201516002909101558051601660208201528181526005818301527f7465737465000000000000000000000000000000000000000000000000000000606082015290517f9248a77bbe413ca7fda21b9e18cbd8bcebfaf4236c06a66f70a3fe6296a297e79181900360800190a150505050565b600354600160a060020a03163314610c29576040805160e560020a62461bcd0281526020600482015260166024820152600080516020610ed4833981519152604482015290519081900360640190fd5b600080546001810182559080527f290decd9548b62a8d60345a988386fc84ba6bc95484008f6362f93160ef3e56301805473ffffffffffffffffffffffffffffffffffffffff19163317905560408051607b60208201528181526003818301527f6f6c610000000000000000000000000000000000000000000000000000000000606082015290517f9248a77bbe413ca7fda21b9e18cbd8bcebfaf4236c06a66f70a3fe6296a297e79181900360800190a1565b60028054829081106105f957fe5b6000805b600054811015610d3e5782600160a060020a0316600082815481101515610d1257fe5b600091825260209091200154600160a060020a03161415610d365760019150610d3e565b600101610cef565b50919050565b6000610d4f82610ceb565b80610d5e5750610d5e82610d73565b80610d6d5750610d6d82610dc6565b92915050565b6000805b600154811015610d3e5782600160a060020a0316600182815481101515610d9a57fe5b600091825260209091200154600160a060020a03161415610dbe5760019150610d3e565b600101610d77565b6000805b600254811015610d3e5782600160a060020a0316600082815481101515610ded57fe5b600091825260209091200154600160a060020a03161415610e115760019150610d3e565b600101610dca565b6060604051908101604052806000815260200160608152602001600081525090565b828054600181600116156101000203166002900490600052602060002090601f016020900481019282601f10610e7c57805160ff1916838001178555610ea9565b82800160010185558215610ea9579182015b82811115610ea9578251825591602001919060010190610e8e565b50610eb5929150610eb9565b5090565b61056491905b80821115610eb55760008155600101610ebf56fe53656e646572206e6f7420617574686f72697a65642e00000000000000000000a165627a7a72305820a09ff5c847c9449e06663c073862b1b66c63c39cd9b25ca132809d0b425b60c20029",
  "source": "pragma solidity ^0.5.0;\n\ncontract Transferencias {\n\n    address[] public equipas;\n    address[] public bancos;\n    address[] public federacao;\n    address public ownerAcc;\n    string public owner;\n    bytes32 public owner2;\n\n    struct Fatura{\n        uint valorTotal;\n        string data;\n        uint estadoVenda;\n    }\n\n    bytes32[] KeysFaturas;\n    mapping (bytes32 => Fatura) transacoes;\n    \n    //eventos teste \n    event Exemplo(\n       string name,\n       uint age\n    );\n    \n    /// The smart contract's constructor\n    constructor() public {\n        owner = \"primeiro\";\n        owner2= calculateHash(\"primeiro\");\n        \n        //adicionar os participantes\n        equipas.push(0x1Fb4C08AeA29A6642D8C963F1ca01c15C63385bc);\n        equipas.push(0xdB254AFdcaCEa500C4f7449c4b9F9DA3e1224F81);\n\n    }\n\n    function adicionaFatura(uint valor, string memory emitData, bytes32 hash) public {\n        //require(isTeam(msg.sender) == true,\"Sender not authorized.\");\n        \n        Fatura memory myStruct = Fatura({valorTotal:valor, data:emitData, estadoVenda:1});\n        KeysFaturas.push(hash);\n        transacoes[hash] = myStruct;\n        emit Exemplo(\"teste\",22);\n    }\n\n    function recebeFatura(bytes32 hash) public{\n        require(isTeam(msg.sender) == true,\"Sender not authorized.\");\n\n        if(transacoes[hash].estadoVenda == 1)\n            transacoes[hash].estadoVenda = 2;        \n    }\n\n    function validaFatura(bytes32 hash, bool aceitar) public{\n        require(isTeam(msg.sender) == true,\"Sender not authorized.\");\n        \n        if(transacoes[hash].estadoVenda == 2)\n            if(aceitar)\n                transacoes[hash].estadoVenda = 3; \n            else\n                transacoes[hash].estadoVenda = 0; \n    }\n\n    function pagaFatura(bytes32 hash) public{\n        require(isTeam(msg.sender) == true,\"Sender not authorized.\");\n        \n        if(transacoes[hash].estadoVenda == 3)\n            transacoes[hash].estadoVenda = 4; \n    }\n\n\n    function validaPagamento(bytes32 hash) public{\n        require(isBank(msg.sender) == true,\"Sender not authorized.\");\n        \n        if(transacoes[hash].estadoVenda == 4)\n            transacoes[hash].estadoVenda = 5; \n    }\n\n\n    function pagaPercentagem(bytes32 hash) public{\n        require(isTeam(msg.sender) == true,\"Sender not authorized.\");\n        \n        if(transacoes[hash].estadoVenda == 5)\n            transacoes[hash].estadoVenda = 6; \n    }\n\n\n    function getEstado(bytes32 hash) public view returns (uint estado) {\n        require(isMember(msg.sender) == true,\"Sender not authorized.\");\n        Fatura memory fatura = transacoes[hash];\n        return fatura.estadoVenda;\n    }\n\n    function adicionarEquipa() public{\n        require(msg.sender == ownerAcc, \"Sender not authorized.\");\n        equipas.push(msg.sender);\n        emit Exemplo(\"ola\",123); \n    }\n\n    function adicionarBanco() public{\n        require(msg.sender == ownerAcc, \"Sender not authorized.\");\n        bancos.push(msg.sender);\n        emit Exemplo(\"ola\",123); \n    }\n\n    function getTeamsLength() public view returns (uint count) {\n        require(isMember(msg.sender) == true,\"Sender not authorized.\");\n        return equipas.length;\n    }\n\n    function getBanksLength() public view returns (uint count) {\n        require(isMember(msg.sender) == true,\"Sender not authorized.\");\n        return bancos.length;\n    }\n\n    function calculateHash(string memory s ) internal pure returns (bytes32 res) {\n        return keccak256(abi.encodePacked(s));\n    }\n\n    function isTeam(address add) private view returns (bool res) {\n        res=false;\n        for (uint i=0; i<equipas.length; i++) {\n            if (equipas[i] == add) {\n                res=true;\n                break;\n            }\n        }\n        return res;\n    }\n\n    function isBank(address add) private view returns (bool res) {\n        res=false;\n        for (uint i=0; i<bancos.length; i++) {\n            if (bancos[i] == add) {\n                res=true;\n                break;\n            }\n        }\n        return res;\n    }\n\n    function isFederation(address add) private view returns (bool res) {\n        res=false;\n        for (uint i=0; i<federacao.length; i++) {\n            if (equipas[i] == add) {\n                res=true;\n                break;\n            }\n        }\n        return res;\n    }\n\n    function isMember(address add) private view returns (bool res) {\n        return (isTeam(add) || isBank(add) || isFederation(add));\n    }\n\n}\n",
  "sourcePath": "/home/ricardo/Desktop/LEI/BlockchainProject/vueProject/vuebox/contracts/Transferencias.sol",
  "compiler": {
    "name": "solc",
    "version": "0.5.0+commit.1d4f565a.Emscripten.clang"
  },
  "schemaVersion": "3.0.8",
  "updatedAt": "2019-04-27T14:56:47.070Z",
  "devdoc": {
    "methods": {}
  },
  "userdoc": {
    "methods": {
      "constructor": "The smart contract's constructor"
    }
  }
}