{
  "contractName": "Transferencias",
  "abi": [
    {
      "constant": true,
      "inputs": [
        {
          "name": "",
          "type": "uint256"
        }
      ],
      "name": "bancos",
      "outputs": [
        {
          "name": "",
          "type": "address"
        }
      ],
      "payable": false,
      "stateMutability": "view",
      "type": "function",
      "signature": "0x213dee1b"
    },
    {
      "constant": true,
      "inputs": [],
      "name": "ownerAcc",
      "outputs": [
        {
          "name": "",
          "type": "address"
        }
      ],
      "payable": false,
      "stateMutability": "view",
      "type": "function",
      "signature": "0x4826dd40"
    },
    {
      "constant": true,
      "inputs": [],
      "name": "owner2",
      "outputs": [
        {
          "name": "",
          "type": "bytes32"
        }
      ],
      "payable": false,
      "stateMutability": "view",
      "type": "function",
      "signature": "0x52709725"
    },
    {
      "constant": true,
      "inputs": [
        {
          "name": "",
          "type": "uint256"
        }
      ],
      "name": "equipas",
      "outputs": [
        {
          "name": "",
          "type": "address"
        }
      ],
      "payable": false,
      "stateMutability": "view",
      "type": "function",
      "signature": "0x6d73b6db"
    },
    {
      "constant": true,
      "inputs": [],
      "name": "owner",
      "outputs": [
        {
          "name": "",
          "type": "string"
        }
      ],
      "payable": false,
      "stateMutability": "view",
      "type": "function",
      "signature": "0x8da5cb5b"
    },
    {
      "constant": true,
      "inputs": [
        {
          "name": "",
          "type": "uint256"
        }
      ],
      "name": "federacao",
      "outputs": [
        {
          "name": "",
          "type": "address"
        }
      ],
      "payable": false,
      "stateMutability": "view",
      "type": "function",
      "signature": "0xf47ff894"
    },
    {
      "inputs": [],
      "payable": false,
      "stateMutability": "nonpayable",
      "type": "constructor",
      "signature": "constructor"
    },
    {
      "anonymous": false,
      "inputs": [
        {
          "indexed": false,
          "name": "id",
          "type": "string"
        },
        {
          "indexed": false,
          "name": "estadoFatura",
          "type": "uint256"
        }
      ],
      "name": "nextStage",
      "type": "event",
      "signature": "0x2dba7dee5f7a8d10f74314fb61055b32a5230e5a471a18e784cbc06cad3b7a0a"
    },
    {
      "anonymous": false,
      "inputs": [
        {
          "indexed": false,
          "name": "equipa",
          "type": "address"
        }
      ],
      "name": "addEquipa",
      "type": "event",
      "signature": "0x04977f35dcc04f0686d9473725138e6d0f4affbc79c276ce72856c7f8bbd22c4"
    },
    {
      "anonymous": false,
      "inputs": [
        {
          "indexed": false,
          "name": "banco",
          "type": "address"
        }
      ],
      "name": "addBanco",
      "type": "event",
      "signature": "0x1c45079182c8d9e0bda520cf306250349401df9e34b61dd0458c303a3e94ea63"
    },
    {
      "constant": false,
      "inputs": [
        {
          "name": "valor",
          "type": "uint256"
        },
        {
          "name": "emitData",
          "type": "string"
        },
        {
          "name": "hash",
          "type": "string"
        }
      ],
      "name": "adicionaFatura",
      "outputs": [],
      "payable": false,
      "stateMutability": "nonpayable",
      "type": "function",
      "signature": "0xa03ad4e8"
    },
    {
      "constant": false,
      "inputs": [
        {
          "name": "teste",
          "type": "string"
        },
        {
          "name": "valor",
          "type": "bytes32"
        },
        {
          "name": "hash",
          "type": "string"
        }
      ],
      "name": "testarS",
      "outputs": [],
      "payable": false,
      "stateMutability": "nonpayable",
      "type": "function",
      "signature": "0x64393cb4"
    },
    {
      "constant": false,
      "inputs": [
        {
          "name": "hash",
          "type": "string"
        }
      ],
      "name": "recebeFatura",
      "outputs": [],
      "payable": false,
      "stateMutability": "nonpayable",
      "type": "function",
      "signature": "0x50ff0146"
    },
    {
      "constant": false,
      "inputs": [
        {
          "name": "hash",
          "type": "string"
        },
        {
          "name": "aceitar",
          "type": "bool"
        }
      ],
      "name": "validaFatura",
      "outputs": [],
      "payable": false,
      "stateMutability": "nonpayable",
      "type": "function",
      "signature": "0x4e336266"
    },
    {
      "constant": false,
      "inputs": [
        {
          "name": "hash",
          "type": "string"
        }
      ],
      "name": "pagaFatura",
      "outputs": [],
      "payable": false,
      "stateMutability": "nonpayable",
      "type": "function",
      "signature": "0x84352180"
    },
    {
      "constant": false,
      "inputs": [
        {
          "name": "hash",
          "type": "string"
        }
      ],
      "name": "validaPagamento",
      "outputs": [],
      "payable": false,
      "stateMutability": "nonpayable",
      "type": "function",
      "signature": "0xa2e2a67d"
    },
    {
      "constant": false,
      "inputs": [
        {
          "name": "hash",
          "type": "string"
        }
      ],
      "name": "pagaPercentagem",
      "outputs": [],
      "payable": false,
      "stateMutability": "nonpayable",
      "type": "function",
      "signature": "0x59d07102"
    },
    {
      "constant": true,
      "inputs": [
        {
          "name": "hash",
          "type": "string"
        }
      ],
      "name": "getEstado",
      "outputs": [
        {
          "name": "estado",
          "type": "uint256"
        }
      ],
      "payable": false,
      "stateMutability": "view",
      "type": "function",
      "signature": "0xecc0a39b"
    },
    {
      "constant": false,
      "inputs": [
        {
          "name": "add",
          "type": "address"
        }
      ],
      "name": "adicionarEquipa",
      "outputs": [],
      "payable": false,
      "stateMutability": "nonpayable",
      "type": "function",
      "signature": "0x898c6ee5"
    },
    {
      "constant": false,
      "inputs": [
        {
          "name": "add",
          "type": "address"
        }
      ],
      "name": "adicionarBanco",
      "outputs": [],
      "payable": false,
      "stateMutability": "nonpayable",
      "type": "function",
      "signature": "0x28b05552"
    },
    {
      "constant": true,
      "inputs": [],
      "name": "getTeamsLength",
      "outputs": [
        {
          "name": "count",
          "type": "uint256"
        }
      ],
      "payable": false,
      "stateMutability": "view",
      "type": "function",
      "signature": "0x80fe6c3a"
    },
    {
      "constant": true,
      "inputs": [],
      "name": "getBanksLength",
      "outputs": [
        {
          "name": "count",
          "type": "uint256"
        }
      ],
      "payable": false,
      "stateMutability": "view",
      "type": "function",
      "signature": "0x1b3ebe3b"
    },
    {
      "constant": true,
      "inputs": [],
      "name": "getFederationsLength",
      "outputs": [
        {
          "name": "count",
          "type": "uint256"
        }
      ],
      "payable": false,
      "stateMutability": "view",
      "type": "function",
      "signature": "0x3267ea06"
    },
    {
      "constant": true,
      "inputs": [
        {
          "name": "add",
          "type": "address"
        }
      ],
      "name": "isMember",
      "outputs": [
        {
          "name": "res",
          "type": "bool"
        }
      ],
      "payable": false,
      "stateMutability": "view",
      "type": "function",
      "signature": "0xa230c524"
    },
    {
      "constant": false,
      "inputs": [
        {
          "name": "a",
          "type": "address"
        },
        {
          "name": "b",
          "type": "address"
        },
        {
          "name": "v",
          "type": "address"
        },
        {
          "name": "f",
          "type": "address"
        },
        {
          "name": "e",
          "type": "bytes32"
        },
        {
          "name": "d",
          "type": "bytes32"
        }
      ],
      "name": "testParams",
      "outputs": [
        {
          "name": "count",
          "type": "uint256"
        }
      ],
      "payable": false,
      "stateMutability": "nonpayable",
      "type": "function",
      "signature": "0xd31723d1"
    }
  ],
  "bytecode": "0x60806040523480156200001157600080fd5b506040805180820190915260088082527f7072696d6569726f00000000000000000000000000000000000000000000000060209092019182526200005891600491620001be565b506200009f6040518060400160405280600881526020017f7072696d6569726f0000000000000000000000000000000000000000000000008152506200014560201b60201c565b600555600380546001600160a01b03199081167324bf0ffc4daf52b0df27640882e202b0aad98b111790915560008054600181810183558280527f290decd9548b62a8d60345a988386fc84ba6bc95484008f6362f93160ef3e56391820180548516731fb4c08aea29a6642d8c963f1ca01c15c63385bc179055825490810190925501805490911673db254afdcacea500c4f7449c4b9f9da3e1224f8117905562000263565b6000816040516020018082805190602001908083835b602083106200017c5780518252601f1990920191602091820191016200015b565b6001836020036101000a038019825116818451168082178552505050505050905001915050604051602081830303815290604052805190602001209050919050565b828054600181600116156101000203166002900490600052602060002090601f016020900481019282601f106200020157805160ff191683800117855562000231565b8280016001018555821562000231579182015b828111156200023157825182559160200191906001019062000214565b506200023f92915062000243565b5090565b6200026091905b808211156200023f57600081556001016200024a565b90565b611ccc80620002736000396000f3fe608060405234801561001057600080fd5b50600436106101375760003560e01c80636d73b6db116100b8578063a03ad4e81161007c578063a03ad4e814610652578063a230c52414610782578063a2e2a67d146107bc578063d31723d114610860578063ecc0a39b146108ac578063f47ff8941461095057610137565b80636d73b6db146104e657806380fe6c3a14610503578063843521801461050b578063898c6ee5146105af5780638da5cb5b146105d557610137565b80634e336266116100ff5780634e336266146101bf57806350ff014614610265578063527097251461030957806359d071021461031157806364393cb4146103b557610137565b80631b3ebe3b1461013c578063213dee1b1461015657806328b055521461018f5780633267ea061461013c5780634826dd40146101b7575b600080fd5b61014461096d565b60408051918252519081900360200190f35b6101736004803603602081101561016c57600080fd5b50356109c7565b604080516001600160a01b039092168252519081900360200190f35b6101b5600480360360208110156101a557600080fd5b50356001600160a01b03166109ee565b005b610173610b1f565b6101b5600480360360408110156101d557600080fd5b810190602081018135600160201b8111156101ef57600080fd5b82018360208201111561020157600080fd5b803590602001918460018302840111600160201b8311171561022257600080fd5b91908080601f0160208091040260200160405190810160405280939291908181526020018383808284376000920191909152509295505050503515159050610b2e565b6101b56004803603602081101561027b57600080fd5b810190602081018135600160201b81111561029557600080fd5b8201836020820111156102a757600080fd5b803590602001918460018302840111600160201b831117156102c857600080fd5b91908080601f016020809104026020016040519081016040528093929190818152602001838380828437600092019190915250929550610d99945050505050565b610144610f8b565b6101b56004803603602081101561032757600080fd5b810190602081018135600160201b81111561034157600080fd5b82018360208201111561035357600080fd5b803590602001918460018302840111600160201b8311171561037457600080fd5b91908080601f016020809104026020016040519081016040528093929190818152602001838380828437600092019190915250929550610f91945050505050565b6101b5600480360360608110156103cb57600080fd5b810190602081018135600160201b8111156103e557600080fd5b8201836020820111156103f757600080fd5b803590602001918460018302840111600160201b8311171561041857600080fd5b91908080601f01602080910402602001604051908101604052809392919081815260200183838082843760009201919091525092958435959094909350604081019250602001359050600160201b81111561047257600080fd5b82018360208201111561048457600080fd5b803590602001918460018302840111600160201b831117156104a557600080fd5b91908080601f016020809104026020016040519081016040528093929190818152602001838380828437600092019190915250929550611145945050505050565b610173600480360360208110156104fc57600080fd5b503561119e565b6101446111ab565b6101b56004803603602081101561052157600080fd5b810190602081018135600160201b81111561053b57600080fd5b82018360208201111561054d57600080fd5b803590602001918460018302840111600160201b8311171561056e57600080fd5b91908080601f016020809104026020016040519081016040528093929190818152602001838380828437600092019190915250929550611204945050505050565b6101b5600480360360208110156105c557600080fd5b50356001600160a01b03166113b8565b6105dd6114e7565b6040805160208082528351818301528351919283929083019185019080838360005b838110156106175781810151838201526020016105ff565b50505050905090810190601f1680156106445780820380516001836020036101000a031916815260200191505b509250505060405180910390f35b6101b56004803603606081101561066857600080fd5b81359190810190604081016020820135600160201b81111561068957600080fd5b82018360208201111561069b57600080fd5b803590602001918460018302840111600160201b831117156106bc57600080fd5b91908080601f0160208091040260200160405190810160405280939291908181526020018383808284376000920191909152509295949360208101935035915050600160201b81111561070e57600080fd5b82018360208201111561072057600080fd5b803590602001918460018302840111600160201b8311171561074157600080fd5b91908080601f016020809104026020016040519081016040528093929190818152602001838380828437600092019190915250929550611575945050505050565b6107a86004803603602081101561079857600080fd5b50356001600160a01b0316611705565b604080519115158252519081900360200190f35b6101b5600480360360208110156107d257600080fd5b810190602081018135600160201b8111156107ec57600080fd5b8201836020820111156107fe57600080fd5b803590602001918460018302840111600160201b8311171561081f57600080fd5b91908080601f01602080910402602001604051908101604052809392919081815260200183838082843760009201919091525092955061174c945050505050565b610144600480360360c081101561087657600080fd5b506001600160a01b0381358116916020810135821691604082013581169160608101359091169060808101359060a00135611900565b610144600480360360208110156108c257600080fd5b810190602081018135600160201b8111156108dc57600080fd5b8201836020820111156108ee57600080fd5b803590602001918460018302840111600160201b8311171561090f57600080fd5b91908080601f01602080910402602001604051908101604052809392919081815260200183838082843760009201919091525092955061190c945050505050565b6101736004803603602081101561096657600080fd5b5035611a81565b600061097833611705565b15156001146109bf5760408051600160e51b62461bcd0281526020600482015260166024820152600080516020611c81833981519152604482015290519081900360640190fd5b506001545b90565b600181815481106109d457fe5b6000918252602090912001546001600160a01b0316905081565b6003546001600160a01b03163314610a3e5760408051600160e51b62461bcd0281526020600482015260166024820152600080516020611c81833981519152604482015290519081900360640190fd5b610a4781611705565b15610a9c5760408051600160e51b62461bcd02815260206004820152601660248201527f4163636f756e7420616c726561647920696e2075736500000000000000000000604482015290519081900360640190fd5b6001805480820182556000919091527fb10e2d527612073b26eecdfd717e6a320cf44b4afac2b0732d9fcbe2b7fa0cf60180546001600160a01b0383166001600160a01b0319909116811790915560408051918252517f1c45079182c8d9e0bda520cf306250349401df9e34b61dd0458c303a3e94ea639181900360200190a150565b6003546001600160a01b031681565b610b3733611705565b1515600114610b7e5760408051600160e51b62461bcd0281526020600482015260166024820152600080516020611c81833981519152604482015290519081900360640190fd5b6007826040518082805190602001908083835b60208310610bb05780518252601f199092019160209182019101610b91565b51815160209384036101000a60001901801990921691161790529201948552506040519384900301909220600290810154149150610c2890505760408051600160e51b62461bcd0281526020600482015260176024820152600080516020611c41833981519152604482015290519081900360640190fd5b8015610c9c5760036007836040518082805190602001908083835b60208310610c625780518252601f199092019160209182019101610c43565b51815160209384036101000a600019018019909216911617905292019485525060405193849003019092206002019290925550610d059050565b60006007836040518082805190602001908083835b60208310610cd05780518252601f199092019160209182019101610cb1565b51815160209384036101000a600019018019909216911617905292019485525060405193849003019092206002019290925550505b600080516020611c618339815191528260036040518080602001838152602001828103825284818151815260200191508051906020019080838360005b83811015610d5a578181015183820152602001610d42565b50505050905090810190601f168015610d875780820380516001836020036101000a031916815260200191505b50935050505060405180910390a15050565b610da233611705565b1515600114610de95760408051600160e51b62461bcd0281526020600482015260166024820152600080516020611c81833981519152604482015290519081900360640190fd5b6007816040518082805190602001908083835b60208310610e1b5780518252601f199092019160209182019101610dfc565b51815160209384036101000a60001901801990921691161790529201948552506040519384900301909220600201546001149150610e9390505760408051600160e51b62461bcd0281526020600482015260176024820152600080516020611c41833981519152604482015290519081900360640190fd5b60026007826040518082805190602001908083835b60208310610ec75780518252601f199092019160209182019101610ea8565b51815160209384036101000a60001901801990921691161790529201948552506040805194859003820185206002908101969096558482018690528085528651908501528551600080516020611c618339815191529587959094509250829160608301919086019080838360005b83811015610f4d578181015183820152602001610f35565b50505050905090810190601f168015610f7a5780820380516001836020036101000a031916815260200191505b50935050505060405180910390a150565b60055481565b610f9a33611705565b1515600114610fe15760408051600160e51b62461bcd0281526020600482015260166024820152600080516020611c81833981519152604482015290519081900360640190fd5b6007816040518082805190602001908083835b602083106110135780518252601f199092019160209182019101610ff4565b51815160209384036101000a6000190180199092169116179052920194855250604051938490030190922060020154600514915061108b90505760408051600160e51b62461bcd0281526020600482015260176024820152600080516020611c41833981519152604482015290519081900360640190fd5b60066007826040518082805190602001908083835b602083106110bf5780518252601f1990920191602091820191016110a0565b51815160209384036101000a60001901801990921691161790529201948552506040805194859003820185206002019590955560068482018190528585528651958501959095528551600080516020611c618339815191529587959094509250829160608301919086019080838360008315610f4d578181015183820152602001610f35565b60408051600160208201528181526017818301527f307832344246306666433430326230414164393842313100000000000000000060608201529051600080516020611c618339815191529181900360800190a1505050565b600081815481106109d457fe5b60006111b633611705565b15156001146111fd5760408051600160e51b62461bcd0281526020600482015260166024820152600080516020611c81833981519152604482015290519081900360640190fd5b5060005490565b61120d33611705565b15156001146112545760408051600160e51b62461bcd0281526020600482015260166024820152600080516020611c81833981519152604482015290519081900360640190fd5b6007816040518082805190602001908083835b602083106112865780518252601f199092019160209182019101611267565b51815160209384036101000a600019018019909216911617905292019485525060405193849003019092206002015460031491506112fe90505760408051600160e51b62461bcd0281526020600482015260176024820152600080516020611c41833981519152604482015290519081900360640190fd5b60046007826040518082805190602001908083835b602083106113325780518252601f199092019160209182019101611313565b51815160209384036101000a60001901801990921691161790529201948552506040805194859003820185206002019590955560048482018190528585528651958501959095528551600080516020611c618339815191529587959094509250829160608301919086019080838360008315610f4d578181015183820152602001610f35565b6003546001600160a01b031633146114085760408051600160e51b62461bcd0281526020600482015260166024820152600080516020611c81833981519152604482015290519081900360640190fd5b61141181611705565b156114665760408051600160e51b62461bcd02815260206004820152601660248201527f4163636f756e7420616c726561647920696e2075736500000000000000000000604482015290519081900360640190fd5b600080546001810182559080527f290decd9548b62a8d60345a988386fc84ba6bc95484008f6362f93160ef3e5630180546001600160a01b0383166001600160a01b0319909116811790915560408051918252517f04977f35dcc04f0686d9473725138e6d0f4affbc79c276ce72856c7f8bbd22c49181900360200190a150565b6004805460408051602060026001851615610100026000190190941693909304601f8101849004840282018401909252818152929183018282801561156d5780601f106115425761010080835404028352916020019161156d565b820191906000526020600020905b81548152906001019060200180831161155057829003601f168201915b505050505081565b61157d611b87565b506040805160608101825284815260208082018590526001928201839052600680549384018082556000919091528451929390926115e2927ff652222313e28459528d920b65115c16c04f3efc82aaedc97be59f3f377c0d3f90920191860190611ba8565b5050806007836040518082805190602001908083835b602083106116175780518252601f1990920191602091820191016115f8565b51815160209384036101000a600019018019909216911617905292019485525060405193849003810190932084518155848401518051919461166194506001860193500190611ba8565b5060408201518160020155905050600080516020611c618339815191528260016040518080602001838152602001828103825284818151815260200191508051906020019080838360005b838110156116c45781810151838201526020016116ac565b50505050905090810190601f1680156116f15780820380516001836020036101000a031916815260200191505b50935050505060405180910390a150505050565b600061171082611a8e565b8061171f575061171f82611ae5565b8061172e575061172e82611b36565b8061174657506003546001600160a01b038381169116145b92915050565b61175533611705565b151560011461179c5760408051600160e51b62461bcd0281526020600482015260166024820152600080516020611c81833981519152604482015290519081900360640190fd5b6007816040518082805190602001908083835b602083106117ce5780518252601f1990920191602091820191016117af565b51815160209384036101000a6000190180199092169116179052920194855250604051938490030190922060020154600414915061184690505760408051600160e51b62461bcd0281526020600482015260176024820152600080516020611c41833981519152604482015290519081900360640190fd5b60056007826040518082805190602001908083835b6020831061187a5780518252601f19909201916020918201910161185b565b51815160209384036101000a60001901801990921691161790529201948552506040805194859003820185206002019590955560058482018190528585528651958501959095528551600080516020611c618339815191529587959094509250829160608301919086019080838360008315610f4d578181015183820152602001610f35565b60019695505050505050565b600061191733611705565b151560011461195e5760408051600160e51b62461bcd0281526020600482015260166024820152600080516020611c81833981519152604482015290519081900360640190fd5b611966611b87565b6007836040518082805190602001908083835b602083106119985780518252601f199092019160209182019101611979565b518151602093840361010090810a60001990810180199094169390921692909217909252929094019687526040805197889003820188206060890182528054895260018082018054845160029382161590970290980190971604601f81018490048402850184019092528184529650878201955091939250830182828015611a615780601f10611a3657610100808354040283529160200191611a61565b820191906000526020600020905b815481529060010190602001808311611a4457829003601f168201915b505050918352505060029190910154602090910152604001519392505050565b600281815481106109d457fe5b6000805b600054811015611adf57826001600160a01b031660008281548110611ab357fe5b6000918252602090912001546001600160a01b03161415611ad75760019150611adf565b600101611a92565b50919050565b6000805b600154811015611adf57826001600160a01b031660018281548110611b0a57fe5b6000918252602090912001546001600160a01b03161415611b2e5760019150611adf565b600101611ae9565b6000805b600254811015611adf57826001600160a01b031660008281548110611b5b57fe5b6000918252602090912001546001600160a01b03161415611b7f5760019150611adf565b600101611b3a565b60405180606001604052806000815260200160608152602001600081525090565b828054600181600116156101000203166002900490600052602060002090601f016020900481019282601f10611be957805160ff1916838001178555611c16565b82800160010185558215611c16579182015b82811115611c16578251825591602001919060010190611bfb565b50611c22929150611c26565b5090565b6109c491905b80821115611c225760008155600101611c2c56fe4f7065726174696f6e206e6f7420617661696c61626c650000000000000000002dba7dee5f7a8d10f74314fb61055b32a5230e5a471a18e784cbc06cad3b7a0a53656e646572206e6f7420617574686f72697a65642e00000000000000000000a165627a7a7230582058244b136f6929e47655a47e443eec9c192be217b8e1ec4094735a02e04b34e70029",
  "source": "pragma solidity ^0.5.0;\n\ncontract Transferencias {\n\n    address[] public equipas;\n    address[] public bancos;\n    address[] public federacao;\n    address public ownerAcc;\n    string public owner;\n    bytes32 public owner2;\n\n    struct Fatura{\n        uint valorTotal;\n        string data;\n        uint estadoVenda;\n    }\n\n    string[] KeysFaturas;\n    mapping (string => Fatura) transacoes;\n    \n    //eventos teste \n    event nextStage(\n       string id,\n       uint estadoFatura\n    );\n\n    event addEquipa(\n       address equipa\n    );\n\n    event addBanco(\n       address banco\n    );\n    \n    /// The smart contract's constructor\n    constructor() public {\n        owner = \"primeiro\";\n        owner2 = calculateHash(\"primeiro\");\n        ownerAcc = 0x24BF0ffC4daf52B0df27640882E202b0AAd98B11;\n        \n        //adicionar os participantes\n        equipas.push(0x1Fb4C08AeA29A6642D8C963F1ca01c15C63385bc);\n        equipas.push(0xdB254AFdcaCEa500C4f7449c4b9F9DA3e1224F81);\n\n    }\n\n    function adicionaFatura(uint valor, string memory emitData, string memory hash) public {\n       // require(isMember(msg.sender) == true,\"Sender not authorized.\");\n        \n        Fatura memory myStruct = Fatura({valorTotal:valor, data:emitData, estadoVenda:1});\n        KeysFaturas.push(hash);\n        transacoes[hash] = myStruct;\n        emit nextStage(hash,1);\n    }\n\n    function testarS(string memory teste, bytes32 valor, string memory hash)public {\n        emit nextStage(\"0x24BF0ffC402b0AAd98B11\",1);\n        \n    }\n\n    function recebeFatura(string memory hash) public{\n        require(isMember(msg.sender) == true,\"Sender not authorized.\");\n        require(transacoes[hash].estadoVenda == 1, \"Operation not available\");\n            \n        transacoes[hash].estadoVenda = 2;  \n        emit nextStage(hash,2);      \n    }\n\n    function validaFatura(string memory hash, bool aceitar) public{\n        require(isMember(msg.sender) == true,\"Sender not authorized.\");\n        require(transacoes[hash].estadoVenda == 2, \"Operation not available\");\n        \n        if(aceitar)\n            transacoes[hash].estadoVenda = 3; \n        else\n            transacoes[hash].estadoVenda = 0; \n        emit nextStage(hash,3);\n    }\n\n    function pagaFatura(string memory hash) public{\n        require(isMember(msg.sender) == true,\"Sender not authorized.\");\n        require(transacoes[hash].estadoVenda == 3, \"Operation not available\");\n        \n        transacoes[hash].estadoVenda = 4;  \n        emit nextStage(hash,4);\n    }\n\n\n    function validaPagamento(string memory hash) public{\n        require(isMember(msg.sender) == true,\"Sender not authorized.\");\n        require(transacoes[hash].estadoVenda == 4, \"Operation not available\");\n            \n        transacoes[hash].estadoVenda = 5;  \n        emit nextStage(hash,5);\n    }\n\n\n    function pagaPercentagem(string memory hash) public{\n        require(isMember(msg.sender) == true,\"Sender not authorized.\");    \n        require(transacoes[hash].estadoVenda == 5, \"Operation not available\");\n\n        transacoes[hash].estadoVenda = 6;  \n        emit nextStage(hash,6);\n    }\n\n\n    function getEstado(string memory hash) public view returns (uint estado) {\n        require(isMember(msg.sender) == true,\"Sender not authorized.\");\n        Fatura memory fatura = transacoes[hash];\n        return fatura.estadoVenda;\n    }\n\n    function adicionarEquipa(address add) public{\n        require(msg.sender == ownerAcc, \"Sender not authorized.\");\n        require(!isMember(add), \"Account already in use\");\n        equipas.push(add);\n        emit addEquipa(add); \n    }\n\n    function adicionarBanco(address add) public{\n        require(msg.sender == ownerAcc, \"Sender not authorized.\");\n        require(!isMember(add), \"Account already in use\");\n        bancos.push(add);\n        emit addBanco(add); \n    }\n\n    function getTeamsLength() public view returns (uint count) {\n        require(isMember(msg.sender) == true,\"Sender not authorized.\");\n        return equipas.length;\n    }\n\n    function getBanksLength() public view returns (uint count) {\n        require(isMember(msg.sender) == true,\"Sender not authorized.\");\n        return bancos.length;\n    }\n\n    function getFederationsLength() public view returns (uint count) {\n        require(isMember(msg.sender) == true,\"Sender not authorized.\");\n        return bancos.length;\n    }\n\n    function calculateHash(string memory s ) internal pure returns (bytes32 res) {\n        return keccak256(abi.encodePacked(s));\n    }\n\n    function isTeam(address add) private view returns (bool res) {\n        res=false;\n        for (uint i=0; i<equipas.length; i++) {\n            if (equipas[i] == add) {\n                res=true;\n                break;\n            }\n        }\n        return res;\n    }\n\n    function isBank(address add) private view returns (bool res) {\n        res=false;\n        for (uint i=0; i<bancos.length; i++) {\n            if (bancos[i] == add) {\n                res=true;\n                break;\n            }\n        }\n        return res;\n    }\n\n    function isFederation(address add) private view returns (bool res) {\n        res=false;\n        for (uint i=0; i<federacao.length; i++) {\n            if (equipas[i] == add) {\n                res=true;\n                break;\n            }\n        }\n        return res;\n    }\n\n    function isMember(address add) public view returns (bool res) {\n        return (isTeam(add) || isBank(add) || isFederation(add) || add == ownerAcc);\n    }\n\n    function testParams(address a,address b,address v,address f,bytes32 e, bytes32 d) public  returns (uint count) {\n        return 1;\n    }\n\n}\n",
  "sourcePath": "/home/pc/Desktop/2semestre/Eng_seg/BlockchainProject/vueProject/vuebox/contracts/Transferencias.sol",
  "compiler": {
    "name": "solc",
    "version": "0.5.7+commit.6da8b019.Emscripten.clang"
  },
  "schemaVersion": "3.0.0-beta.2",
  "updatedAt": "2019-05-09T13:40:30.054Z",
  "devdoc": {
    "methods": {}
  },
  "userdoc": {
    "methods": {
      "constructor": "The smart contract's constructor"
    }
  }
}