{
  "contractName": "Transferencias",
  "abi": [
    {
      "constant": true,
      "inputs": [
        {
          "name": "",
          "type": "uint256"
        }
      ],
      "name": "bancos",
      "outputs": [
        {
          "name": "",
          "type": "address"
        }
      ],
      "payable": false,
      "stateMutability": "view",
      "type": "function",
      "signature": "0x213dee1b"
    },
    {
      "constant": true,
      "inputs": [],
      "name": "ownerAcc",
      "outputs": [
        {
          "name": "",
          "type": "address"
        }
      ],
      "payable": false,
      "stateMutability": "view",
      "type": "function",
      "signature": "0x4826dd40"
    },
    {
      "constant": true,
      "inputs": [],
      "name": "owner2",
      "outputs": [
        {
          "name": "",
          "type": "bytes32"
        }
      ],
      "payable": false,
      "stateMutability": "view",
      "type": "function",
      "signature": "0x52709725"
    },
    {
      "constant": true,
      "inputs": [
        {
          "name": "",
          "type": "uint256"
        }
      ],
      "name": "equipas",
      "outputs": [
        {
          "name": "",
          "type": "address"
        }
      ],
      "payable": false,
      "stateMutability": "view",
      "type": "function",
      "signature": "0x6d73b6db"
    },
    {
      "constant": true,
      "inputs": [],
      "name": "owner",
      "outputs": [
        {
          "name": "",
          "type": "string"
        }
      ],
      "payable": false,
      "stateMutability": "view",
      "type": "function",
      "signature": "0x8da5cb5b"
    },
    {
      "constant": true,
      "inputs": [
        {
          "name": "",
          "type": "uint256"
        }
      ],
      "name": "federacao",
      "outputs": [
        {
          "name": "",
          "type": "address"
        }
      ],
      "payable": false,
      "stateMutability": "view",
      "type": "function",
      "signature": "0xf47ff894"
    },
    {
      "inputs": [],
      "payable": false,
      "stateMutability": "nonpayable",
      "type": "constructor",
      "signature": "constructor"
    },
    {
      "anonymous": false,
      "inputs": [
        {
          "indexed": false,
          "name": "id",
          "type": "address"
        },
        {
          "indexed": false,
          "name": "estadoFatura",
          "type": "uint256"
        }
      ],
      "name": "nextStage",
      "type": "event",
      "signature": "0x46180313f4e544006f759a5172d8959364cb38e53298b1a51b829d8d3ea77491"
    },
    {
      "anonymous": false,
      "inputs": [
        {
          "indexed": false,
          "name": "equipa",
          "type": "address"
        }
      ],
      "name": "addEquipa",
      "type": "event",
      "signature": "0x04977f35dcc04f0686d9473725138e6d0f4affbc79c276ce72856c7f8bbd22c4"
    },
    {
      "anonymous": false,
      "inputs": [
        {
          "indexed": false,
          "name": "banco",
          "type": "address"
        }
      ],
      "name": "addBanco",
      "type": "event",
      "signature": "0x1c45079182c8d9e0bda520cf306250349401df9e34b61dd0458c303a3e94ea63"
    },
    {
      "constant": false,
      "inputs": [
        {
          "name": "valor",
          "type": "uint256"
        },
        {
          "name": "emitData",
          "type": "string"
        },
        {
          "name": "hash",
          "type": "address"
        }
      ],
      "name": "adicionaFatura",
      "outputs": [],
      "payable": false,
      "stateMutability": "nonpayable",
      "type": "function",
      "signature": "0x204c4c11"
    },
    {
      "constant": false,
      "inputs": [
        {
          "name": "teste",
          "type": "string"
        },
        {
          "name": "valor",
          "type": "bytes32"
        },
        {
          "name": "hash",
          "type": "address"
        }
      ],
      "name": "testarS",
      "outputs": [],
      "payable": false,
      "stateMutability": "nonpayable",
      "type": "function",
      "signature": "0x4552831f"
    },
    {
      "constant": false,
      "inputs": [
        {
          "name": "hash",
          "type": "address"
        }
      ],
      "name": "recebeFatura",
      "outputs": [],
      "payable": false,
      "stateMutability": "nonpayable",
      "type": "function",
      "signature": "0xd5b60931"
    },
    {
      "constant": false,
      "inputs": [
        {
          "name": "hash",
          "type": "address"
        },
        {
          "name": "aceitar",
          "type": "bool"
        }
      ],
      "name": "validaFatura",
      "outputs": [],
      "payable": false,
      "stateMutability": "nonpayable",
      "type": "function",
      "signature": "0xfe8c1065"
    },
    {
      "constant": false,
      "inputs": [
        {
          "name": "hash",
          "type": "address"
        }
      ],
      "name": "pagaFatura",
      "outputs": [],
      "payable": false,
      "stateMutability": "nonpayable",
      "type": "function",
      "signature": "0x9fd2bfe5"
    },
    {
      "constant": false,
      "inputs": [
        {
          "name": "hash",
          "type": "address"
        }
      ],
      "name": "validaPagamento",
      "outputs": [],
      "payable": false,
      "stateMutability": "nonpayable",
      "type": "function",
      "signature": "0x775ffca8"
    },
    {
      "constant": false,
      "inputs": [
        {
          "name": "hash",
          "type": "address"
        }
      ],
      "name": "pagaPercentagem",
      "outputs": [],
      "payable": false,
      "stateMutability": "nonpayable",
      "type": "function",
      "signature": "0x856cd16d"
    },
    {
      "constant": true,
      "inputs": [
        {
          "name": "hash",
          "type": "address"
        }
      ],
      "name": "getEstado",
      "outputs": [
        {
          "name": "estado",
          "type": "uint256"
        }
      ],
      "payable": false,
      "stateMutability": "view",
      "type": "function",
      "signature": "0xce7c2829"
    },
    {
      "constant": false,
      "inputs": [
        {
          "name": "add",
          "type": "address"
        }
      ],
      "name": "adicionarEquipa",
      "outputs": [],
      "payable": false,
      "stateMutability": "nonpayable",
      "type": "function",
      "signature": "0x898c6ee5"
    },
    {
      "constant": false,
      "inputs": [
        {
          "name": "add",
          "type": "address"
        }
      ],
      "name": "adicionarBanco",
      "outputs": [],
      "payable": false,
      "stateMutability": "nonpayable",
      "type": "function",
      "signature": "0x28b05552"
    },
    {
      "constant": true,
      "inputs": [],
      "name": "getTeamsLength",
      "outputs": [
        {
          "name": "count",
          "type": "uint256"
        }
      ],
      "payable": false,
      "stateMutability": "view",
      "type": "function",
      "signature": "0x80fe6c3a"
    },
    {
      "constant": true,
      "inputs": [],
      "name": "getBanksLength",
      "outputs": [
        {
          "name": "count",
          "type": "uint256"
        }
      ],
      "payable": false,
      "stateMutability": "view",
      "type": "function",
      "signature": "0x1b3ebe3b"
    },
    {
      "constant": true,
      "inputs": [],
      "name": "getFederationsLength",
      "outputs": [
        {
          "name": "count",
          "type": "uint256"
        }
      ],
      "payable": false,
      "stateMutability": "view",
      "type": "function",
      "signature": "0x3267ea06"
    },
    {
      "constant": true,
      "inputs": [
        {
          "name": "add",
          "type": "address"
        }
      ],
      "name": "isMember",
      "outputs": [
        {
          "name": "res",
          "type": "bool"
        }
      ],
      "payable": false,
      "stateMutability": "view",
      "type": "function",
      "signature": "0xa230c524"
    },
    {
      "constant": true,
      "inputs": [
        {
          "name": "add",
          "type": "address"
        }
      ],
      "name": "typeA",
      "outputs": [
        {
          "name": "res",
          "type": "uint256"
        }
      ],
      "payable": false,
      "stateMutability": "view",
      "type": "function",
      "signature": "0x3c38c356"
    },
    {
      "constant": false,
      "inputs": [
        {
          "name": "a",
          "type": "address"
        },
        {
          "name": "b",
          "type": "address"
        },
        {
          "name": "v",
          "type": "address"
        },
        {
          "name": "f",
          "type": "address"
        },
        {
          "name": "e",
          "type": "bytes32"
        },
        {
          "name": "d",
          "type": "bytes32"
        }
      ],
      "name": "testParams",
      "outputs": [
        {
          "name": "count",
          "type": "uint256"
        }
      ],
      "payable": false,
      "stateMutability": "nonpayable",
      "type": "function",
      "signature": "0xd31723d1"
    }
  ],
  "bytecode": "0x60806040523480156200001157600080fd5b506040805180820190915260088082527f7072696d6569726f0000000000000000000000000000000000000000000000006020909201918252620000589160049162000296565b5060408051808201909152600881527f7072696d6569726f0000000000000000000000000000000000000000000000006020820152620000a1906401000000006200021d810204565b60055560038054600160a060020a03199081167324bf0ffc4daf52b0df27640882e202b0aad98b11179091556002805460018181019092557f405787fa12a823e0f2b7631cc41b3ba8828b3321ca811111fa75cd3aa3bb5ace018054831673c2ef946de5fa4cf029f0cd6437048cdbaed8869c1790556000805480830182557f290decd9548b62a8d60345a988386fc84ba6bc95484008f6362f93160ef3e56390810180548516731fb4c08aea29a6642d8c963f1ca01c15c63385bc1790558154808401835581018054851673db254afdcacea500c4f7449c4b9f9da3e1224f811790558154808401835581018054851673e82f3f7c5dc295aa96e9c3b96e53998f240d426f17905581548084018355018054841673685d6296b4fd9d0f00d8cc2f634a2160b2a183a8179055815480830183559190527fb10e2d527612073b26eecdfd717e6a320cf44b4afac2b0732d9fcbe2b7fa0cf60180549091167350c944f45603314164662310295993902121fbee1790556200033b565b6000816040516020018082805190602001908083835b60208310620002545780518252601f19909201916020918201910162000233565b6001836020036101000a038019825116818451168082178552505050505050905001915050604051602081830303815290604052805190602001209050919050565b828054600181600116156101000203166002900490600052602060002090601f016020900481019282601f10620002d957805160ff191683800117855562000309565b8280016001018555821562000309579182015b8281111562000309578251825591602001919060010190620002ec565b50620003179291506200031b565b5090565b6200033891905b8082111562000317576000815560010162000322565b90565b610f02806200034b6000396000f3fe6080604052600436106101275763ffffffff7c01000000000000000000000000000000000000000000000000000000006000350416631b3ebe3b811461012c578063204c4c1114610153578063213dee1b1461021a57806328b05552146102605780633267ea061461012c5780633c38c356146102935780634552831f146102c65780634826dd4014610387578063527097251461039c5780636d73b6db146103b1578063775ffca8146103db57806380fe6c3a1461040e578063856cd16d14610423578063898c6ee5146104565780638da5cb5b146104895780639fd2bfe514610513578063a230c52414610546578063ce7c28291461058d578063d31723d1146105c0578063d5b6093114610619578063f47ff8941461064c578063fe8c106514610676575b600080fd5b34801561013857600080fd5b506101416106b1565b60408051918252519081900360200190f35b34801561015f57600080fd5b506102186004803603606081101561017657600080fd5b8135919081019060408101602082013564010000000081111561019857600080fd5b8201836020820111156101aa57600080fd5b803590602001918460018302840111640100000000831117156101cc57600080fd5b91908080601f01602080910402602001604051908101604052809392919081815260200183838082843760009201919091525092955050509035600160a060020a031691506106b89050565b005b34801561022657600080fd5b506102446004803603602081101561023d57600080fd5b50356107a0565b60408051600160a060020a039092168252519081900360200190f35b34801561026c57600080fd5b506102186004803603602081101561028357600080fd5b5035600160a060020a03166107c8565b34801561029f57600080fd5b50610141600480360360208110156102b657600080fd5b5035600160a060020a0316610858565b3480156102d257600080fd5b50610218600480360360608110156102e957600080fd5b81019060208101813564010000000081111561030457600080fd5b82018360208201111561031657600080fd5b8035906020019184600183028401116401000000008311171561033857600080fd5b91908080601f0160208091040260200160405190810160405280939291908181526020018383808284376000920191909152509295505082359350505060200135600160a060020a0316610897565b34801561039357600080fd5b506102446108ce565b3480156103a857600080fd5b506101416108dd565b3480156103bd57600080fd5b50610244600480360360208110156103d457600080fd5b50356108e3565b3480156103e757600080fd5b50610218600480360360208110156103fe57600080fd5b5035600160a060020a03166108f1565b34801561041a57600080fd5b5061014161093d565b34801561042f57600080fd5b506102186004803603602081101561044657600080fd5b5035600160a060020a0316610943565b34801561046257600080fd5b506102186004803603602081101561047957600080fd5b5035600160a060020a031661098f565b34801561049557600080fd5b5061049e610a1d565b6040805160208082528351818301528351919283929083019185019080838360005b838110156104d85781810151838201526020016104c0565b50505050905090810190601f1680156105055780820380516001836020036101000a031916815260200191505b509250505060405180910390f35b34801561051f57600080fd5b506102186004803603602081101561053657600080fd5b5035600160a060020a0316610aab565b34801561055257600080fd5b506105796004803603602081101561056957600080fd5b5035600160a060020a0316610af7565b604080519115158252519081900360200190f35b34801561059957600080fd5b50610141600480360360208110156105b057600080fd5b5035600160a060020a0316610b3b565b3480156105cc57600080fd5b50610141600480360360c08110156105e357600080fd5b50600160a060020a0381358116916020810135821691604082013581169160608101359091169060808101359060a00135610c1b565b34801561062557600080fd5b506102186004803603602081101561063c57600080fd5b5035600160a060020a0316610c27565b34801561065857600080fd5b506102446004803603602081101561066f57600080fd5b5035610c71565b34801561068257600080fd5b506102186004803603604081101561069957600080fd5b50600160a060020a0381351690602001351515610c7f565b6001545b90565b6106c0610dfc565b506040805160608101825284815260208082018581526001838501819052600680548083019091557ff652222313e28459528d920b65115c16c04f3efc82aaedc97be59f3f377c0d3f01805473ffffffffffffffffffffffffffffffffffffffff1916600160a060020a03881690811790915560009081526007845294909420835181559051805193948594929361075d93918501920190610e1e565b506040918201516002909101558051600160a060020a0384168152600160208201528151600080516020610eb7833981519152929181900390910190a150505050565b60018054829081106107ae57fe5b600091825260209091200154600160a060020a0316905081565b6001805480820182556000919091527fb10e2d527612073b26eecdfd717e6a320cf44b4afac2b0732d9fcbe2b7fa0cf6018054600160a060020a03831673ffffffffffffffffffffffffffffffffffffffff19909116811790915560408051918252517f1c45079182c8d9e0bda520cf306250349401df9e34b61dd0458c303a3e94ea639181900360200190a150565b60008061086483610cfd565b1561086d575060015b61087683610d56565b1561087f575060025b61088883610da9565b15610891575060035b92915050565b60408051600160a060020a0383168152600160208201528151600080516020610eb7833981519152929181900390910190a1505050565b600354600160a060020a031681565b60055481565b60008054829081106107ae57fe5b600160a060020a038116600081815260076020908152604091829020600560029091018190558251938452908301528051600080516020610eb78339815191529281900390910190a150565b60005490565b600160a060020a038116600081815260076020908152604091829020600660029091018190558251938452908301528051600080516020610eb78339815191529281900390910190a150565b600080546001810182559080527f290decd9548b62a8d60345a988386fc84ba6bc95484008f6362f93160ef3e563018054600160a060020a03831673ffffffffffffffffffffffffffffffffffffffff19909116811790915560408051918252517f04977f35dcc04f0686d9473725138e6d0f4affbc79c276ce72856c7f8bbd22c49181900360200190a150565b6004805460408051602060026001851615610100026000190190941693909304601f81018490048402820184019092528181529291830182828015610aa35780601f10610a7857610100808354040283529160200191610aa3565b820191906000526020600020905b815481529060010190602001808311610a8657829003601f168201915b505050505081565b600160a060020a038116600081815260076020908152604091829020600460029091018190558251938452908301528051600080516020610eb78339815191529281900390910190a150565b6000610b0282610cfd565b80610b115750610b1182610d56565b80610b205750610b2082610da9565b80610891575050600354600160a060020a0390811691161490565b6000610b45610dfc565b600160a060020a038316600090815260076020908152604091829020825160608101845281548152600180830180548651600293821615610100026000190190911692909204601f8101869004860283018601909652858252919492938581019391929190830182828015610bfb5780601f10610bd057610100808354040283529160200191610bfb565b820191906000526020600020905b815481529060010190602001808311610bde57829003601f168201915b505050918352505060029190910154602090910152604001519392505050565b60019695505050505050565b600160a060020a03811660008181526007602090815260409182902060029081018190558251938452908301528051600080516020610eb78339815191529281900390910190a150565b60028054829081106107ae57fe5b8015610caa57600160a060020a03821660009081526007602052604090206003600290910155610cc7565b600160a060020a0382166000908152600760205260408120600201555b60408051600160a060020a0384168152600360208201528151600080516020610eb7833981519152929181900390910190a15050565b6000805b600054811015610d505782600160a060020a0316600082815481101515610d2457fe5b600091825260209091200154600160a060020a03161415610d485760019150610d50565b600101610d01565b50919050565b6000805b600154811015610d505782600160a060020a0316600182815481101515610d7d57fe5b600091825260209091200154600160a060020a03161415610da15760019150610d50565b600101610d5a565b6000805b600254811015610d505782600160a060020a0316600282815481101515610dd057fe5b600091825260209091200154600160a060020a03161415610df45760019150610d50565b600101610dad565b6060604051908101604052806000815260200160608152602001600081525090565b828054600181600116156101000203166002900490600052602060002090601f016020900481019282601f10610e5f57805160ff1916838001178555610e8c565b82800160010185558215610e8c579182015b82811115610e8c578251825591602001919060010190610e71565b50610e98929150610e9c565b5090565b6106b591905b80821115610e985760008155600101610ea256fe46180313f4e544006f759a5172d8959364cb38e53298b1a51b829d8d3ea77491a165627a7a72305820b8ca9475fcbfd98343a5d4801a3e55d84437a15a95e02d5cda2c4d03df961e560029",
  "source": "pragma solidity ^0.5.0;\n\ncontract Transferencias {\n\n    address[] public equipas;\n    address[] public bancos;\n    address[] public federacao;\n    address public ownerAcc;\n    string public owner;\n    bytes32 public owner2;\n\n    struct Fatura{\n        uint valorTotal;\n        string data;\n        uint estadoVenda;\n    }\n\n    address[] KeysFaturas;\n    mapping (address => Fatura) transacoes;\n    \n    //eventos teste \n    event nextStage(\n       address id,\n       uint estadoFatura\n    );\n\n    event addEquipa(\n       address equipa\n    );\n\n    event addBanco(\n       address banco\n    );\n    \n    /// The smart contract's constructor\n    constructor() public {\n        owner = \"primeiro\";\n        owner2 = calculateHash(\"primeiro\");\n        ownerAcc = 0x24BF0ffC4daf52B0df27640882E202b0AAd98B11;\n        \n        //adicionar os participantes\n        federacao.push(0xC2eF946de5Fa4CF029f0Cd6437048cdbaed8869C);\n\n        equipas.push(0x1Fb4C08AeA29A6642D8C963F1ca01c15C63385bc);\n        equipas.push(0xdB254AFdcaCEa500C4f7449c4b9F9DA3e1224F81);\n        equipas.push(0xe82f3f7C5dc295aa96e9c3b96e53998F240D426F);\n        equipas.push(0x685D6296B4Fd9D0F00d8CC2F634a2160B2a183A8);\n\n        bancos.push(0x50C944f45603314164662310295993902121fBee);\n\n    }\n\n    function adicionaFatura(uint valor, string memory emitData, address  hash) public {\n       // //require(isMember(msg.sender) == true,\"Sender not authorized.\");\n        \n        Fatura memory myStruct = Fatura({valorTotal:valor, data:emitData, estadoVenda:1});\n        KeysFaturas.push(hash);\n        transacoes[hash] = myStruct;\n        emit nextStage(hash,1);\n    }\n\n    function testarS(string memory teste, bytes32 valor, address hash)public {\n        emit nextStage(hash,1);\n        \n    }\n\n    function recebeFatura(address hash) public{\n        //require(isMember(msg.sender) == true,\"Sender not authorized.\");\n        //require(transacoes[hash].estadoVenda == 1, \"Operation not available\");\n            \n        transacoes[hash].estadoVenda = 2;  \n        emit nextStage(hash,2);      \n    }\n\n    function validaFatura(address hash, bool aceitar) public{\n        //require(isMember(msg.sender) == true,\"Sender not authorized.\");\n        //require(transacoes[hash].estadoVenda == 2, \"Operation not available\");\n        \n        if(aceitar)\n            transacoes[hash].estadoVenda = 3; \n        else\n            transacoes[hash].estadoVenda = 0; \n        emit nextStage(hash,3);\n    }\n\n    function pagaFatura(address hash) public{\n        ////require(isMember(msg.sender) == true,\"Sender not authorized.\");\n        ////require(transacoes[hash].estadoVenda == 3, \"Operation not available\");\n        \n        transacoes[hash].estadoVenda = 4;  \n        emit nextStage(hash,4);\n    }\n\n\n    function validaPagamento(address hash) public{\n        //require(isMember(msg.sender) == true,\"Sender not authorized.\");\n        //require(transacoes[hash].estadoVenda == 4, \"Operation not available\");\n            \n        transacoes[hash].estadoVenda = 5;  \n        emit nextStage(hash,5);\n    }\n\n\n    function pagaPercentagem(address hash) public{\n        //require(isMember(msg.sender) == true,\"Sender not authorized.\");    \n        //require(transacoes[hash].estadoVenda == 5, \"Operation not available\");\n\n        transacoes[hash].estadoVenda = 6;  \n        emit nextStage(hash,6);\n    }\n\n\n    function getEstado(address hash) public view returns (uint estado) {\n        //require(isMember(msg.sender) == true,\"Sender not authorized.\");\n        Fatura memory fatura = transacoes[hash];\n        return fatura.estadoVenda;\n    }\n\n    function adicionarEquipa(address add) public{\n        //require(msg.sender == ownerAcc, \"Sender not authorized.\");\n        //require(!isMember(add), \"Account already in use\");\n        equipas.push(add);\n        emit addEquipa(add); \n    }\n\n    function adicionarBanco(address add) public{\n        //require(msg.sender == ownerAcc, \"Sender not authorized.\");\n        //require(!isMember(add), \"Account already in use\");\n        bancos.push(add);\n        emit addBanco(add); \n    }\n\n    function getTeamsLength() public view returns (uint count) {\n        //require(isMember(msg.sender) == true,\"Sender not authorized.\");\n        return equipas.length;\n    }\n\n    function getBanksLength() public view returns (uint count) {\n        //require(isMember(msg.sender) == true,\"Sender not authorized.\");\n        return bancos.length;\n    }\n\n    function getFederationsLength() public view returns (uint count) {\n        //require(isMember(msg.sender) == true,\"Sender not authorized.\");\n        return bancos.length;\n    }\n\n    function calculateHash(string memory s ) internal pure returns (bytes32 res) {\n        return keccak256(abi.encodePacked(s));\n    }\n\n    function isTeam(address add) private view returns (bool res) {\n        res=false;\n        for (uint i=0; i<equipas.length; i++) {\n            if (equipas[i] == add) {\n                res=true;\n                break;\n            }\n        }\n        return res;\n    }\n\n    function isBank(address add) private view returns (bool res) {\n        res=false;\n        for (uint i=0; i<bancos.length; i++) {\n            if (bancos[i] == add) {\n                res=true;\n                break;\n            }\n        }\n        return res;\n    }\n\n    function isFederation(address add) private view returns (bool res) {\n        res=false;\n        for (uint i=0; i<federacao.length; i++) {\n            if (federacao[i] == add) {\n                res=true;\n                break;\n            }\n        }\n        return res;\n    }\n\n    function isMember(address add) public view returns (bool res) {\n        return (isTeam(add) || isBank(add) || isFederation(add) || add == ownerAcc);\n    }\n        \n    function typeA(address add) public view returns (uint res) {\n        uint val = 0;\n\n        if(isTeam(add)){\n            val = 1;\n        }\n        if(isBank(add)){\n            val = 2;\n        }\n        if(isFederation(add)){\n            val = 3;\n        }\n        return val;\n    }\n    function testParams(address a,address b,address v,address f,bytes32 e, bytes32 d) public  returns (uint count) {\n        return 1;\n    }\n\n}\n",
  "sourcePath": "/home/ricardo/Desktop/LEI/BlockchainProject/vueProject/vuebox/contracts/Transferencias.sol",
  "compiler": {
    "name": "solc",
    "version": "0.5.0+commit.1d4f565a.Emscripten.clang"
  },
  "schemaVersion": "3.0.8",
  "updatedAt": "2019-06-13T08:57:53.891Z",
  "devdoc": {
    "methods": {}
  },
  "userdoc": {
    "methods": {
      "constructor": "The smart contract's constructor"
    }
  }
}