{
  "contractName": "Users",
  "abi": [
    {
      "constant": true,
      "inputs": [
        {
          "name": "",
          "type": "address"
        }
      ],
      "name": "users",
      "outputs": [
        {
          "name": "",
          "type": "bytes32"
        }
      ],
      "payable": false,
      "stateMutability": "view",
      "type": "function"
    },
    {
      "anonymous": false,
      "inputs": [
        {
          "indexed": false,
          "name": "hash",
          "type": "bytes32"
        }
      ],
      "name": "PagamentoEfetuado",
      "type": "event"
    },
    {
      "anonymous": false,
      "inputs": [
        {
          "indexed": true,
          "name": "_address",
          "type": "address"
        },
        {
          "indexed": false,
          "name": "_pseudo",
          "type": "bytes32"
        }
      ],
      "name": "UserCreated",
      "type": "event"
    },
    {
      "anonymous": false,
      "inputs": [
        {
          "indexed": true,
          "name": "_address",
          "type": "address"
        }
      ],
      "name": "UserDestroyed",
      "type": "event"
    },
    {
      "constant": true,
      "inputs": [
        {
          "name": "_address",
          "type": "address"
        }
      ],
      "name": "exists",
      "outputs": [
        {
          "name": "_exists",
          "type": "bool"
        }
      ],
      "payable": false,
      "stateMutability": "view",
      "type": "function"
    },
    {
      "constant": true,
      "inputs": [],
      "name": "authenticate",
      "outputs": [
        {
          "name": "_pseudo",
          "type": "bytes32"
        }
      ],
      "payable": false,
      "stateMutability": "view",
      "type": "function"
    },
    {
      "constant": false,
      "inputs": [
        {
          "name": "_pseudo",
          "type": "bytes32"
        }
      ],
      "name": "create",
      "outputs": [],
      "payable": false,
      "stateMutability": "nonpayable",
      "type": "function"
    },
    {
      "constant": false,
      "inputs": [],
      "name": "destroy",
      "outputs": [],
      "payable": false,
      "stateMutability": "nonpayable",
      "type": "function"
    },
    {
      "constant": true,
      "inputs": [
        {
          "name": "_address",
          "type": "address"
        }
      ],
      "name": "get",
      "outputs": [
        {
          "name": "_pseudo",
          "type": "bytes32"
        }
      ],
      "payable": false,
      "stateMutability": "view",
      "type": "function"
    },
    {
      "constant": false,
      "inputs": [
        {
          "name": "_hash2",
          "type": "bytes32"
        }
      ],
      "name": "adicionarFatura",
      "outputs": [],
      "payable": false,
      "stateMutability": "nonpayable",
      "type": "function"
    }
  ],
  "bytecode": "0x608060405234801561001057600080fd5b5061037f806100206000396000f3fe608060405234801561001057600080fd5b506004361061007d5760003560e01c8063a87430ba1161005b578063a87430ba146100c3578063c2bc2efc146100e9578063f6a3d24e1461010f578063f83d5d74146101495761007d565b8063380c7a67146100825780637368a8ce1461009c57806383197ef0146100bb575b600080fd5b61008a610166565b60408051918252519081900360200190f35b6100b9600480360360208110156100b257600080fd5b503561018e565b005b6100b96101d6565b61008a600480360360208110156100d957600080fd5b50356001600160a01b0316610222565b61008a600480360360208110156100ff57600080fd5b50356001600160a01b0316610234565b6101356004803603602081101561012557600080fd5b50356001600160a01b0316610264565b604080519115158252519081900360200190f35b6100b96004803603602081101561015f57600080fd5b5035610281565b600061017133610264565b61017a57600080fd5b503360009081526020819052604090205490565b3360008181526020818152604091829020849055815184815291517f18ec7dd8c4d713eb3c2e0c61825f878a47e207600626611c5bc15009c743b4b69281900390910190a250565b6101df33610264565b6101e857600080fd5b33600081815260208190526040808220829055517f36539d9970f057e4d26f828835b69fcfff15ff997f804dace8aed405cb98455f9190a2565b60006020819052908152604090205481565b600061023f82610264565b61024857600080fd5b506001600160a01b031660009081526020819052604090205490565b6001600160a01b0316600090815260208190526040902054151590565b61028961032f565b5060408051606081018252828152600160208083018281526032848601908152835480850185557fb10e2d527612073b26eecdfd717e6a320cf44b4afac2b0732d9fcbe2b7fa0cf601879055600087815260028085529087902086518155925194830194909455519201919091558251848152925191927f57b2fe85e9479cd623f1658a5810dfccc9cf54653fd726bf7c818f6864fee32c929081900390910190a15050565b6040518060600160405280600080191681526020016000815260200160008152509056fea165627a7a723058208adf4b13a28fd822328c347c8b3ff171a87d01c67c2b87a05bb11327cf4623ab0029",
  "source": "pragma solidity ^0.5.0;\n\ncontract Users {\n\n  mapping(address => bytes32) public users;\n\n  struct Fatura{\n        bytes32 hashVenda;\n        uint estadoVenda;\n        uint valorTotal;\n    }\n\n  bytes32[] KeysFaturas;\n  mapping (bytes32 => Fatura) transacoes;\n\n  event PagamentoEfetuado(\n       bytes32 hash\n    );\n\n  event UserCreated(address indexed _address, bytes32 _pseudo);\n  event UserDestroyed(address indexed _address);\n\n  function exists (address _address) public view returns (bool _exists) {\n    return (users[_address] != bytes32(0));\n  }\n\n  function authenticate () public view returns (bytes32 _pseudo) {\n    require(exists(msg.sender));\n    return (users[msg.sender]);\n  }\n\n  function create (bytes32 _pseudo) public {\n    users[msg.sender] = _pseudo ;\n    emit UserCreated(msg.sender, _pseudo);\n  }\n\n  function destroy () public {\n    require(exists(msg.sender));\n    delete users[msg.sender];\n    emit UserDestroyed(msg.sender);\n  }\n\n  function get (address _address) public view returns(bytes32 _pseudo) {\n    require(exists(_address));\n    return (users[_address]);\n  }\n\n  function adicionarFatura(bytes32 _hash2) public  {\n        //require(isMember(msg.sender) == true,\"Sender not authorized.\");\n        \n        Fatura  memory myStruct = Fatura({hashVenda:_hash2, estadoVenda:1,valorTotal:50});\n        KeysFaturas.push(_hash2);\n        transacoes[_hash2]=myStruct;\n        emit PagamentoEfetuado(_hash2);\n    }\n\n}\n",
  "sourcePath": "/home/pc/Desktop/2semestre/Eng_seg/BlockchainProject/vueProject/vuebox/contracts/Users.sol",
  "compiler": {
    "name": "solc",
    "version": "0.5.7+commit.6da8b019.Emscripten.clang"
  },
  "schemaVersion": "3.0.0-beta.2",
  "updatedAt": "2019-04-27T13:26:44.300Z",
  "devdoc": {
    "methods": {}
  },
  "userdoc": {
    "methods": {}
  }
}