{
  "contractName": "Users",
  "abi": [
    {
      "constant": true,
      "inputs": [
        {
          "name": "",
          "type": "address"
        }
      ],
      "name": "users",
      "outputs": [
        {
          "name": "",
          "type": "bytes32"
        }
      ],
      "payable": false,
      "stateMutability": "view",
      "type": "function"
    },
    {
      "anonymous": false,
      "inputs": [
        {
          "indexed": false,
          "name": "hash",
          "type": "bytes32"
        }
      ],
      "name": "PagamentoEfetuado",
      "type": "event"
    },
    {
      "anonymous": false,
      "inputs": [
        {
          "indexed": true,
          "name": "_address",
          "type": "address"
        },
        {
          "indexed": false,
          "name": "_pseudo",
          "type": "bytes32"
        }
      ],
      "name": "UserCreated",
      "type": "event"
    },
    {
      "anonymous": false,
      "inputs": [
        {
          "indexed": true,
          "name": "_address",
          "type": "address"
        }
      ],
      "name": "UserDestroyed",
      "type": "event"
    },
    {
      "constant": true,
      "inputs": [
        {
          "name": "_address",
          "type": "address"
        }
      ],
      "name": "exists",
      "outputs": [
        {
          "name": "_exists",
          "type": "bool"
        }
      ],
      "payable": false,
      "stateMutability": "view",
      "type": "function"
    },
    {
      "constant": true,
      "inputs": [],
      "name": "authenticate",
      "outputs": [
        {
          "name": "_pseudo",
          "type": "bytes32"
        }
      ],
      "payable": false,
      "stateMutability": "view",
      "type": "function"
    },
    {
      "constant": false,
      "inputs": [
        {
          "name": "_pseudo",
          "type": "bytes32"
        }
      ],
      "name": "create",
      "outputs": [],
      "payable": false,
      "stateMutability": "nonpayable",
      "type": "function"
    },
    {
      "constant": false,
      "inputs": [],
      "name": "destroy",
      "outputs": [],
      "payable": false,
      "stateMutability": "nonpayable",
      "type": "function"
    },
    {
      "constant": true,
      "inputs": [
        {
          "name": "_address",
          "type": "address"
        }
      ],
      "name": "get",
      "outputs": [
        {
          "name": "_pseudo",
          "type": "bytes32"
        }
      ],
      "payable": false,
      "stateMutability": "view",
      "type": "function"
    },
    {
      "constant": false,
      "inputs": [
        {
          "name": "_hash2",
          "type": "bytes32"
        }
      ],
      "name": "adicionarFatura",
      "outputs": [],
      "payable": false,
      "stateMutability": "nonpayable",
      "type": "function"
    }
  ],
  "bytecode": "0x608060405234801561001057600080fd5b50610422806100206000396000f3fe6080604052600436106100825763ffffffff7c0100000000000000000000000000000000000000000000000000000000600035041663380c7a6781146100875780637368a8ce146100ae57806383197ef0146100da578063a87430ba146100ef578063c2bc2efc1461012f578063f6a3d24e1461016f578063f83d5d74146101c3575b600080fd5b34801561009357600080fd5b5061009c6101ed565b60408051918252519081900360200190f35b3480156100ba57600080fd5b506100d8600480360360208110156100d157600080fd5b5035610217565b005b3480156100e657600080fd5b506100d861025f565b3480156100fb57600080fd5b5061009c6004803603602081101561011257600080fd5b503573ffffffffffffffffffffffffffffffffffffffff166102ad565b34801561013b57600080fd5b5061009c6004803603602081101561015257600080fd5b503573ffffffffffffffffffffffffffffffffffffffff166102bf565b34801561017b57600080fd5b506101af6004803603602081101561019257600080fd5b503573ffffffffffffffffffffffffffffffffffffffff166102fe565b604080519115158252519081900360200190f35b3480156101cf57600080fd5b506100d8600480360360208110156101e657600080fd5b5035610328565b60006101f8336102fe565b151561020357600080fd5b503360009081526020819052604090205490565b3360008181526020818152604091829020849055815184815291517f18ec7dd8c4d713eb3c2e0c61825f878a47e207600626611c5bc15009c743b4b69281900390910190a250565b610268336102fe565b151561027357600080fd5b33600081815260208190526040808220829055517f36539d9970f057e4d26f828835b69fcfff15ff997f804dace8aed405cb98455f9190a2565b60006020819052908152604090205481565b60006102ca826102fe565b15156102d557600080fd5b5073ffffffffffffffffffffffffffffffffffffffff1660009081526020819052604090205490565b73ffffffffffffffffffffffffffffffffffffffff16600090815260208190526040902054151590565b6103306103d6565b5060408051606081018252828152600160208083018281526032848601908152835480850185557fb10e2d527612073b26eecdfd717e6a320cf44b4afac2b0732d9fcbe2b7fa0cf601879055600087815260028085529087902086518155925194830194909455519201919091558251848152925191927f57b2fe85e9479cd623f1658a5810dfccc9cf54653fd726bf7c818f6864fee32c929081900390910190a15050565b60408051606081018252600080825260208201819052918101919091529056fea165627a7a7230582001129b26beed3471b67f99da85c3e119726983e4f881a80bcadf9a900c890ba00029",
  "source": "pragma solidity ^0.5.0;\n\ncontract Users {\n\n  mapping(address => bytes32) public users;\n\n  struct Fatura{\n        bytes32 hashVenda;\n        uint estadoVenda;\n        uint valorTotal;\n    }\n\n  bytes32[] KeysFaturas;\n  mapping (bytes32 => Fatura) transacoes;\n\n  event PagamentoEfetuado(\n       bytes32 hash\n    );\n\n  event UserCreated(address indexed _address, bytes32 _pseudo);\n  event UserDestroyed(address indexed _address);\n\n  function exists (address _address) public view returns (bool _exists) {\n    return (users[_address] != bytes32(0));\n  }\n\n  function authenticate () public view returns (bytes32 _pseudo) {\n    require(exists(msg.sender));\n    return (users[msg.sender]);\n  }\n\n  function create (bytes32 _pseudo) public {\n    users[msg.sender] = _pseudo ;\n    emit UserCreated(msg.sender, _pseudo);\n  }\n\n  function destroy () public {\n    require(exists(msg.sender));\n    delete users[msg.sender];\n    emit UserDestroyed(msg.sender);\n  }\n\n  function get (address _address) public view returns(bytes32 _pseudo) {\n    require(exists(_address));\n    return (users[_address]);\n  }\n\n  function adicionarFatura(bytes32 _hash2) public  {\n        //require(isMember(msg.sender) == true,\"Sender not authorized.\");\n        \n        Fatura  memory myStruct = Fatura({hashVenda:_hash2, estadoVenda:1,valorTotal:50});\n        KeysFaturas.push(_hash2);\n        transacoes[_hash2]=myStruct;\n        emit PagamentoEfetuado(_hash2);\n    }\n\n}\n",
  "sourcePath": "/home/ricardo/Desktop/LEI/BlockchainProject/vueProject/vuebox/contracts/Users.sol",
  "compiler": {
    "name": "solc",
    "version": "0.5.0+commit.1d4f565a.Emscripten.clang"
  },
  "schemaVersion": "3.0.8",
  "updatedAt": "2019-06-13T08:57:53.298Z",
  "devdoc": {
    "methods": {}
  },
  "userdoc": {
    "methods": {}
  }
}