{
  "contractName": "Users",
  "abi": [
    {
      "constant": true,
      "inputs": [
        {
          "name": "",
          "type": "address"
        }
      ],
      "name": "users",
      "outputs": [
        {
          "name": "",
          "type": "bytes32"
        }
      ],
      "payable": false,
      "stateMutability": "view",
      "type": "function",
      "signature": "0xa87430ba"
    },
    {
      "anonymous": false,
      "inputs": [
        {
          "indexed": true,
          "name": "_address",
          "type": "address"
        },
        {
          "indexed": false,
          "name": "_pseudo",
          "type": "bytes32"
        }
      ],
      "name": "UserCreated",
      "type": "event",
      "signature": "0x18ec7dd8c4d713eb3c2e0c61825f878a47e207600626611c5bc15009c743b4b6"
    },
    {
      "anonymous": false,
      "inputs": [
        {
          "indexed": true,
          "name": "_address",
          "type": "address"
        }
      ],
      "name": "UserDestroyed",
      "type": "event",
      "signature": "0x36539d9970f057e4d26f828835b69fcfff15ff997f804dace8aed405cb98455f"
    },
    {
      "constant": true,
      "inputs": [
        {
          "name": "_address",
          "type": "address"
        }
      ],
      "name": "exists",
      "outputs": [
        {
          "name": "_exists",
          "type": "bool"
        }
      ],
      "payable": false,
      "stateMutability": "view",
      "type": "function",
      "signature": "0xf6a3d24e"
    },
    {
      "constant": true,
      "inputs": [],
      "name": "authenticate",
      "outputs": [
        {
          "name": "_pseudo",
          "type": "bytes32"
        }
      ],
      "payable": false,
      "stateMutability": "view",
      "type": "function",
      "signature": "0x380c7a67"
    },
    {
      "constant": false,
      "inputs": [
        {
          "name": "_pseudo",
          "type": "bytes32"
        }
      ],
      "name": "create",
      "outputs": [],
      "payable": false,
      "stateMutability": "nonpayable",
      "type": "function",
      "signature": "0x7368a8ce"
    },
    {
      "constant": false,
      "inputs": [],
      "name": "destroy",
      "outputs": [],
      "payable": false,
      "stateMutability": "nonpayable",
      "type": "function",
      "signature": "0x83197ef0"
    },
    {
      "constant": true,
      "inputs": [
        {
          "name": "_address",
          "type": "address"
        }
      ],
      "name": "get",
      "outputs": [
        {
          "name": "_pseudo",
          "type": "bytes32"
        }
      ],
      "payable": false,
      "stateMutability": "view",
      "type": "function",
      "signature": "0xc2bc2efc"
    }
  ],
  "bytecode": "0x608060405234801561001057600080fd5b50610275806100206000396000f3fe608060405234801561001057600080fd5b50600436106100625760003560e01c8063380c7a67146100675780637368a8ce1461008157806383197ef0146100a0578063a87430ba146100a8578063c2bc2efc146100ce578063f6a3d24e146100f4575b600080fd5b61006f61012e565b60408051918252519081900360200190f35b61009e6004803603602081101561009757600080fd5b5035610156565b005b61009e61019e565b61006f600480360360208110156100be57600080fd5b50356001600160a01b03166101ea565b61006f600480360360208110156100e457600080fd5b50356001600160a01b03166101fc565b61011a6004803603602081101561010a57600080fd5b50356001600160a01b031661022c565b604080519115158252519081900360200190f35b60006101393361022c565b61014257600080fd5b503360009081526020819052604090205490565b3360008181526020818152604091829020849055815184815291517f18ec7dd8c4d713eb3c2e0c61825f878a47e207600626611c5bc15009c743b4b69281900390910190a250565b6101a73361022c565b6101b057600080fd5b33600081815260208190526040808220829055517f36539d9970f057e4d26f828835b69fcfff15ff997f804dace8aed405cb98455f9190a2565b60006020819052908152604090205481565b60006102078261022c565b61021057600080fd5b506001600160a01b031660009081526020819052604090205490565b6001600160a01b031660009081526020819052604090205415159056fea165627a7a723058206fe3e546b978405cdce07dceaa7ce2c2d9f9e2f7c459864aef1ae152107499810029",
  "source": "pragma solidity ^0.5.0;\n\ncontract Users {\n\n  mapping(address => bytes32) public users;\n\n  event UserCreated(address indexed _address, bytes32 _pseudo);\n  event UserDestroyed(address indexed _address);\n\n  function exists (address _address) public view returns (bool _exists) {\n    return (users[_address] != bytes32(0));\n  }\n\n  function authenticate () public view returns (bytes32 _pseudo) {\n    require(exists(msg.sender));\n    return (users[msg.sender]);\n  }\n\n  function create (bytes32 _pseudo) public {\n    users[msg.sender] = _pseudo ;\n    emit UserCreated(msg.sender, _pseudo);\n  }\n\n  function destroy () public {\n    require(exists(msg.sender));\n    delete users[msg.sender];\n    emit UserDestroyed(msg.sender);\n  }\n\n  function get (address _address) public view returns(bytes32 _pseudo) {\n    require(exists(_address));\n    return (users[_address]);\n  }\n\n}\n",
  "sourcePath": "/home/pc/Desktop/vuebox/contracts/Users.sol",
  "compiler": {
    "name": "solc",
    "version": "0.5.7+commit.6da8b019.Emscripten.clang"
  },
  "schemaVersion": "3.0.0-beta.2",
  "updatedAt": "2019-04-08T14:48:29.678Z",
  "devdoc": {
    "methods": {}
  },
  "userdoc": {
    "methods": {}
  }
}