{
  "contractName": "Transferencias",
  "abi": [
    {
      "constant": true,
      "inputs": [],
      "name": "owner2",
      "outputs": [
        {
          "name": "",
          "type": "bytes32"
        }
      ],
      "payable": false,
      "stateMutability": "view",
      "type": "function",
      "signature": "0x52709725"
    },
    {
      "constant": true,
      "inputs": [],
      "name": "owner",
      "outputs": [
        {
          "name": "",
          "type": "string"
        }
      ],
      "payable": false,
      "stateMutability": "view",
      "type": "function",
      "signature": "0x8da5cb5b"
    },
    {
      "constant": true,
      "inputs": [
        {
          "name": "",
          "type": "uint256"
        }
      ],
      "name": "participantes",
      "outputs": [
        {
          "name": "",
          "type": "address"
        }
      ],
      "payable": false,
      "stateMutability": "view",
      "type": "function",
      "signature": "0xb25924c1"
    },
    {
      "inputs": [],
      "payable": false,
      "stateMutability": "nonpayable",
      "type": "constructor",
      "signature": "constructor"
    },
    {
      "anonymous": false,
      "inputs": [
        {
          "indexed": false,
          "name": "name",
          "type": "string"
        },
        {
          "indexed": false,
          "name": "age",
          "type": "uint256"
        }
      ],
      "name": "Exemplo",
      "type": "event",
      "signature": "0x9248a77bbe413ca7fda21b9e18cbd8bcebfaf4236c06a66f70a3fe6296a297e7"
    },
    {
      "constant": false,
      "inputs": [
        {
          "name": "hash2",
          "type": "uint256"
        },
        {
          "name": "estado",
          "type": "uint256"
        }
      ],
      "name": "adicionarFatura",
      "outputs": [],
      "payable": false,
      "stateMutability": "nonpayable",
      "type": "function",
      "signature": "0xb94ea29e"
    },
    {
      "constant": false,
      "inputs": [
        {
          "name": "hash2",
          "type": "uint256"
        },
        {
          "name": "estado",
          "type": "uint256"
        }
      ],
      "name": "alterarEstadoFatura",
      "outputs": [],
      "payable": false,
      "stateMutability": "nonpayable",
      "type": "function",
      "signature": "0xda4b6269"
    },
    {
      "constant": true,
      "inputs": [
        {
          "name": "hash2",
          "type": "uint256"
        }
      ],
      "name": "getEstado",
      "outputs": [
        {
          "name": "estado",
          "type": "uint256"
        }
      ],
      "payable": false,
      "stateMutability": "view",
      "type": "function",
      "signature": "0x1ad9b019"
    },
    {
      "constant": false,
      "inputs": [],
      "name": "adicionarParticipante",
      "outputs": [],
      "payable": false,
      "stateMutability": "nonpayable",
      "type": "function",
      "signature": "0x16a79522"
    },
    {
      "constant": true,
      "inputs": [],
      "name": "getLength",
      "outputs": [
        {
          "name": "count",
          "type": "uint256"
        }
      ],
      "payable": false,
      "stateMutability": "view",
      "type": "function",
      "signature": "0xbe1c766b"
    }
  ],
  "bytecode": "0x608060405234801561001057600080fd5b506040805190810160405280600881526020017f7072696d6569726f0000000000000000000000000000000000000000000000008152506001908051906020019061005c929190610226565b506100aa6040805190810160405280600881526020017f7072696d6569726f0000000000000000000000000000000000000000000000008152506101a9640100000000026401000000009004565b6002819055506000731fb4c08aea29a6642d8c963f1ca01c15c63385bc90806001815401808255809150509060018203906000526020600020016000909192909190916101000a81548173ffffffffffffffffffffffffffffffffffffffff021916908373ffffffffffffffffffffffffffffffffffffffff16021790555050600073db254afdcacea500c4f7449c4b9f9da3e1224f8190806001815401808255809150509060018203906000526020600020016000909192909190916101000a81548173ffffffffffffffffffffffffffffffffffffffff021916908373ffffffffffffffffffffffffffffffffffffffff160217905550506102cb565b6000816040516020018082805190602001908083835b6020831015156101e457805182526020820191506020810190506020830392506101bf565b6001836020036101000a038019825116818451168082178552505050505050905001915050604051602081830303815290604052805190602001209050919050565b828054600181600116156101000203166002900490600052602060002090601f016020900481019282601f1061026757805160ff1916838001178555610295565b82800160010185558215610295579182015b82811115610294578251825591602001919060010190610279565b5b5090506102a291906102a6565b5090565b6102c891905b808211156102c45760008160009055506001016102ac565b5090565b90565b61090f806102da6000396000f3fe60806040526004361061008e576000357c0100000000000000000000000000000000000000000000000000000000900463ffffffff16806316a79522146100935780631ad9b019146100aa57806352709725146100f95780638da5cb5b14610124578063b25924c1146101b4578063b94ea29e1461022f578063be1c766b14610274578063da4b62691461029f575b600080fd5b34801561009f57600080fd5b506100a86102e4565b005b3480156100b657600080fd5b506100e3600480360360208110156100cd57600080fd5b8101908080359060200190929190505050610441565b6040518082815260200191505060405180910390f35b34801561010557600080fd5b5061010e610510565b6040518082815260200191505060405180910390f35b34801561013057600080fd5b50610139610516565b6040518080602001828103825283818151815260200191508051906020019080838360005b8381101561017957808201518184015260208101905061015e565b50505050905090810190601f1680156101a65780820380516001836020036101000a031916815260200191505b509250505060405180910390f35b3480156101c057600080fd5b506101ed600480360360208110156101d757600080fd5b81019080803590602001909291905050506105b4565b604051808273ffffffffffffffffffffffffffffffffffffffff1673ffffffffffffffffffffffffffffffffffffffff16815260200191505060405180910390f35b34801561023b57600080fd5b506102726004803603604081101561025257600080fd5b8101908080359060200190929190803590602001909291905050506105f2565b005b34801561028057600080fd5b506102896106f1565b6040518082815260200191505060405180910390f35b3480156102ab57600080fd5b506102e2600480360360408110156102c257600080fd5b810190808035906020019092919080359060200190929190505050610782565b005b600115156102f133610825565b1515141515610368576040517f08c379a00000000000000000000000000000000000000000000000000000000081526004018080602001828103825260168152602001807f53656e646572206e6f7420617574686f72697a65642e0000000000000000000081525060200191505060405180910390fd5b60003390806001815401808255809150509060018203906000526020600020016000909192909190916101000a81548173ffffffffffffffffffffffffffffffffffffffff021916908373ffffffffffffffffffffffffffffffffffffffff160217905550507f9248a77bbe413ca7fda21b9e18cbd8bcebfaf4236c06a66f70a3fe6296a297e7607b6040518080602001838152602001828103825260038152602001807f6f6c6100000000000000000000000000000000000000000000000000000000008152506020019250505060405180910390a1565b60006001151561045033610825565b15151415156104c7576040517f08c379a00000000000000000000000000000000000000000000000000000000081526004018080602001828103825260168152602001807f53656e646572206e6f7420617574686f72697a65642e0000000000000000000081525060200191505060405180910390fd5b6104cf6108c9565b600460008481526020019081526020016000206040805190810160405290816000820154815260200160018201548152505090508060200151915050919050565b60025481565b60018054600181600116156101000203166002900480601f0160208091040260200160405190810160405280929190818152602001828054600181600116156101000203166002900480156105ac5780601f10610581576101008083540402835291602001916105ac565b820191906000526020600020905b81548152906001019060200180831161058f57829003601f168201915b505050505081565b6000818154811015156105c357fe5b906000526020600020016000915054906101000a900473ffffffffffffffffffffffffffffffffffffffff1681565b600115156105ff33610825565b1515141515610676576040517f08c379a00000000000000000000000000000000000000000000000000000000081526004018080602001828103825260168152602001807f53656e646572206e6f7420617574686f72697a65642e0000000000000000000081525060200191505060405180910390fd5b61067e6108c9565b6040805190810160405280848152602001838152509050600383908060018154018082558091505090600182039060005260206000200160009091929091909150555080600460008581526020019081526020016000206000820151816000015560208201518160010155905050505050565b60006001151561070033610825565b1515141515610777576040517f08c379a00000000000000000000000000000000000000000000000000000000081526004018080602001828103825260168152602001807f53656e646572206e6f7420617574686f72697a65642e0000000000000000000081525060200191505060405180910390fd5b600080549050905090565b6001151561078f33610825565b1515141515610806576040517f08c379a00000000000000000000000000000000000000000000000000000000081526004018080602001828103825260168152602001807f53656e646572206e6f7420617574686f72697a65642e0000000000000000000081525060200191505060405180910390fd5b8060046000848152602001908152602001600020600101819055505050565b600080905060008090505b6000805490508110156108c0573373ffffffffffffffffffffffffffffffffffffffff1660008281548110151561086357fe5b9060005260206000200160009054906101000a900473ffffffffffffffffffffffffffffffffffffffff1673ffffffffffffffffffffffffffffffffffffffff1614156108b357600191506108c0565b8080600101915050610830565b50809050919050565b60408051908101604052806000815260200160008152509056fea165627a7a723058209a981125f28c994d81e983746edf42fbf2ef709042f0664bead048accf38d83c0029",
  "source": "pragma solidity ^0.5.0;\n\ncontract Transferencias {\n\n    address[] public participantes;\n    string public owner;\n    bytes32 public owner2;\n\n    struct Fatura{\n        uint hashVenda;\n        uint estadoVenda;\n    }\n\n    uint[] KeysFaturas;\n    mapping (uint => Fatura) transacoes;\n    \n    //eventos teste \n    event Exemplo(\n       string name,\n       uint age\n    );\n    \n    /// The smart contract's constructor\n    constructor() public {\n        owner = \"primeiro\";\n        owner2= calculateHash(\"primeiro\");\n        \n\n        //adicionar os participantes\n        participantes.push(0x1Fb4C08AeA29A6642D8C963F1ca01c15C63385bc);\n        participantes.push(0xdB254AFdcaCEa500C4f7449c4b9F9DA3e1224F81);\n\n    }\n\n    function adicionarFatura(uint hash2,uint estado) public  {\n        require(isMember(msg.sender) == true,\"Sender not authorized.\");\n        \n        Fatura  memory myStruct = Fatura({hashVenda:hash2, estadoVenda:estado});\n        KeysFaturas.push(hash2);\n        transacoes[hash2]=myStruct;\n    }\n\n    function alterarEstadoFatura(uint hash2, uint estado) public{\n\n            require(isMember(msg.sender) == true,\"Sender not authorized.\");\n            transacoes[hash2].estadoVenda=estado;\n            //emitir aqui qqr coisa dependentemente disto        \n    }\n\n    function getEstado(uint hash2) public view returns (uint estado) {\n            require(isMember(msg.sender) == true,\"Sender not authorized.\");\n            Fatura memory fatura = transacoes[hash2];\n            return fatura.estadoVenda;\n    }\n\n    function adicionarParticipante() public{\n        require(isMember(msg.sender) == true,\"Sender not authorized.\");\n        participantes.push(msg.sender);\n        emit Exemplo(\"ola\",123); \n\n    }\n\n    function getLength() public  view returns (uint count) {\n        require(isMember(msg.sender) == true,\"Sender not authorized.\");\n        return participantes.length;\n    }\n\n\n    function calculateHash(string memory s )  private  returns (bytes32 res) \n    {\n        return keccak256(abi.encodePacked(s));\n    }\n\n    function isMember(address add) private view returns (bool res) {\n        res=false;\n        for (uint i=0; i<participantes.length; i++) {\n            if (participantes[i] == msg.sender) {\n                res=true;\n                break;\n            }\n        }\n        return res;\n    }\n\n}\n\n",
  "sourcePath": "/home/pc/Desktop/2semestre/Eng_seg/BlockchainProject/contracts/Transferencias.sol",
  "compiler": {
    "name": "solc",
    "version": "0.5.0+commit.1d4f565a.Emscripten.clang"
  },
  "schemaVersion": "3.0.5",
  "updatedAt": "2019-03-28T08:17:42.697Z",
  "devdoc": {
    "methods": {}
  },
  "userdoc": {
    "methods": {
      "constructor": "The smart contract's constructor"
    }
  }
}