{
  "contractName": "Transferencias",
  "abi": [
    {
      "constant": true,
      "inputs": [
        {
          "name": "",
          "type": "uint256"
        }
      ],
      "name": "participantes",
      "outputs": [
        {
          "name": "",
          "type": "address"
        }
      ],
      "payable": false,
      "stateMutability": "view",
      "type": "function",
      "signature": "0xb25924c1"
    },
    {
      "inputs": [],
      "payable": false,
      "stateMutability": "nonpayable",
      "type": "constructor",
      "signature": "constructor"
    },
    {
      "anonymous": false,
      "inputs": [
        {
          "indexed": false,
          "name": "name",
          "type": "string"
        },
        {
          "indexed": false,
          "name": "age",
          "type": "uint256"
        }
      ],
      "name": "Exemplo",
      "type": "event",
      "signature": "0x9248a77bbe413ca7fda21b9e18cbd8bcebfaf4236c06a66f70a3fe6296a297e7"
    },
    {
      "constant": false,
      "inputs": [],
      "name": "adicionarParticipante",
      "outputs": [],
      "payable": false,
      "stateMutability": "nonpayable",
      "type": "function",
      "signature": "0x16a79522"
    },
    {
      "constant": true,
      "inputs": [],
      "name": "getLength",
      "outputs": [
        {
          "name": "count",
          "type": "uint256"
        }
      ],
      "payable": false,
      "stateMutability": "view",
      "type": "function",
      "signature": "0xbe1c766b"
    }
  ],
  "bytecode": "0x608060405234801561001057600080fd5b506040805190810160405280600881526020017f7072696d6569726f0000000000000000000000000000000000000000000000008152506001908051906020019061005c929190610062565b50610107565b828054600181600116156101000203166002900490600052602060002090601f016020900481019282601f106100a357805160ff19168380011785556100d1565b828001600101855582156100d1579182015b828111156100d05782518255916020019190600101906100b5565b5b5090506100de91906100e2565b5090565b61010491905b808211156101005760008160009055506001016100e8565b5090565b90565b610268806101166000396000f3fe608060405260043610610057576000357c0100000000000000000000000000000000000000000000000000000000900463ffffffff16806316a795221461005c578063b25924c114610073578063be1c766b146100ee575b600080fd5b34801561006857600080fd5b50610071610119565b005b34801561007f57600080fd5b506100ac6004803603602081101561009657600080fd5b81019080803590602001909291905050506101f2565b604051808273ffffffffffffffffffffffffffffffffffffffff1673ffffffffffffffffffffffffffffffffffffffff16815260200191505060405180910390f35b3480156100fa57600080fd5b50610103610230565b6040518082815260200191505060405180910390f35b60003390806001815401808255809150509060018203906000526020600020016000909192909190916101000a81548173ffffffffffffffffffffffffffffffffffffffff021916908373ffffffffffffffffffffffffffffffffffffffff160217905550507f9248a77bbe413ca7fda21b9e18cbd8bcebfaf4236c06a66f70a3fe6296a297e7607b6040518080602001838152602001828103825260038152602001807f6f6c6100000000000000000000000000000000000000000000000000000000008152506020019250505060405180910390a1565b60008181548110151561020157fe5b906000526020600020016000915054906101000a900473ffffffffffffffffffffffffffffffffffffffff1681565b6000808054905090509056fea165627a7a723058200cec7c72f91d411cd407a7db4faa4821a741d3741bc1a81aa28463f3e39b18920029",
  "source": "pragma solidity ^0.5.0;\n\ncontract Transferencias {\n\n    address[] public participantes;\n    string  owner;\n\n    struct Jogador{\n        uint id;\n        string nome;\n        uint idade;\n        string nascimento;\n    }\n\n    struct Venda {\n        uint contribuinteOri;\n        uint contribuinteDest;\n        uint valorTotal;\n        uint valorIva;\n        Jogador jogador;\n        uint data;  \n    }\n\n    struct Fatura{\n        uint hashVenda;\n        Venda venda;\n        uint estadoVenda;\n    }\n\n    \n    mapping (address => Fatura) transacoes;\n    mapping (uint => Jogador) jogadores;\n\n\n    \n    /// The smart contract's constructor\n    constructor() public {\n        owner = \"primeiro\";\n    \n    }\n    event Exemplo(\n       string name,\n       uint age\n    );\n\n    function adicionarParticipante() public{\n        participantes.push(msg.sender);\n        emit Exemplo(\"ola\",123); \n\n    }\n\n    function getLength() public view returns (uint count) {\n        return participantes.length;\n    }\n    \n\n\n}\n\n",
  "sourcePath": "/home/pc/Desktop/2semestre/Eng_seg/BlockchainProject/contracts/Transferencias.sol",
  "compiler": {
    "name": "solc",
    "version": "0.5.0+commit.1d4f565a.Emscripten.clang"
  },
  "schemaVersion": "3.0.5",
  "updatedAt": "2019-03-22T13:48:42.183Z",
  "devdoc": {
    "methods": {}
  },
  "userdoc": {
    "methods": {
      "constructor": "The smart contract's constructor"
    }
  }
}