{
  "contractName": "Transferencias",
  "abi": [
    {
      "constant": true,
      "inputs": [
        {
          "name": "",
          "type": "uint256"
        }
      ],
      "name": "bancos",
      "outputs": [
        {
          "name": "",
          "type": "address"
        }
      ],
      "payable": false,
      "stateMutability": "view",
      "type": "function",
      "signature": "0x213dee1b"
    },
    {
      "constant": true,
      "inputs": [],
      "name": "ownerAcc",
      "outputs": [
        {
          "name": "",
          "type": "address"
        }
      ],
      "payable": false,
      "stateMutability": "view",
      "type": "function",
      "signature": "0x4826dd40"
    },
    {
      "constant": true,
      "inputs": [],
      "name": "owner2",
      "outputs": [
        {
          "name": "",
          "type": "bytes32"
        }
      ],
      "payable": false,
      "stateMutability": "view",
      "type": "function",
      "signature": "0x52709725"
    },
    {
      "constant": true,
      "inputs": [
        {
          "name": "",
          "type": "uint256"
        }
      ],
      "name": "equipas",
      "outputs": [
        {
          "name": "",
          "type": "address"
        }
      ],
      "payable": false,
      "stateMutability": "view",
      "type": "function",
      "signature": "0x6d73b6db"
    },
    {
      "constant": true,
      "inputs": [],
      "name": "owner",
      "outputs": [
        {
          "name": "",
          "type": "string"
        }
      ],
      "payable": false,
      "stateMutability": "view",
      "type": "function",
      "signature": "0x8da5cb5b"
    },
    {
      "constant": true,
      "inputs": [
        {
          "name": "",
          "type": "uint256"
        }
      ],
      "name": "federacao",
      "outputs": [
        {
          "name": "",
          "type": "address"
        }
      ],
      "payable": false,
      "stateMutability": "view",
      "type": "function",
      "signature": "0xf47ff894"
    },
    {
      "inputs": [],
      "payable": false,
      "stateMutability": "nonpayable",
      "type": "constructor",
      "signature": "constructor"
    },
    {
      "anonymous": false,
      "inputs": [
        {
          "indexed": false,
          "name": "name",
          "type": "string"
        },
        {
          "indexed": false,
          "name": "age",
          "type": "uint256"
        }
      ],
      "name": "Exemplo",
      "type": "event",
      "signature": "0x9248a77bbe413ca7fda21b9e18cbd8bcebfaf4236c06a66f70a3fe6296a297e7"
    },
    {
      "constant": false,
      "inputs": [
        {
          "name": "valor",
          "type": "uint256"
        },
        {
          "name": "emitData",
          "type": "string"
        },
        {
          "name": "hash",
          "type": "uint256"
        }
      ],
      "name": "adicionaFatura",
      "outputs": [],
      "payable": false,
      "stateMutability": "nonpayable",
      "type": "function",
      "signature": "0xa561f7a2"
    },
    {
      "constant": false,
      "inputs": [
        {
          "name": "hash",
          "type": "uint256"
        }
      ],
      "name": "recebeFatura",
      "outputs": [],
      "payable": false,
      "stateMutability": "nonpayable",
      "type": "function",
      "signature": "0xd8e72405"
    },
    {
      "constant": false,
      "inputs": [
        {
          "name": "hash",
          "type": "uint256"
        },
        {
          "name": "aceitar",
          "type": "bool"
        }
      ],
      "name": "validaFatura",
      "outputs": [],
      "payable": false,
      "stateMutability": "nonpayable",
      "type": "function",
      "signature": "0x9935da1a"
    },
    {
      "constant": false,
      "inputs": [
        {
          "name": "hash",
          "type": "uint256"
        }
      ],
      "name": "pagaFatura",
      "outputs": [],
      "payable": false,
      "stateMutability": "nonpayable",
      "type": "function",
      "signature": "0x97795c09"
    },
    {
      "constant": false,
      "inputs": [
        {
          "name": "hash",
          "type": "uint256"
        }
      ],
      "name": "validaPagamento",
      "outputs": [],
      "payable": false,
      "stateMutability": "nonpayable",
      "type": "function",
      "signature": "0x5d7a5ae6"
    },
    {
      "constant": false,
      "inputs": [
        {
          "name": "hash",
          "type": "uint256"
        }
      ],
      "name": "pagaPercentagem",
      "outputs": [],
      "payable": false,
      "stateMutability": "nonpayable",
      "type": "function",
      "signature": "0x873f42c5"
    },
    {
      "constant": true,
      "inputs": [
        {
          "name": "hash",
          "type": "uint256"
        }
      ],
      "name": "getEstado",
      "outputs": [
        {
          "name": "estado",
          "type": "uint256"
        }
      ],
      "payable": false,
      "stateMutability": "view",
      "type": "function",
      "signature": "0x1ad9b019"
    },
    {
      "constant": false,
      "inputs": [],
      "name": "adicionarEquipa",
      "outputs": [],
      "payable": false,
      "stateMutability": "nonpayable",
      "type": "function",
      "signature": "0xdee151f3"
    },
    {
      "constant": false,
      "inputs": [],
      "name": "adicionarBanco",
      "outputs": [],
      "payable": false,
      "stateMutability": "nonpayable",
      "type": "function",
      "signature": "0x5e5cc1a8"
    },
    {
      "constant": true,
      "inputs": [],
      "name": "getTeamsLength",
      "outputs": [
        {
          "name": "count",
          "type": "uint256"
        }
      ],
      "payable": false,
      "stateMutability": "view",
      "type": "function",
      "signature": "0x80fe6c3a"
    },
    {
      "constant": true,
      "inputs": [],
      "name": "getBanksLength",
      "outputs": [
        {
          "name": "count",
          "type": "uint256"
        }
      ],
      "payable": false,
      "stateMutability": "view",
      "type": "function",
      "signature": "0x1b3ebe3b"
    }
  ],
  "bytecode": "0x608060405234801561001057600080fd5b506040518060400160405280600881526020017f7072696d6569726f0000000000000000000000000000000000000000000000008152506004908051906020019061005c929190610224565b506100aa6040518060400160405280600881526020017f7072696d6569726f0000000000000000000000000000000000000000000000008152506101a9640100000000026401000000009004565b6005819055506000731fb4c08aea29a6642d8c963f1ca01c15c63385bc90806001815401808255809150509060018203906000526020600020016000909192909190916101000a81548173ffffffffffffffffffffffffffffffffffffffff021916908373ffffffffffffffffffffffffffffffffffffffff16021790555050600073db254afdcacea500c4f7449c4b9f9da3e1224f8190806001815401808255809150509060018203906000526020600020016000909192909190916101000a81548173ffffffffffffffffffffffffffffffffffffffff021916908373ffffffffffffffffffffffffffffffffffffffff160217905550506102c9565b6000816040516020018082805190602001908083835b602083106101e257805182526020820191506020810190506020830392506101bf565b6001836020036101000a038019825116818451168082178552505050505050905001915050604051602081830303815290604052805190602001209050919050565b828054600181600116156101000203166002900490600052602060002090601f016020900481019282601f1061026557805160ff1916838001178555610293565b82800160010185558215610293579182015b82811115610292578251825591602001919060010190610277565b5b5090506102a091906102a4565b5090565b6102c691905b808211156102c25760008160009055506001016102aa565b5090565b90565b610ce180620002d96000396000f3fe608060405234801561001057600080fd5b5060043610610128576000357c01000000000000000000000000000000000000000000000000000000009004806380fe6c3a116100bf5780639935da1a1161008e5780639935da1a14610406578063a561f7a214610440578063d8e724051461050f578063dee151f31461053d578063f47ff8941461054757610128565b806380fe6c3a14610309578063873f42c5146103275780638da5cb5b1461035557806397795c09146103d857610128565b806352709725116100fb57806352709725146102455780635d7a5ae6146102635780635e5cc1a8146102915780636d73b6db1461029b57610128565b80631ad9b0191461012d5780631b3ebe3b1461016f578063213dee1b1461018d5780634826dd40146101fb575b600080fd5b6101596004803603602081101561014357600080fd5b81019080803590602001909291905050506105b5565b6040518082815260200191505060405180910390f35b6101776106a2565b6040518082815260200191505060405180910390f35b6101b9600480360360208110156101a357600080fd5b81019080803590602001909291905050506106af565b604051808273ffffffffffffffffffffffffffffffffffffffff1673ffffffffffffffffffffffffffffffffffffffff16815260200191505060405180910390f35b6102036106eb565b604051808273ffffffffffffffffffffffffffffffffffffffff1673ffffffffffffffffffffffffffffffffffffffff16815260200191505060405180910390f35b61024d610711565b6040518082815260200191505060405180910390f35b61028f6004803603602081101561027957600080fd5b8101908080359060200190929190505050610717565b005b610299610756565b005b6102c7600480360360208110156102b157600080fd5b810190808035906020019092919050505061082f565b604051808273ffffffffffffffffffffffffffffffffffffffff1673ffffffffffffffffffffffffffffffffffffffff16815260200191505060405180910390f35b61031161086b565b6040518082815260200191505060405180910390f35b6103536004803603602081101561033d57600080fd5b8101908080359060200190929190505050610877565b005b61035d6108b6565b6040518080602001828103825283818151815260200191508051906020019080838360005b8381101561039d578082015181840152602081019050610382565b50505050905090810190601f1680156103ca5780820380516001836020036101000a031916815260200191505b509250505060405180910390f35b610404600480360360208110156103ee57600080fd5b8101908080359060200190929190505050610954565b005b61043e6004803603604081101561041c57600080fd5b8101908080359060200190929190803515159060200190929190505050610993565b005b61050d6004803603606081101561045657600080fd5b81019080803590602001909291908035906020019064010000000081111561047d57600080fd5b82018360208201111561048f57600080fd5b803590602001918460018302840111640100000000831117156104b157600080fd5b91908080601f016020809104026020016040519081016040528093929190818152602001838380828437600081840152601f19601f820116905080830192505050505050509192919290803590602001909291905050506109fb565b005b61053b6004803603602081101561052557600080fd5b8101908080359060200190929190505050610a9b565b005b610545610ada565b005b6105736004803603602081101561055d57600080fd5b8101908080359060200190929190505050610bb3565b604051808273ffffffffffffffffffffffffffffffffffffffff1673ffffffffffffffffffffffffffffffffffffffff16815260200191505060405180910390f35b60006105bf610bef565b6007600084815260200190815260200160002060405180606001604052908160008201548152602001600182018054600181600116156101000203166002900480601f0160208091040260200160405190810160405280929190818152602001828054600181600116156101000203166002900480156106805780601f1061065557610100808354040283529160200191610680565b820191906000526020600020905b81548152906001019060200180831161066357829003601f168201915b5050505050815260200160028201548152505090508060400151915050919050565b6000600180549050905090565b600181815481106106bc57fe5b906000526020600020016000915054906101000a900473ffffffffffffffffffffffffffffffffffffffff1681565b600360009054906101000a900473ffffffffffffffffffffffffffffffffffffffff1681565b60055481565b60046007600083815260200190815260200160002060020154141561075357600560076000838152602001908152602001600020600201819055505b50565b60013390806001815401808255809150509060018203906000526020600020016000909192909190916101000a81548173ffffffffffffffffffffffffffffffffffffffff021916908373ffffffffffffffffffffffffffffffffffffffff160217905550507f9248a77bbe413ca7fda21b9e18cbd8bcebfaf4236c06a66f70a3fe6296a297e7607b6040518080602001838152602001828103825260038152602001807f6f6c6100000000000000000000000000000000000000000000000000000000008152506020019250505060405180910390a1565b6000818154811061083c57fe5b906000526020600020016000915054906101000a900473ffffffffffffffffffffffffffffffffffffffff1681565b60008080549050905090565b6005600760008381526020019081526020016000206002015414156108b357600660076000838152602001908152602001600020600201819055505b50565b60048054600181600116156101000203166002900480601f01602080910402602001604051908101604052809291908181526020018280546001816001161561010002031660029004801561094c5780601f106109215761010080835404028352916020019161094c565b820191906000526020600020905b81548152906001019060200180831161092f57829003601f168201915b505050505081565b60036007600083815260200190815260200160002060020154141561099057600460076000838152602001908152602001600020600201819055505b50565b6002600760008481526020019081526020016000206002015414156109f75780156109d957600360076000848152602001908152602001600020600201819055506109f6565b600060076000848152602001908152602001600020600201819055505b5b5050565b610a03610bef565b60405180606001604052808581526020018481526020016001815250905060068290806001815401808255809150509060018203906000526020600020016000909192909190915055508060076000848152602001908152602001600020600082015181600001556020820151816001019080519060200190610a87929190610c10565b506040820151816002015590505050505050565b600160076000838152602001908152602001600020600201541415610ad757600260076000838152602001908152602001600020600201819055505b50565b60003390806001815401808255809150509060018203906000526020600020016000909192909190916101000a81548173ffffffffffffffffffffffffffffffffffffffff021916908373ffffffffffffffffffffffffffffffffffffffff160217905550507f9248a77bbe413ca7fda21b9e18cbd8bcebfaf4236c06a66f70a3fe6296a297e7607b6040518080602001838152602001828103825260038152602001807f6f6c6100000000000000000000000000000000000000000000000000000000008152506020019250505060405180910390a1565b60028181548110610bc057fe5b906000526020600020016000915054906101000a900473ffffffffffffffffffffffffffffffffffffffff1681565b60405180606001604052806000815260200160608152602001600081525090565b828054600181600116156101000203166002900490600052602060002090601f016020900481019282601f10610c5157805160ff1916838001178555610c7f565b82800160010185558215610c7f579182015b82811115610c7e578251825591602001919060010190610c63565b5b509050610c8c9190610c90565b5090565b610cb291905b80821115610cae576000816000905550600101610c96565b5090565b9056fea165627a7a72305820708e6d115f60196a5a5d73bbde3053ee4b9b64862be39e6e73619e9c131c07da0029",
  "source": "pragma solidity ^0.5.0;\n\ncontract Transferencias {\n\n    address[] public equipas;\n    address[] public bancos;\n    address[] public federacao;\n    address public ownerAcc;\n    string public owner;\n    bytes32 public owner2;\n\n    struct Fatura{\n        uint valorTotal;\n        string data;\n        uint estadoVenda;\n    }\n\n    uint[] KeysFaturas;\n    mapping (uint => Fatura) transacoes;\n    \n    //eventos teste \n    event Exemplo(\n       string name,\n       uint age\n    );\n    \n    /// The smart contract's constructor\n    constructor() public {\n        owner = \"primeiro\";\n        owner2= calculateHash(\"primeiro\");\n        \n        //adicionar os participantes\n        equipas.push(0x1Fb4C08AeA29A6642D8C963F1ca01c15C63385bc);\n        equipas.push(0xdB254AFdcaCEa500C4f7449c4b9F9DA3e1224F81);\n\n    }\n\n    function adicionaFatura(uint valor, string memory emitData, uint hash) public {\n        //require(isTeam(msg.sender) == true,\"Sender not authorized.\");\n        \n        Fatura memory myStruct = Fatura({valorTotal:valor, data:emitData, estadoVenda:1});\n        KeysFaturas.push(hash);\n        transacoes[hash] = myStruct;\n    }\n\n    function recebeFatura(uint hash) public{\n        //require(isTeam(msg.sender) == true,\"Sender not authorized.\");\n\n        if(transacoes[hash].estadoVenda == 1)\n            transacoes[hash].estadoVenda = 2;        \n    }\n\n    function validaFatura(uint hash, bool aceitar) public{\n        //require(isTeam(msg.sender) == true,\"Sender not authorized.\");\n        \n        if(transacoes[hash].estadoVenda == 2)\n            if(aceitar)\n                transacoes[hash].estadoVenda = 3; \n            else\n                transacoes[hash].estadoVenda = 0; \n    }\n\n    function pagaFatura(uint hash) public{\n        //require(isTeam(msg.sender) == true,\"Sender not authorized.\");\n        \n        if(transacoes[hash].estadoVenda == 3)\n            transacoes[hash].estadoVenda = 4; \n    }\n\n\n    function validaPagamento(uint hash) public{\n        //require(isBank(msg.sender) == true,\"Sender not authorized.\");\n        \n        if(transacoes[hash].estadoVenda == 4)\n            transacoes[hash].estadoVenda = 5; \n    }\n\n\n    function pagaPercentagem(uint hash) public{\n        //require(isTeam(msg.sender) == true,\"Sender not authorized.\");\n        \n        if(transacoes[hash].estadoVenda == 5)\n            transacoes[hash].estadoVenda = 6; \n    }\n\n\n    function getEstado(uint hash) public view returns (uint estado) {\n        //require(isMember(msg.sender) == true,\"Sender not authorized.\");\n        Fatura memory fatura = transacoes[hash];\n        return fatura.estadoVenda;\n    }\n\n    function adicionarEquipa() public{\n        //require(msg.sender == ownerAcc, \"Sender not authorized.\");\n        equipas.push(msg.sender);\n        emit Exemplo(\"ola\",123); \n    }\n\n    function adicionarBanco() public{\n        //require(msg.sender == ownerAcc, \"Sender not authorized.\");\n        bancos.push(msg.sender);\n        emit Exemplo(\"ola\",123); \n    }\n\n    function getTeamsLength() public view returns (uint count) {\n        //require(isMember(msg.sender) == true,\"Sender not authorized.\");\n        return equipas.length;\n    }\n\n    function getBanksLength() public view returns (uint count) {\n        //require(isMember(msg.sender) == true,\"Sender not authorized.\");\n        return bancos.length;\n    }\n\n    function calculateHash(string memory s ) internal pure returns (bytes32 res) {\n        return keccak256(abi.encodePacked(s));\n    }\n\n    function isTeam(address add) private view returns (bool res) {\n        res=false;\n        for (uint i=0; i<equipas.length; i++) {\n            if (equipas[i] == add) {\n                res=true;\n                break;\n            }\n        }\n        return res;\n    }\n\n    function isBank(address add) private view returns (bool res) {\n        res=false;\n        for (uint i=0; i<bancos.length; i++) {\n            if (bancos[i] == add) {\n                res=true;\n                break;\n            }\n        }\n        return res;\n    }\n\n    function isFederation(address add) private view returns (bool res) {\n        res=false;\n        for (uint i=0; i<federacao.length; i++) {\n            if (equipas[i] == add) {\n                res=true;\n                break;\n            }\n        }\n        return res;\n    }\n\n    function isMember(address add) private view returns (bool res) {\n        return (isTeam(add) || isBank(add) || isFederation(add));\n    }\n\n}\n\n",
  "sourcePath": "/home/pc/Desktop/2semestre/Eng_seg/BlockchainProject/contracts/Transferencias.sol",
  "compiler": {
    "name": "solc",
    "version": "0.5.7+commit.6da8b019.Emscripten.clang"
  },
  "schemaVersion": "3.0.0-beta.2",
  "updatedAt": "2019-06-06T20:50:13.827Z",
  "devdoc": {
    "methods": {}
  },
  "userdoc": {
    "methods": {
      "constructor": "The smart contract's constructor"
    }
  }
}