{
  "contractName": "Transferencia",
  "abi": [
    {
      "constant": true,
      "inputs": [],
      "name": "owner",
      "outputs": [
        {
          "name": "",
          "type": "address"
        }
      ],
      "payable": false,
      "stateMutability": "view",
      "type": "function"
    },
    {
      "constant": true,
      "inputs": [
        {
          "name": "",
          "type": "uint256"
        }
      ],
      "name": "participantes",
      "outputs": [
        {
          "name": "",
          "type": "address"
        }
      ],
      "payable": false,
      "stateMutability": "view",
      "type": "function"
    },
    {
      "constant": false,
      "inputs": [],
      "name": "Deal",
      "outputs": [],
      "payable": true,
      "stateMutability": "payable",
      "type": "function"
    }
  ],
  "bytecode": "0x608060405234801561001057600080fd5b50610202806100206000396000f3fe608060405260043610610057576000357c0100000000000000000000000000000000000000000000000000000000900463ffffffff1680635778bec21461005c5780638da5cb5b14610066578063b25924c1146100bd575b600080fd5b610064610138565b005b34801561007257600080fd5b5061007b61017b565b604051808273ffffffffffffffffffffffffffffffffffffffff1673ffffffffffffffffffffffffffffffffffffffff16815260200191505060405180910390f35b3480156100c957600080fd5b506100f6600480360360208110156100e057600080fd5b81019080803590602001909291905050506101a1565b604051808273ffffffffffffffffffffffffffffffffffffffff1673ffffffffffffffffffffffffffffffffffffffff16815260200191505060405180910390f35b33600a60006101000a81548173ffffffffffffffffffffffffffffffffffffffff021916908373ffffffffffffffffffffffffffffffffffffffff160217905550565b600a60009054906101000a900473ffffffffffffffffffffffffffffffffffffffff1681565b600081600a811015156101b057fe5b016000915054906101000a900473ffffffffffffffffffffffffffffffffffffffff168156fea165627a7a72305820830e76a8f724b7bf147f3fc329ddeeeb2e50617c596d67685c31105ae4e95b790029",
  "source": "pragma solidity ^0.5.0;\n\ncontract Transferencia {\n\n    address[10] public participantes;\n    address public owner;\n    \n      /// The smart contract's constructor\n    function Deal() public payable {\n        owner = msg.sender;\n    \n    }\n    \n\n}",
  "sourcePath": "/home/pc/Desktop/2semestre/Eng_seg/BlockchainProject/contracts/Transferencias.sol",
  "compiler": {
    "name": "solc",
    "version": "0.5.0+commit.1d4f565a.Emscripten.clang"
  },
  "schemaVersion": "3.0.2",
  "updatedAt": "2019-03-19T15:21:09.487Z",
  "devdoc": {
    "methods": {}
  },
  "userdoc": {
    "methods": {
      "Deal()": {
        "notice": "The smart contract's constructor"
      }
    }
  }
}