{
  "contractName": "Transferencias",
  "abi": [
    {
      "constant": true,
      "inputs": [],
      "name": "owner",
      "outputs": [
        {
          "name": "",
          "type": "string"
        }
      ],
      "payable": false,
      "stateMutability": "view",
      "type": "function",
      "signature": "0x8da5cb5b"
    },
    {
      "constant": true,
      "inputs": [
        {
          "name": "",
          "type": "uint256"
        }
      ],
      "name": "participantes",
      "outputs": [
        {
          "name": "",
          "type": "address"
        }
      ],
      "payable": false,
      "stateMutability": "view",
      "type": "function",
      "signature": "0xb25924c1"
    },
    {
      "inputs": [],
      "payable": false,
      "stateMutability": "nonpayable",
      "type": "constructor",
      "signature": "constructor"
    },
    {
      "anonymous": false,
      "inputs": [
        {
          "indexed": false,
          "name": "name",
          "type": "string"
        },
        {
          "indexed": false,
          "name": "age",
          "type": "uint256"
        }
      ],
      "name": "Instructor",
      "type": "event",
      "signature": "0x010becc10ca1475887c4ec429def1ccc2e9ea1713fe8b0d4e9a1d009042f6b8e"
    },
    {
      "constant": false,
      "inputs": [],
      "name": "adicionarParticipante",
      "outputs": [],
      "payable": false,
      "stateMutability": "nonpayable",
      "type": "function",
      "signature": "0x16a79522"
    },
    {
      "constant": true,
      "inputs": [],
      "name": "getLength",
      "outputs": [
        {
          "name": "count",
          "type": "uint256"
        }
      ],
      "payable": false,
      "stateMutability": "view",
      "type": "function",
      "signature": "0xbe1c766b"
    }
  ],
  "bytecode": "0x608060405234801561001057600080fd5b506040805190810160405280600881526020017f7072696d6569726f0000000000000000000000000000000000000000000000008152506001908051906020019061005c929190610062565b50610107565b828054600181600116156101000203166002900490600052602060002090601f016020900481019282601f106100a357805160ff19168380011785556100d1565b828001600101855582156100d1579182015b828111156100d05782518255916020019190600101906100b5565b5b5090506100de91906100e2565b5090565b61010491905b808211156101005760008160009055506001016100e8565b5090565b90565b6103a1806101166000396000f3fe608060405260043610610062576000357c0100000000000000000000000000000000000000000000000000000000900463ffffffff16806316a79522146100675780638da5cb5b1461007e578063b25924c11461010e578063be1c766b14610189575b600080fd5b34801561007357600080fd5b5061007c6101b4565b005b34801561008a57600080fd5b5061009361028d565b6040518080602001828103825283818151815260200191508051906020019080838360005b838110156100d35780820151818401526020810190506100b8565b50505050905090810190601f1680156101005780820380516001836020036101000a031916815260200191505b509250505060405180910390f35b34801561011a57600080fd5b506101476004803603602081101561013157600080fd5b810190808035906020019092919050505061032b565b604051808273ffffffffffffffffffffffffffffffffffffffff1673ffffffffffffffffffffffffffffffffffffffff16815260200191505060405180910390f35b34801561019557600080fd5b5061019e610369565b6040518082815260200191505060405180910390f35b60003390806001815401808255809150509060018203906000526020600020016000909192909190916101000a81548173ffffffffffffffffffffffffffffffffffffffff021916908373ffffffffffffffffffffffffffffffffffffffff160217905550507f010becc10ca1475887c4ec429def1ccc2e9ea1713fe8b0d4e9a1d009042f6b8e607b6040518080602001838152602001828103825260038152602001807f6f6c6100000000000000000000000000000000000000000000000000000000008152506020019250505060405180910390a1565b60018054600181600116156101000203166002900480601f0160208091040260200160405190810160405280929190818152602001828054600181600116156101000203166002900480156103235780601f106102f857610100808354040283529160200191610323565b820191906000526020600020905b81548152906001019060200180831161030657829003601f168201915b505050505081565b60008181548110151561033a57fe5b906000526020600020016000915054906101000a900473ffffffffffffffffffffffffffffffffffffffff1681565b6000808054905090509056fea165627a7a7230582054a9963e21157da46899a27596b622a7b54ced533d916c2c173915055b4c83a00029",
  "source": "pragma solidity ^0.5.0;\n\ncontract Transferencias {\n\n    address[] public participantes;\n    string public owner;\n\n\n\n    \n    /// The smart contract's constructor\n    constructor() public {\n        owner = \"primeiro\";\n    \n    }\n    event Instructor(\n       string name,\n       uint age\n    );\n\n    function adicionarParticipante() public{\n        participantes.push(msg.sender);\n        emit Instructor(\"ola\",123); \n\n    }\n\n    function getLength() public view returns (uint count) {\n        return participantes.length;\n    }\n    \n\n\n}\n\n",
  "sourcePath": "/home/pc/Desktop/2semestre/Eng_seg/BlockchainProject/contracts/Transferencias.sol",
  "compiler": {
    "name": "solc",
    "version": "0.5.0+commit.1d4f565a.Emscripten.clang"
  },
  "schemaVersion": "3.0.2",
  "updatedAt": "2019-03-20T09:42:58.499Z",
  "devdoc": {
    "methods": {}
  },
  "userdoc": {
    "methods": {
      "constructor": "The smart contract's constructor"
    }
  }
}