{
  "contractName": "Transferencias",
  "abi": [
    {
      "constant": true,
      "inputs": [],
      "name": "owner2",
      "outputs": [
        {
          "name": "",
          "type": "bytes32"
        }
      ],
      "payable": false,
      "stateMutability": "view",
      "type": "function",
      "signature": "0x52709725"
    },
    {
      "constant": true,
      "inputs": [],
      "name": "owner",
      "outputs": [
        {
          "name": "",
          "type": "string"
        }
      ],
      "payable": false,
      "stateMutability": "view",
      "type": "function",
      "signature": "0x8da5cb5b"
    },
    {
      "constant": true,
      "inputs": [
        {
          "name": "",
          "type": "uint256"
        }
      ],
      "name": "participantes",
      "outputs": [
        {
          "name": "",
          "type": "address"
        }
      ],
      "payable": false,
      "stateMutability": "view",
      "type": "function",
      "signature": "0xb25924c1"
    },
    {
      "inputs": [],
      "payable": false,
      "stateMutability": "nonpayable",
      "type": "constructor",
      "signature": "constructor"
    },
    {
      "anonymous": false,
      "inputs": [
        {
          "indexed": false,
          "name": "name",
          "type": "string"
        },
        {
          "indexed": false,
          "name": "age",
          "type": "uint256"
        }
      ],
      "name": "Exemplo",
      "type": "event",
      "signature": "0x9248a77bbe413ca7fda21b9e18cbd8bcebfaf4236c06a66f70a3fe6296a297e7"
    },
    {
      "constant": false,
      "inputs": [],
      "name": "adicionarParticipante",
      "outputs": [],
      "payable": false,
      "stateMutability": "nonpayable",
      "type": "function",
      "signature": "0x16a79522"
    },
    {
      "constant": true,
      "inputs": [],
      "name": "getLength",
      "outputs": [
        {
          "name": "count",
          "type": "uint256"
        }
      ],
      "payable": false,
      "stateMutability": "view",
      "type": "function",
      "signature": "0xbe1c766b"
    },
    {
      "constant": true,
      "inputs": [
        {
          "name": "id",
          "type": "uint256"
        }
      ],
      "name": "getJogador",
      "outputs": [
        {
          "name": "count",
          "type": "string"
        }
      ],
      "payable": false,
      "stateMutability": "view",
      "type": "function",
      "signature": "0x89e4f016"
    },
    {
      "constant": true,
      "inputs": [],
      "name": "getLengthJogadores",
      "outputs": [
        {
          "name": "num",
          "type": "uint256"
        }
      ],
      "payable": false,
      "stateMutability": "view",
      "type": "function",
      "signature": "0xbedc713d"
    }
  ],
  "bytecode": "0x608060405234801561001057600080fd5b506040805190810160405280600881526020017f7072696d6569726f0000000000000000000000000000000000000000000000008152506001908051906020019061005c9291906102f8565b506100aa6040805190810160405280600881526020017f7072696d6569726f0000000000000000000000000000000000000000000000008152506101c3640100000000026401000000009004565b600281905550610137600160146040805190810160405280601181526020017f4361726c6f7320476f6ec3a7616c7665730000000000000000000000000000008152506040805190810160405280600a81526020017f30322f30312f3139393700000000000000000000000000000000000000000000815250610240640100000000026401000000009004565b6101be600260146040805190810160405280600f81526020017f5269636172646f20506569786f746f00000000000000000000000000000000008152506040805190810160405280600a81526020017f30312f31312f3139373700000000000000000000000000000000000000000000815250610240640100000000026401000000009004565b61041d565b6000816040516020018082805190602001908083835b6020831015156101fe57805182526020820191506020810190506020830392506101d9565b6001836020036101000a038019825116818451168082178552505050505050905001915050604051602081830303815290604052805190602001209050919050565b600384908060018154018082558091505090600182039060005260206000200160009091929091909150555060806040519081016040528085815260200183815260200184815260200182815250600560008681526020019081526020016000206000820151816000015560208201518160010190805190602001906102c7929190610378565b506040820151816002015560608201518160030190805190602001906102ee929190610378565b5090505050505050565b828054600181600116156101000203166002900490600052602060002090601f016020900481019282601f1061033957805160ff1916838001178555610367565b82800160010185558215610367579182015b8281111561036657825182559160200191906001019061034b565b5b50905061037491906103f8565b5090565b828054600181600116156101000203166002900490600052602060002090601f016020900481019282601f106103b957805160ff19168380011785556103e7565b828001600101855582156103e7579182015b828111156103e65782518255916020019190600101906103cb565b5b5090506103f491906103f8565b5090565b61041a91905b808211156104165760008160009055506001016103fe565b5090565b90565b6105978061042c6000396000f3fe608060405260043610610083576000357c0100000000000000000000000000000000000000000000000000000000900463ffffffff16806316a7952214610088578063527097251461009f57806389e4f016146100ca5780638da5cb5b1461017e578063b25924c11461020e578063be1c766b14610289578063bedc713d146102b4575b600080fd5b34801561009457600080fd5b5061009d6102df565b005b3480156100ab57600080fd5b506100b46103b8565b6040518082815260200191505060405180910390f35b3480156100d657600080fd5b50610103600480360360208110156100ed57600080fd5b81019080803590602001909291905050506103be565b6040518080602001828103825283818151815260200191508051906020019080838360005b83811015610143578082015181840152602081019050610128565b50505050905090810190601f1680156101705780820380516001836020036101000a031916815260200191505b509250505060405180910390f35b34801561018a57600080fd5b50610193610476565b6040518080602001828103825283818151815260200191508051906020019080838360005b838110156101d35780820151818401526020810190506101b8565b50505050905090810190601f1680156102005780820380516001836020036101000a031916815260200191505b509250505060405180910390f35b34801561021a57600080fd5b506102476004803603602081101561023157600080fd5b8101908080359060200190929190505050610514565b604051808273ffffffffffffffffffffffffffffffffffffffff1673ffffffffffffffffffffffffffffffffffffffff16815260200191505060405180910390f35b34801561029557600080fd5b5061029e610552565b6040518082815260200191505060405180910390f35b3480156102c057600080fd5b506102c961055e565b6040518082815260200191505060405180910390f35b60003390806001815401808255809150509060018203906000526020600020016000909192909190916101000a81548173ffffffffffffffffffffffffffffffffffffffff021916908373ffffffffffffffffffffffffffffffffffffffff160217905550507f9248a77bbe413ca7fda21b9e18cbd8bcebfaf4236c06a66f70a3fe6296a297e7607b6040518080602001838152602001828103825260038152602001807f6f6c6100000000000000000000000000000000000000000000000000000000008152506020019250505060405180910390a1565b60025481565b6060600560008381526020019081526020016000206001018054600181600116156101000203166002900480601f01602080910402602001604051908101604052809291908181526020018280546001816001161561010002031660029004801561046a5780601f1061043f5761010080835404028352916020019161046a565b820191906000526020600020905b81548152906001019060200180831161044d57829003601f168201915b50505050509050919050565b60018054600181600116156101000203166002900480601f01602080910402602001604051908101604052809291908181526020018280546001816001161561010002031660029004801561050c5780601f106104e15761010080835404028352916020019161050c565b820191906000526020600020905b8154815290600101906020018083116104ef57829003601f168201915b505050505081565b60008181548110151561052357fe5b906000526020600020016000915054906101000a900473ffffffffffffffffffffffffffffffffffffffff1681565b60008080549050905090565b600060038054905090509056fea165627a7a72305820aa313ea53e65f6d17eeac245f334474884bc4b6acbe335fd2ddc877b64311a050029",
  "source": "pragma solidity ^0.5.0;\n\ncontract Transferencias {\n\n    address[] public participantes;\n    string public owner;\n    bytes32 public owner2;\n\n    struct Jogador{\n        uint id;\n        string nome;\n        uint idade;\n        string nascimento;\n    }\n\n    struct Venda {\n        uint contribuinteOri;\n        uint contribuinteDest;\n        uint valorTotal;\n        uint valorIva;\n        Jogador jogador;\n        uint data;  \n    }\n\n    struct Fatura{\n        uint hashVenda;\n        Venda venda;\n        uint estadoVenda;\n    }\n\n    uint[] KeysJogadores;\n    mapping (address => Fatura) transacoes;\n    mapping (uint => Jogador) jogadores;\n    \n    //eventos teste \n    event Exemplo(\n       string name,\n       uint age\n    );\n\n\n    \n    /// The smart contract's constructor\n    constructor() public {\n        owner = \"primeiro\";\n        owner2= calculateHash(\"primeiro\");\n\n        //adicionar um jogador\n        adicionaJogador(1,20,\"Carlos Gonçalves\",\"02/01/1997\");\n        adicionaJogador(2,20,\"Ricardo Peixoto\",\"01/11/1977\");\n    \n    }\n\n    function adicionarParticipante() public{\n        participantes.push(msg.sender);\n        emit Exemplo(\"ola\",123); \n\n    }\n\n    function adicionaJogador(uint id, uint idade, string memory nome, string  memory nascimento) private{\n            //fazer isto porque nao da para ter o tamanho dos maps aqui\n            KeysJogadores.push(id);\n            jogadores[id] = Jogador({id:id,nome:nome,idade:idade,nascimento:nascimento});\n   \n    }\n\n    function getLength() public view returns (uint count) {\n        return participantes.length;\n    }\n\n    function getJogador(uint id) public view returns (string memory count) {\n        return jogadores[id].nome;\n    }\n    \n    function getLengthJogadores() public view returns (uint num){\n        return KeysJogadores.length;\n    }\n\n    function calculateHash(string memory s )  private  returns (bytes32 res) \n    {\n        return keccak256(abi.encodePacked(s));\n    }\n\n}\n\n",
  "sourcePath": "/home/pc/Desktop/2semestre/Eng_seg/BlockchainProject/contracts/Transferencias.sol",
  "compiler": {
    "name": "solc",
    "version": "0.5.0+commit.1d4f565a.Emscripten.clang"
  },
  "schemaVersion": "3.0.5",
  "updatedAt": "2019-03-23T14:14:12.887Z",
  "devdoc": {
    "methods": {}
  },
  "userdoc": {
    "methods": {
      "constructor": "The smart contract's constructor"
    }
  }
}